{
  "_format": "hh-sol-artifact-1",
  "contractName": "Auth",
  "sourceName": "contracts/Auth/Auth.sol",
  "abi": [
    {
      "inputs": [
        {
          "internalType": "string",
          "name": "platform_token",
          "type": "string"
        }
      ],
      "stateMutability": "nonpayable",
      "type": "constructor"
    },
    {
      "inputs": [],
      "name": "Platform_Token",
      "outputs": [
        {
          "internalType": "string",
          "name": "",
          "type": "string"
        }
      ],
      "stateMutability": "view",
      "type": "function"
    },
    {
      "inputs": [
        {
          "internalType": "string",
          "name": "platform_token",
          "type": "string"
        }
      ],
      "name": "platformCheck",
      "outputs": [
        {
          "internalType": "bool",
          "name": "",
          "type": "bool"
        }
      ],
      "stateMutability": "view",
      "type": "function"
    }
  ],
  "bytecode": "0x60806040523480156200001157600080fd5b5060405162000c4538038062000c45833981810160405281019062000037919062000218565b73__$d8a3f2adb54e08eb4054d90fde97f16b4e$__63316b5efe82836040518363ffffffff1660e01b815260040162000072929190620002aa565b60006040518083038186803b1580156200008b57600080fd5b505af4158015620000a0573d6000803e3d6000fd5b505050506040513d6000823e3d601f19601f82011682018060405250810190620000cb919062000218565b60009080519060200190620000e2929190620000ea565b505062000485565b828054620000f89062000396565b90600052602060002090601f0160209004810192826200011c576000855562000168565b82601f106200013757805160ff191683800117855562000168565b8280016001018555821562000168579182015b82811115620001675782518255916020019190600101906200014a565b5b5090506200017791906200017b565b5090565b5b80821115620001965760008160009055506001016200017c565b5090565b6000620001b1620001ab846200030e565b620002e5565b905082815260208101848484011115620001d057620001cf62000465565b5b620001dd84828562000360565b509392505050565b600082601f830112620001fd57620001fc62000460565b5b81516200020f8482602086016200019a565b91505092915050565b6000602082840312156200023157620002306200046f565b5b600082015167ffffffffffffffff8111156200025257620002516200046a565b5b6200026084828501620001e5565b91505092915050565b6000620002768262000344565b6200028281856200034f565b93506200029481856020860162000360565b6200029f8162000474565b840191505092915050565b60006040820190508181036000830152620002c6818562000269565b90508181036020830152620002dc818462000269565b90509392505050565b6000620002f162000304565b9050620002ff8282620003cc565b919050565b6000604051905090565b600067ffffffffffffffff8211156200032c576200032b62000431565b5b620003378262000474565b9050602081019050919050565b600081519050919050565b600082825260208201905092915050565b60005b838110156200038057808201518184015260208101905062000363565b8381111562000390576000848401525b50505050565b60006002820490506001821680620003af57607f821691505b60208210811415620003c657620003c562000402565b5b50919050565b620003d78262000474565b810181811067ffffffffffffffff82111715620003f957620003f862000431565b5b80604052505050565b7f4e487b7100000000000000000000000000000000000000000000000000000000600052602260045260246000fd5b7f4e487b7100000000000000000000000000000000000000000000000000000000600052604160045260246000fd5b600080fd5b600080fd5b600080fd5b600080fd5b6000601f19601f8301169050919050565b6107b080620004956000396000f3fe608060405234801561001057600080fd5b50600436106100365760003560e01c80636740b9101461003b5780638e81979a14610059575b600080fd5b610043610089565b6040516100509190610507565b60405180910390f35b610073600480360381019061006e9190610359565b610117565b60405161008091906104ec565b60405180910390f35b600080546100969061067d565b80601f01602080910402602001604051908101604052809291908181526020018280546100c29061067d565b801561010f5780601f106100e45761010080835404028352916020019161010f565b820191906000526020600020905b8154815290600101906020018083116100f257829003601f168201915b505050505081565b600073__$63b3866c7ad69c9b67104bce93fa94acc6$__63bed34bba600073__$d8a3f2adb54e08eb4054d90fde97f16b4e$__63316b5efe86876040518363ffffffff1660e01b815260040161016e929190610529565b60006040518083038186803b15801561018657600080fd5b505af415801561019a573d6000803e3d6000fd5b505050506040513d6000823e3d601f19601f820116820180604052508101906101c391906103a2565b6040518363ffffffff1660e01b81526004016101e0929190610560565b60206040518083038186803b1580156101f857600080fd5b505af415801561020c573d6000803e3d6000fd5b505050506040513d601f19601f82011682018060405250810190610230919061032c565b9050919050565b600061024a610245846105bc565b610597565b90508281526020810184848401111561026657610265610743565b5b61027184828561063b565b509392505050565b600061028c610287846105bc565b610597565b9050828152602081018484840111156102a8576102a7610743565b5b6102b384828561064a565b509392505050565b6000815190506102ca81610763565b92915050565b600082601f8301126102e5576102e461073e565b5b81356102f5848260208601610237565b91505092915050565b600082601f8301126103135761031261073e565b5b8151610323848260208601610279565b91505092915050565b6000602082840312156103425761034161074d565b5b6000610350848285016102bb565b91505092915050565b60006020828403121561036f5761036e61074d565b5b600082013567ffffffffffffffff81111561038d5761038c610748565b5b610399848285016102d0565b91505092915050565b6000602082840312156103b8576103b761074d565b5b600082015167ffffffffffffffff8111156103d6576103d5610748565b5b6103e2848285016102fe565b91505092915050565b6103f48161062f565b82525050565b600061040582610602565b61040f818561060d565b935061041f81856020860161064a565b61042881610752565b840191505092915050565b600061043e82610602565b610448818561061e565b935061045881856020860161064a565b61046181610752565b840191505092915050565b600081546104798161067d565b610483818661061e565b9450600182166000811461049e57600181146104b0576104e3565b60ff19831686526020860193506104e3565b6104b9856105ed565b60005b838110156104db578154818901526001820191506020810190506104bc565b808801955050505b50505092915050565b600060208201905061050160008301846103eb565b92915050565b6000602082019050818103600083015261052181846103fa565b905092915050565b600060408201905081810360008301526105438185610433565b905081810360208301526105578184610433565b90509392505050565b6000604082019050818103600083015261057a818561046c565b9050818103602083015261058e8184610433565b90509392505050565b60006105a16105b2565b90506105ad82826106af565b919050565b6000604051905090565b600067ffffffffffffffff8211156105d7576105d661070f565b5b6105e082610752565b9050602081019050919050565b60008190508160005260206000209050919050565b600081519050919050565b600082825260208201905092915050565b600082825260208201905092915050565b60008115159050919050565b82818337600083830152505050565b60005b8381101561066857808201518184015260208101905061064d565b83811115610677576000848401525b50505050565b6000600282049050600182168061069557607f821691505b602082108114156106a9576106a86106e0565b5b50919050565b6106b882610752565b810181811067ffffffffffffffff821117156106d7576106d661070f565b5b80604052505050565b7f4e487b7100000000000000000000000000000000000000000000000000000000600052602260045260246000fd5b7f4e487b7100000000000000000000000000000000000000000000000000000000600052604160045260246000fd5b600080fd5b600080fd5b600080fd5b600080fd5b6000601f19601f8301169050919050565b61076c8161062f565b811461077757600080fd5b5056fea2646970667358221220b2d6678b3dfce1fba08591059b1f860d6f94a848a8f0de73433cb97580e53eca64736f6c63430008060033",
  "linkReferences": {
    "contracts/Hashing/Hashing.sol": {
      "Hashing": [
        {
          "length": 20,
          "start": 57
        },
        {
          "length": 20,
          "start": 1484
        }
      ]
    },
    "contracts/Utils/Utils.sol": {
      "Utils": [
        {
          "length": 20,
          "start": 1456
        }
      ]
    }
  },
  "deployedLinkReferences": {
    "contracts/Hashing/Hashing.sol": {
      "Hashing": [
        {
          "length": 20,
          "start": 311
        }
      ]
    },
    "contracts/Utils/Utils.sol": {
      "Utils": [
        {
          "length": 20,
          "start": 283
        }
      ]
    }
  }
}