{
  "_format": "hh-sol-artifact-1",
  "contractName": "Hashing",
  "sourceName": "contracts/Hashing/Hashing.sol",
  "abi": [
    {
      "inputs": [
        {
          "internalType": "string",
          "name": "token",
          "type": "string"
        },
        {
          "internalType": "string",
          "name": "body",
          "type": "string"
        }
      ],
      "name": "dehash",
      "outputs": [
        {
          "internalType": "string",
          "name": "",
          "type": "string"
        }
      ],
      "stateMutability": "pure",
      "type": "function"
    },
    {
      "inputs": [
        {
          "internalType": "string",
          "name": "token",
          "type": "string"
        },
        {
          "internalType": "string",
          "name": "body",
          "type": "string"
        }
      ],
      "name": "hash",
      "outputs": [
        {
          "internalType": "string",
          "name": "",
          "type": "string"
        }
      ],
      "stateMutability": "pure",
      "type": "function"
    }
  ],
  "bytecode": "0x612fbd610053600b82828239805160001a607314610046577f4e487b7100000000000000000000000000000000000000000000000000000000600052600060045260246000fd5b30600052607381538281f3fe73000000000000000000000000000000000000000030146080604052600436106100405760003560e01c8063316b5efe146100455780636eaebcd814610075575b600080fd5b61005f600480360381019061005a9190611eca565b6100a5565b60405161006c9190612655565b60405180910390f35b61008f600480360381019061008a9190611eca565b610d78565b60405161009c9190612655565b60405180910390f35b606060008251905060006002826100bc9190612b9f565b6002836100c99190612a32565b6100d391906129dc565b90506100de84611c09565b935060006100ee85600084611d1c565b905060006100fd868486611d1c565b905080826040516020016101129291906123fd565b60405160208183030381529060405295506000600567ffffffffffffffff8111156101405761013f612c8c565b5b60405190808252806020026020018201604052801561017357816020015b606081526020019060019003908161015e5790505b509050600088905060008151905060006005826101909190612b9f565b90506000806002905060005b600581101561021b5760008411156101cd576001826101bb91906129dc565b91506001846101ca9190612a63565b93505b6101d88e8484611d1c565b8782815181106101eb576101ea612c5d565b5b602002602001018190525081925060028261020691906129dc565b9150808061021390612b4c565b91505061019c565b5060008a67ffffffffffffffff81111561023857610237612c8c565b5b60405190808252806020026020018201604052801561026b57816020015b60608152602001906001900390816102565790505b50905060008d905060005b8251811015610cef57600082828151811061029457610293612c5d565b5b602001015160f81c60f81b6040516020016102af91906123ba565b604051602081830303815290604052905073__$63b3866c7ad69c9b67104bce93fa94acc6$__63bed34bba826040518263ffffffff1660e01b81526004016102f7919061274d565b60206040518083038186803b15801561030f57600080fd5b505af4158015610323573d6000803e3d6000fd5b505050506040513d601f19601f820116820180604052508101906103479190611e9d565b156103aa57896000815181106103605761035f612c5d565b5b602002602001015160405160200161037891906125db565b60405160208183030381529060405284838151811061039a57610399612c5d565b5b6020026020010181905250610cdb565b73__$63b3866c7ad69c9b67104bce93fa94acc6$__63bed34bba826040518263ffffffff1660e01b81526004016103e191906126ae565b60206040518083038186803b1580156103f957600080fd5b505af415801561040d573d6000803e3d6000fd5b505050506040513d601f19601f820116820180604052508101906104319190611e9d565b15610494578960008151811061044a57610449612c5d565b5b60200260200101516040516020016104629190612608565b60405160208183030381529060405284838151811061048457610483612c5d565b5b6020026020010181905250610cda565b73__$63b3866c7ad69c9b67104bce93fa94acc6$__63bed34bba826040518263ffffffff1660e01b81526004016104cb919061288b565b60206040518083038186803b1580156104e357600080fd5b505af41580156104f7573d6000803e3d6000fd5b505050506040513d601f19601f8201168201806040525081019061051b9190611e9d565b1561057e578960018151811061053457610533612c5d565b5b602002602001015160405160200161054c91906125db565b60405160208183030381529060405284838151811061056e5761056d612c5d565b5b6020026020010181905250610cd9565b73__$63b3866c7ad69c9b67104bce93fa94acc6$__63bed34bba826040518263ffffffff1660e01b81526004016105b59190612782565b60206040518083038186803b1580156105cd57600080fd5b505af41580156105e1573d6000803e3d6000fd5b505050506040513d601f19601f820116820180604052508101906106059190611e9d565b15610668578960018151811061061e5761061d612c5d565b5b60200260200101516040516020016106369190612608565b60405160208183030381529060405284838151811061065857610657612c5d565b5b6020026020010181905250610cd8565b73__$63b3866c7ad69c9b67104bce93fa94acc6$__63bed34bba826040518263ffffffff1660e01b815260040161069f919061292a565b60206040518083038186803b1580156106b757600080fd5b505af41580156106cb573d6000803e3d6000fd5b505050506040513d601f19601f820116820180604052508101906106ef9190611e9d565b15610752578960028151811061070857610707612c5d565b5b602002602001015160405160200161072091906125db565b60405160208183030381529060405284838151811061074257610741612c5d565b5b6020026020010181905250610cd7565b73__$63b3866c7ad69c9b67104bce93fa94acc6$__63bed34bba826040518263ffffffff1660e01b81526004016107899190612821565b60206040518083038186803b1580156107a157600080fd5b505af41580156107b5573d6000803e3d6000fd5b505050506040513d601f19601f820116820180604052508101906107d99190611e9d565b1561083c57896002815181106107f2576107f1612c5d565b5b602002602001015160405160200161080a9190612608565b60405160208183030381529060405284838151811061082c5761082b612c5d565b5b6020026020010181905250610cd6565b73__$63b3866c7ad69c9b67104bce93fa94acc6$__63bed34bba826040518263ffffffff1660e01b815260040161087391906127b7565b60206040518083038186803b15801561088b57600080fd5b505af415801561089f573d6000803e3d6000fd5b505050506040513d601f19601f820116820180604052508101906108c39190611e9d565b1561092657896003815181106108dc576108db612c5d565b5b60200260200101516040516020016108f491906125db565b60405160208183030381529060405284838151811061091657610915612c5d565b5b6020026020010181905250610cd5565b73__$63b3866c7ad69c9b67104bce93fa94acc6$__63bed34bba826040518263ffffffff1660e01b815260040161095d91906128f5565b60206040518083038186803b15801561097557600080fd5b505af4158015610989573d6000803e3d6000fd5b505050506040513d601f19601f820116820180604052508101906109ad9190611e9d565b15610a1057896003815181106109c6576109c5612c5d565b5b60200260200101516040516020016109de9190612608565b604051602081830303815290604052848381518110610a00576109ff612c5d565b5b6020026020010181905250610cd4565b73__$63b3866c7ad69c9b67104bce93fa94acc6$__63bed34bba826040518263ffffffff1660e01b8152600401610a4791906126e3565b60206040518083038186803b158015610a5f57600080fd5b505af4158015610a73573d6000803e3d6000fd5b505050506040513d601f19601f82011682018060405250810190610a979190611e9d565b15610afa5789600481518110610ab057610aaf612c5d565b5b6020026020010151604051602001610ac891906125db565b604051602081830303815290604052848381518110610aea57610ae9612c5d565b5b6020026020010181905250610cd3565b73__$63b3866c7ad69c9b67104bce93fa94acc6$__63bed34bba826040518263ffffffff1660e01b8152600401610b319190612718565b60206040518083038186803b158015610b4957600080fd5b505af4158015610b5d573d6000803e3d6000fd5b505050506040513d601f19601f82011682018060405250810190610b819190611e9d565b15610be45789600481518110610b9a57610b99612c5d565b5b6020026020010151604051602001610bb29190612608565b604051602081830303815290604052848381518110610bd457610bd3612c5d565b5b6020026020010181905250610cd2565b73__$63b3866c7ad69c9b67104bce93fa94acc6$__63bed34bba826040518263ffffffff1660e01b8152600401610c1b91906127ec565b60206040518083038186803b158015610c3357600080fd5b505af4158015610c47573d6000803e3d6000fd5b505050506040513d601f19601f82011682018060405250810190610c6b9190611e9d565b15610cb157604051602001610c7f90612635565b604051602081830303815290604052848381518110610ca157610ca0612c5d565b5b6020026020010181905250610cd1565b80848381518110610cc557610cc4612c5d565b5b60200260200101819052505b5b5b5b5b5b5b5b5b5b5b508080610ce790612b4c565b915050610276565b50600060405180602001604052806000815250905060005b8351811015610d615781848281518110610d2457610d23612c5d565b5b6020026020010151604051602001610d3d9291906123fd565b60405160208183030381529060405291508080610d5990612b4c565b915050610d07565b50809d505050505050505050505050505092915050565b60606000600567ffffffffffffffff811115610d9757610d96612c8c565b5b604051908082528060200260200182016040528015610dca57816020015b6060815260200190600190039081610db55790505b50905060008490506000815190506000600582610de79190612b9f565b90506000806002905060005b6005811015610e72576000841115610e2457600182610e1291906129dc565b9150600184610e219190612a63565b93505b610e2f8a8484611d1c565b878281518110610e4257610e41612c5d565b5b6020026020010181905250819250600282610e5d91906129dc565b91508080610e6a90612b4c565b915050610df3565b50606060008990506000606060005b8351811015611b0a576000848281518110610e9f57610e9e612c5d565b5b602001015160f81c60f81b604051602001610eba91906123ba565b604051602081830303815290604052905073__$63b3866c7ad69c9b67104bce93fa94acc6$__63bed34bba826040518263ffffffff1660e01b8152600401610f0291906128c0565b60206040518083038186803b158015610f1a57600080fd5b505af4158015610f2e573d6000803e3d6000fd5b505050506040513d601f19601f82011682018060405250810190610f529190611e9d565b15610f8d57600184610f6491906129dc565b935082604051602001610f779190612575565b6040516020818303038152906040529250611af6565b73__$63b3866c7ad69c9b67104bce93fa94acc6$__63bed34bba826040518263ffffffff1660e01b8152600401610fc49190612856565b60206040518083038186803b158015610fdc57600080fd5b505af4158015610ff0573d6000803e3d6000fd5b505050506040513d601f19601f820116820180604052508101906110149190611e9d565b15611a9d5760018461102691906129dc565b9350826040516020016110399190612531565b60405160208183030381529060405292506004841415611a985773__$63b3866c7ad69c9b67104bce93fa94acc6$__63bed34bba848e60008151811061108257611081612c5d565b5b602002602001015160405160200161109a91906125db565b6040516020818303038152906040526040518363ffffffff1660e01b81526004016110c6929190612677565b60206040518083038186803b1580156110de57600080fd5b505af41580156110f2573d6000803e3d6000fd5b505050506040513d601f19601f820116820180604052508101906111169190611e9d565b15611142578560405160200161112c9190612487565b6040516020818303038152906040529550611a81565b73__$63b3866c7ad69c9b67104bce93fa94acc6$__63bed34bba848e60008151811061117157611170612c5d565b5b60200260200101516040516020016111899190612608565b6040516020818303038152906040526040518363ffffffff1660e01b81526004016111b5929190612677565b60206040518083038186803b1580156111cd57600080fd5b505af41580156111e1573d6000803e3d6000fd5b505050506040513d601f19601f820116820180604052508101906112059190611e9d565b15611231578560405160200161121b9190612421565b6040516020818303038152906040529550611a80565b73__$63b3866c7ad69c9b67104bce93fa94acc6$__63bed34bba848e6001815181106112605761125f612c5d565b5b602002602001015160405160200161127891906125db565b6040516020818303038152906040526040518363ffffffff1660e01b81526004016112a4929190612677565b60206040518083038186803b1580156112bc57600080fd5b505af41580156112d0573d6000803e3d6000fd5b505050506040513d601f19601f820116820180604052508101906112f49190611e9d565b15611320578560405160200161130a9190612553565b6040516020818303038152906040529550611a7f565b73__$63b3866c7ad69c9b67104bce93fa94acc6$__63bed34bba848e60018151811061134f5761134e612c5d565b5b60200260200101516040516020016113679190612608565b6040516020818303038152906040526040518363ffffffff1660e01b8152600401611393929190612677565b60206040518083038186803b1580156113ab57600080fd5b505af41580156113bf573d6000803e3d6000fd5b505050506040513d601f19601f820116820180604052508101906113e39190611e9d565b1561140f57856040516020016113f991906124a9565b6040516020818303038152906040529550611a7e565b73__$63b3866c7ad69c9b67104bce93fa94acc6$__63bed34bba848e60028151811061143e5761143d612c5d565b5b602002602001015160405160200161145691906125db565b6040516020818303038152906040526040518363ffffffff1660e01b8152600401611482929190612677565b60206040518083038186803b15801561149a57600080fd5b505af41580156114ae573d6000803e3d6000fd5b505050506040513d601f19601f820116820180604052508101906114d29190611e9d565b156114fe57856040516020016114e891906125b9565b6040516020818303038152906040529550611a7d565b73__$63b3866c7ad69c9b67104bce93fa94acc6$__63bed34bba848e60028151811061152d5761152c612c5d565b5b60200260200101516040516020016115459190612608565b6040516020818303038152906040526040518363ffffffff1660e01b8152600401611571929190612677565b60206040518083038186803b15801561158957600080fd5b505af415801561159d573d6000803e3d6000fd5b505050506040513d601f19601f820116820180604052508101906115c19190611e9d565b156115ed57856040516020016115d7919061250f565b6040516020818303038152906040529550611a7c565b73__$63b3866c7ad69c9b67104bce93fa94acc6$__63bed34bba848e60038151811061161c5761161b612c5d565b5b602002602001015160405160200161163491906125db565b6040516020818303038152906040526040518363ffffffff1660e01b8152600401611660929190612677565b60206040518083038186803b15801561167857600080fd5b505af415801561168c573d6000803e3d6000fd5b505050506040513d601f19601f820116820180604052508101906116b09190611e9d565b156116dc57856040516020016116c691906124cb565b6040516020818303038152906040529550611a7b565b73__$63b3866c7ad69c9b67104bce93fa94acc6$__63bed34bba848e60038151811061170b5761170a612c5d565b5b60200260200101516040516020016117239190612608565b6040516020818303038152906040526040518363ffffffff1660e01b815260040161174f929190612677565b60206040518083038186803b15801561176757600080fd5b505af415801561177b573d6000803e3d6000fd5b505050506040513d601f19601f8201168201806040525081019061179f9190611e9d565b156117cb57856040516020016117b59190612597565b6040516020818303038152906040529550611a7a565b73__$63b3866c7ad69c9b67104bce93fa94acc6$__63bed34bba848e6004815181106117fa576117f9612c5d565b5b602002602001015160405160200161181291906125db565b6040516020818303038152906040526040518363ffffffff1660e01b815260040161183e929190612677565b60206040518083038186803b15801561185657600080fd5b505af415801561186a573d6000803e3d6000fd5b505050506040513d601f19601f8201168201806040525081019061188e9190611e9d565b156118ba57856040516020016118a49190612443565b6040516020818303038152906040529550611a79565b73__$63b3866c7ad69c9b67104bce93fa94acc6$__63bed34bba848e6004815181106118e9576118e8612c5d565b5b60200260200101516040516020016119019190612608565b6040516020818303038152906040526040518363ffffffff1660e01b815260040161192d929190612677565b60206040518083038186803b15801561194557600080fd5b505af4158015611959573d6000803e3d6000fd5b505050506040513d601f19601f8201168201806040525081019061197d9190611e9d565b156119a957856040516020016119939190612465565b6040516020818303038152906040529550611a78565b73__$63b3866c7ad69c9b67104bce93fa94acc6$__63bed34bba846040516020016119d390612635565b6040516020818303038152906040526040518363ffffffff1660e01b81526004016119ff929190612677565b60206040518083038186803b158015611a1757600080fd5b505af4158015611a2b573d6000803e3d6000fd5b505050506040513d601f19601f82011682018060405250810190611a4f9190611e9d565b15611a775785604051602001611a6591906124ed565b60405160208183030381529060405295505b5b5b5b5b5b5b5b5b5b5b600093506040518060200160405280600081525092505b611af5565b6000841115611acf578281604051602001611ab99291906123fd565b6040516020818303038152906040529250611af4565b8581604051602001611ae29291906123fd565b60405160208183030381529060405295505b5b5b508080611b0290612b4c565b915050610e81565b506000849050600060405180602001604052806000815250905060005b8251811015611b845781838281518110611b4457611b43612c5d565b5b602001015160f81c60f81b604051602001611b609291906123d5565b60405160208183030381529060405291508080611b7c90612b4c565b915050611b27565b506000815190506000611ba5836000600285611ba09190612a32565b611d1c565b90506000611bc084600285611bba9190612a32565b85611d1c565b90508082604051602001611bd59291906123fd565b6040516020818303038152906040529350611bef84611c09565b9350839f5050505050505050505050505050505092915050565b606060008290506000815111611c2257611c21612bd0565b5b6000815167ffffffffffffffff811115611c3f57611c3e612c8c565b5b6040519080825280601f01601f191660200182016040528015611c715781602001600182028036833780820191505090505b509050600081905060005b8351811015611d1057838181518110611c9857611c97612c5d565b5b602001015160f81c60f81b826001838751611cb39190612a63565b611cbd9190612a63565b81518110611cce57611ccd612c5d565b5b60200101907effffffffffffffffffffffffffffffffffffffffffffffffffffffffffffff1916908160001a9053508080611d0890612b4c565b915050611c7c565b50809350505050919050565b6060600084905060008484611d319190612a63565b67ffffffffffffffff811115611d4a57611d49612c8c565b5b6040519080825280601f01601f191660200182016040528015611d7c5781602001600182028036833780820191505090505b50905060008590505b84811015611e0b57828181518110611da057611d9f612c5d565b5b602001015160f81c60f81b828783611db89190612a63565b81518110611dc957611dc8612c5d565b5b60200101907effffffffffffffffffffffffffffffffffffffffffffffffffffffffffffff1916908160001a9053508080611e0390612b4c565b915050611d85565b5080925050509392505050565b6000611e2b611e2684612984565b61295f565b905082815260208101848484011115611e4757611e46612cc0565b5b611e52848285612ad9565b509392505050565b600081519050611e6981612f70565b92915050565b600082601f830112611e8457611e83612cbb565b5b8135611e94848260208601611e18565b91505092915050565b600060208284031215611eb357611eb2612cca565b5b6000611ec184828501611e5a565b91505092915050565b60008060408385031215611ee157611ee0612cca565b5b600083013567ffffffffffffffff811115611eff57611efe612cc5565b5b611f0b85828601611e6f565b925050602083013567ffffffffffffffff811115611f2c57611f2b612cc5565b5b611f3885828601611e6f565b9150509250929050565b611f53611f4e82612aa3565b612b95565b82525050565b6000611f64826129b5565b611f6e81856129c0565b9350611f7e818560208601612ae8565b611f8781612ccf565b840191505092915050565b6000611f9d826129b5565b611fa781856129d1565b9350611fb7818560208601612ae8565b80840191505092915050565b6000611fd06001836129c0565b9150611fdb82612ce0565b602082019050919050565b6000611ff36001836129d1565b9150611ffe82612ce0565b600182019050919050565b60006120166001836129c0565b915061202182612d09565b602082019050919050565b60006120396001836129d1565b915061204482612d09565b600182019050919050565b600061205c6002836129d1565b915061206782612d32565b600282019050919050565b600061207f6001836129c0565b915061208a82612d5b565b602082019050919050565b60006120a26001836129d1565b91506120ad82612d5b565b600182019050919050565b60006120c56001836129c0565b91506120d082612d84565b602082019050919050565b60006120e86001836129d1565b91506120f382612d84565b600182019050919050565b600061210b6001836129c0565b915061211682612dad565b602082019050919050565b600061212e6001836129d1565b915061213982612dad565b600182019050919050565b60006121516001836129c0565b915061215c82612dd6565b602082019050919050565b60006121746001836129d1565b915061217f82612dd6565b600182019050919050565b60006121976001836129c0565b91506121a282612dff565b602082019050919050565b60006121ba6001836129d1565b91506121c582612dff565b600182019050919050565b60006121dd6001836129c0565b91506121e882612e28565b602082019050919050565b60006122006001836129d1565b915061220b82612e28565b600182019050919050565b60006122236001836129c0565b915061222e82612e51565b602082019050919050565b60006122466001836129d1565b915061225182612e51565b600182019050919050565b60006122696001836129c0565b915061227482612e7a565b602082019050919050565b600061228c6001836129d1565b915061229782612e7a565b600182019050919050565b60006122af6001836129c0565b91506122ba82612ea3565b602082019050919050565b60006122d26001836129d1565b91506122dd82612ea3565b600182019050919050565b60006122f56002836129d1565b915061230082612ecc565b600282019050919050565b60006123186001836129c0565b915061232382612ef5565b602082019050919050565b600061233b6001836129d1565b915061234682612ef5565b600182019050919050565b600061235e6004836129d1565b915061236982612f1e565b600482019050919050565b60006123816001836129c0565b915061238c82612f47565b602082019050919050565b60006123a46001836129d1565b91506123af82612f47565b600182019050919050565b60006123c68284611f42565b60018201915081905092915050565b60006123e18285611f92565b91506123ed8284611f42565b6001820191508190509392505050565b60006124098285611f92565b91506124158284611f92565b91508190509392505050565b600061242d8284611f92565b915061243882611fe6565b915081905092915050565b600061244f8284611f92565b915061245a8261202c565b915081905092915050565b60006124718284611f92565b915061247c82612095565b915081905092915050565b60006124938284611f92565b915061249e826120db565b915081905092915050565b60006124b58284611f92565b91506124c082612121565b915081905092915050565b60006124d78284611f92565b91506124e282612167565b915081905092915050565b60006124f98284611f92565b9150612504826121ad565b915081905092915050565b600061251b8284611f92565b9150612526826121f3565b915081905092915050565b600061253d8284611f92565b915061254882612239565b915081905092915050565b600061255f8284611f92565b915061256a8261227f565b915081905092915050565b60006125818284611f92565b915061258c826122c5565b915081905092915050565b60006125a38284611f92565b91506125ae8261232e565b915081905092915050565b60006125c58284611f92565b91506125d082612397565b915081905092915050565b60006125e6826122e8565b91506125f28284611f92565b91506125fd8261204f565b915081905092915050565b6000612613826122e8565b915061261f8284611f92565b915061262a82612351565b915081905092915050565b6000612640826122e8565b915061264b8261204f565b9150819050919050565b6000602082019050818103600083015261266f8184611f59565b905092915050565b600060408201905081810360008301526126918185611f59565b905081810360208301526126a58184611f59565b90509392505050565b600060408201905081810360008301526126c781611fc3565b905081810360208301526126db8184611f59565b905092915050565b600060408201905081810360008301526126fc81612009565b905081810360208301526127108184611f59565b905092915050565b6000604082019050818103600083015261273181612072565b905081810360208301526127458184611f59565b905092915050565b60006040820190508181036000830152612766816120b8565b9050818103602083015261277a8184611f59565b905092915050565b6000604082019050818103600083015261279b816120fe565b905081810360208301526127af8184611f59565b905092915050565b600060408201905081810360008301526127d081612144565b905081810360208301526127e48184611f59565b905092915050565b600060408201905081810360008301526128058161218a565b905081810360208301526128198184611f59565b905092915050565b6000604082019050818103600083015261283a816121d0565b9050818103602083015261284e8184611f59565b905092915050565b6000604082019050818103600083015261286f81612216565b905081810360208301526128838184611f59565b905092915050565b600060408201905081810360008301526128a48161225c565b905081810360208301526128b88184611f59565b905092915050565b600060408201905081810360008301526128d9816122a2565b905081810360208301526128ed8184611f59565b905092915050565b6000604082019050818103600083015261290e8161230b565b905081810360208301526129228184611f59565b905092915050565b6000604082019050818103600083015261294381612374565b905081810360208301526129578184611f59565b905092915050565b600061296961297a565b90506129758282612b1b565b919050565b6000604051905090565b600067ffffffffffffffff82111561299f5761299e612c8c565b5b6129a882612ccf565b9050602081019050919050565b600081519050919050565b600082825260208201905092915050565b600081905092915050565b60006129e782612acf565b91506129f283612acf565b9250827fffffffffffffffffffffffffffffffffffffffffffffffffffffffffffffffff03821115612a2757612a26612bff565b5b828201905092915050565b6000612a3d82612acf565b9150612a4883612acf565b925082612a5857612a57612c2e565b5b828204905092915050565b6000612a6e82612acf565b9150612a7983612acf565b925082821015612a8c57612a8b612bff565b5b828203905092915050565b60008115159050919050565b60007fff0000000000000000000000000000000000000000000000000000000000000082169050919050565b6000819050919050565b82818337600083830152505050565b60005b83811015612b06578082015181840152602081019050612aeb565b83811115612b15576000848401525b50505050565b612b2482612ccf565b810181811067ffffffffffffffff82111715612b4357612b42612c8c565b5b80604052505050565b6000612b5782612acf565b91507fffffffffffffffffffffffffffffffffffffffffffffffffffffffffffffffff821415612b8a57612b89612bff565b5b600182019050919050565b6000819050919050565b6000612baa82612acf565b9150612bb583612acf565b925082612bc557612bc4612c2e565b5b828206905092915050565b7f4e487b7100000000000000000000000000000000000000000000000000000000600052600160045260246000fd5b7f4e487b7100000000000000000000000000000000000000000000000000000000600052601160045260246000fd5b7f4e487b7100000000000000000000000000000000000000000000000000000000600052601260045260246000fd5b7f4e487b7100000000000000000000000000000000000000000000000000000000600052603260045260246000fd5b7f4e487b7100000000000000000000000000000000000000000000000000000000600052604160045260246000fd5b600080fd5b600080fd5b600080fd5b600080fd5b6000601f19601f8301169050919050565b7f4100000000000000000000000000000000000000000000000000000000000000600082015250565b7f7500000000000000000000000000000000000000000000000000000000000000600082015250565b7f7d7d000000000000000000000000000000000000000000000000000000000000600082015250565b7f5500000000000000000000000000000000000000000000000000000000000000600082015250565b7f6100000000000000000000000000000000000000000000000000000000000000600082015250565b7f4500000000000000000000000000000000000000000000000000000000000000600082015250565b7f6f00000000000000000000000000000000000000000000000000000000000000600082015250565b7f2000000000000000000000000000000000000000000000000000000000000000600082015250565b7f4900000000000000000000000000000000000000000000000000000000000000600082015250565b7f7d00000000000000000000000000000000000000000000000000000000000000600082015250565b7f6500000000000000000000000000000000000000000000000000000000000000600082015250565b7f7b00000000000000000000000000000000000000000000000000000000000000600082015250565b7f7b7b000000000000000000000000000000000000000000000000000000000000600082015250565b7f4f00000000000000000000000000000000000000000000000000000000000000600082015250565b7f63707d7d00000000000000000000000000000000000000000000000000000000600082015250565b7f6900000000000000000000000000000000000000000000000000000000000000600082015250565b612f7981612a97565b8114612f8457600080fd5b5056fea26469706673582212203f5da47ad2286f2bde5ff9d544877680d57e6f5dd5229e79fd44d47d6106520664736f6c63430008060033",
  "linkReferences": {
    "contracts/Utils/Utils.sol": {
      "Utils": [
        {
          "length": 20,
          "start": 789
        },
        {
          "length": 20,
          "start": 1023
        },
        {
          "length": 20,
          "start": 1257
        },
        {
          "length": 20,
          "start": 1491
        },
        {
          "length": 20,
          "start": 1725
        },
        {
          "length": 20,
          "start": 1959
        },
        {
          "length": 20,
          "start": 2193
        },
        {
          "length": 20,
          "start": 2427
        },
        {
          "length": 20,
          "start": 2661
        },
        {
          "length": 20,
          "start": 2895
        },
        {
          "length": 20,
          "start": 3129
        },
        {
          "length": 20,
          "start": 3872
        },
        {
          "length": 20,
          "start": 4066
        },
        {
          "length": 20,
          "start": 4264
        },
        {
          "length": 20,
          "start": 4503
        },
        {
          "length": 20,
          "start": 4742
        },
        {
          "length": 20,
          "start": 4981
        },
        {
          "length": 20,
          "start": 5220
        },
        {
          "length": 20,
          "start": 5459
        },
        {
          "length": 20,
          "start": 5698
        },
        {
          "length": 20,
          "start": 5937
        },
        {
          "length": 20,
          "start": 6176
        },
        {
          "length": 20,
          "start": 6415
        },
        {
          "length": 20,
          "start": 6654
        }
      ]
    }
  },
  "deployedLinkReferences": {
    "contracts/Utils/Utils.sol": {
      "Utils": [
        {
          "length": 20,
          "start": 706
        },
        {
          "length": 20,
          "start": 940
        },
        {
          "length": 20,
          "start": 1174
        },
        {
          "length": 20,
          "start": 1408
        },
        {
          "length": 20,
          "start": 1642
        },
        {
          "length": 20,
          "start": 1876
        },
        {
          "length": 20,
          "start": 2110
        },
        {
          "length": 20,
          "start": 2344
        },
        {
          "length": 20,
          "start": 2578
        },
        {
          "length": 20,
          "start": 2812
        },
        {
          "length": 20,
          "start": 3046
        },
        {
          "length": 20,
          "start": 3789
        },
        {
          "length": 20,
          "start": 3983
        },
        {
          "length": 20,
          "start": 4181
        },
        {
          "length": 20,
          "start": 4420
        },
        {
          "length": 20,
          "start": 4659
        },
        {
          "length": 20,
          "start": 4898
        },
        {
          "length": 20,
          "start": 5137
        },
        {
          "length": 20,
          "start": 5376
        },
        {
          "length": 20,
          "start": 5615
        },
        {
          "length": 20,
          "start": 5854
        },
        {
          "length": 20,
          "start": 6093
        },
        {
          "length": 20,
          "start": 6332
        },
        {
          "length": 20,
          "start": 6571
        }
      ]
    }
  }
}