{
  "_format": "hh-sol-artifact-1",
  "contractName": "Recovery",
  "sourceName": "contracts/Recovery/Recovery.sol",
  "abi": [
    {
      "inputs": [
        {
          "internalType": "contract Auth",
          "name": "_auth",
          "type": "address"
        },
        {
          "internalType": "contract Users",
          "name": "_user",
          "type": "address"
        }
      ],
      "stateMutability": "nonpayable",
      "type": "constructor"
    },
    {
      "inputs": [
        {
          "internalType": "string",
          "name": "platform_token",
          "type": "string"
        },
        {
          "internalType": "string",
          "name": "account_token",
          "type": "string"
        },
        {
          "internalType": "uint16",
          "name": "numberOfContacts",
          "type": "uint16"
        },
        {
          "components": [
            {
              "internalType": "string",
              "name": "account_token",
              "type": "string"
            },
            {
              "internalType": "uint256",
              "name": "index",
              "type": "uint256"
            },
            {
              "internalType": "bool",
              "name": "status",
              "type": "bool"
            }
          ],
          "internalType": "struct Structs.IsValidating",
          "name": "is_validaing",
          "type": "tuple"
        }
      ],
      "name": "acceptValidation",
      "outputs": [
        {
          "internalType": "bool",
          "name": "",
          "type": "bool"
        }
      ],
      "stateMutability": "nonpayable",
      "type": "function"
    },
    {
      "inputs": [
        {
          "internalType": "address",
          "name": "",
          "type": "address"
        }
      ],
      "name": "currentlyValidating",
      "outputs": [
        {
          "internalType": "string",
          "name": "account_token",
          "type": "string"
        },
        {
          "internalType": "uint256",
          "name": "index",
          "type": "uint256"
        },
        {
          "internalType": "bool",
          "name": "status",
          "type": "bool"
        }
      ],
      "stateMutability": "view",
      "type": "function"
    },
    {
      "inputs": [
        {
          "internalType": "string",
          "name": "platform_token",
          "type": "string"
        }
      ],
      "name": "fetchRequests",
      "outputs": [
        {
          "components": [
            {
              "internalType": "string",
              "name": "requester_name",
              "type": "string"
            },
            {
              "internalType": "string",
              "name": "requester_country",
              "type": "string"
            },
            {
              "internalType": "string",
              "name": "requester_phone",
              "type": "string"
            },
            {
              "internalType": "string",
              "name": "requester_email",
              "type": "string"
            },
            {
              "internalType": "string",
              "name": "relationship",
              "type": "string"
            },
            {
              "internalType": "string",
              "name": "reason",
              "type": "string"
            },
            {
              "internalType": "string",
              "name": "account_token",
              "type": "string"
            },
            {
              "internalType": "address",
              "name": "account_address",
              "type": "address"
            },
            {
              "internalType": "uint16",
              "name": "num_of_contacts",
              "type": "uint16"
            },
            {
              "internalType": "uint16",
              "name": "num_of_validators",
              "type": "uint16"
            },
            {
              "internalType": "uint256",
              "name": "request_date",
              "type": "uint256"
            }
          ],
          "internalType": "struct Structs.RecoveryRequest[]",
          "name": "",
          "type": "tuple[]"
        }
      ],
      "stateMutability": "view",
      "type": "function"
    },
    {
      "inputs": [
        {
          "internalType": "string",
          "name": "platform_token",
          "type": "string"
        },
        {
          "internalType": "address",
          "name": "old_wallet_addr",
          "type": "address"
        }
      ],
      "name": "recoverAccount",
      "outputs": [
        {
          "internalType": "bool",
          "name": "",
          "type": "bool"
        }
      ],
      "stateMutability": "nonpayable",
      "type": "function"
    },
    {
      "inputs": [
        {
          "internalType": "string",
          "name": "",
          "type": "string"
        }
      ],
      "name": "recoveryRequest",
      "outputs": [
        {
          "internalType": "string",
          "name": "requester_name",
          "type": "string"
        },
        {
          "internalType": "string",
          "name": "requester_country",
          "type": "string"
        },
        {
          "internalType": "string",
          "name": "requester_phone",
          "type": "string"
        },
        {
          "internalType": "string",
          "name": "requester_email",
          "type": "string"
        },
        {
          "internalType": "string",
          "name": "relationship",
          "type": "string"
        },
        {
          "internalType": "string",
          "name": "reason",
          "type": "string"
        },
        {
          "internalType": "string",
          "name": "account_token",
          "type": "string"
        },
        {
          "internalType": "address",
          "name": "account_address",
          "type": "address"
        },
        {
          "internalType": "uint16",
          "name": "num_of_contacts",
          "type": "uint16"
        },
        {
          "internalType": "uint16",
          "name": "num_of_validators",
          "type": "uint16"
        },
        {
          "internalType": "uint256",
          "name": "request_date",
          "type": "uint256"
        }
      ],
      "stateMutability": "view",
      "type": "function"
    },
    {
      "inputs": [
        {
          "internalType": "string",
          "name": "platform_token",
          "type": "string"
        }
      ],
      "name": "requestStatus",
      "outputs": [
        {
          "components": [
            {
              "internalType": "string",
              "name": "requester_name",
              "type": "string"
            },
            {
              "internalType": "string",
              "name": "requester_country",
              "type": "string"
            },
            {
              "internalType": "string",
              "name": "requester_phone",
              "type": "string"
            },
            {
              "internalType": "string",
              "name": "requester_email",
              "type": "string"
            },
            {
              "internalType": "string",
              "name": "relationship",
              "type": "string"
            },
            {
              "internalType": "string",
              "name": "reason",
              "type": "string"
            },
            {
              "internalType": "string",
              "name": "account_token",
              "type": "string"
            },
            {
              "internalType": "address",
              "name": "account_address",
              "type": "address"
            },
            {
              "internalType": "uint16",
              "name": "num_of_contacts",
              "type": "uint16"
            },
            {
              "internalType": "uint16",
              "name": "num_of_validators",
              "type": "uint16"
            },
            {
              "internalType": "uint256",
              "name": "request_date",
              "type": "uint256"
            }
          ],
          "internalType": "struct Structs.RecoveryRequest",
          "name": "",
          "type": "tuple"
        },
        {
          "components": [
            {
              "internalType": "address",
              "name": "reporter",
              "type": "address"
            },
            {
              "internalType": "uint256",
              "name": "contact_index",
              "type": "uint256"
            },
            {
              "internalType": "string",
              "name": "comment",
              "type": "string"
            },
            {
              "internalType": "enum Structs.REPORT_TYPE",
              "name": "report_type",
              "type": "uint8"
            }
          ],
          "internalType": "struct Structs.Report[]",
          "name": "",
          "type": "tuple[]"
        }
      ],
      "stateMutability": "view",
      "type": "function"
    },
    {
      "inputs": [
        {
          "internalType": "string",
          "name": "platform_token",
          "type": "string"
        },
        {
          "internalType": "string",
          "name": "account_token",
          "type": "string"
        },
        {
          "components": [
            {
              "internalType": "address",
              "name": "reporter",
              "type": "address"
            },
            {
              "internalType": "uint256",
              "name": "contact_index",
              "type": "uint256"
            },
            {
              "internalType": "string",
              "name": "comment",
              "type": "string"
            },
            {
              "internalType": "enum Structs.REPORT_TYPE",
              "name": "report_type",
              "type": "uint8"
            }
          ],
          "internalType": "struct Structs.Report",
          "name": "report",
          "type": "tuple"
        }
      ],
      "name": "saveReport",
      "outputs": [
        {
          "internalType": "bool",
          "name": "",
          "type": "bool"
        }
      ],
      "stateMutability": "nonpayable",
      "type": "function"
    },
    {
      "inputs": [
        {
          "internalType": "string",
          "name": "platform_token",
          "type": "string"
        },
        {
          "components": [
            {
              "internalType": "string",
              "name": "requester_name",
              "type": "string"
            },
            {
              "internalType": "string",
              "name": "requester_country",
              "type": "string"
            },
            {
              "internalType": "string",
              "name": "requester_phone",
              "type": "string"
            },
            {
              "internalType": "string",
              "name": "requester_email",
              "type": "string"
            },
            {
              "internalType": "string",
              "name": "relationship",
              "type": "string"
            },
            {
              "internalType": "string",
              "name": "reason",
              "type": "string"
            },
            {
              "internalType": "string",
              "name": "account_token",
              "type": "string"
            },
            {
              "internalType": "address",
              "name": "account_address",
              "type": "address"
            },
            {
              "internalType": "uint16",
              "name": "num_of_contacts",
              "type": "uint16"
            },
            {
              "internalType": "uint16",
              "name": "num_of_validators",
              "type": "uint16"
            },
            {
              "internalType": "uint256",
              "name": "request_date",
              "type": "uint256"
            }
          ],
          "internalType": "struct Structs.RecoveryRequest",
          "name": "recovery_request",
          "type": "tuple"
        }
      ],
      "name": "saveRequest",
      "outputs": [],
      "stateMutability": "nonpayable",
      "type": "function"
    }
  ],
  "bytecode": "0x60806040523480156200001157600080fd5b506040516200427c3803806200427c8339818101604052810190620000379190620000ee565b816000806101000a81548173ffffffffffffffffffffffffffffffffffffffff021916908373ffffffffffffffffffffffffffffffffffffffff16021790555080600160006101000a81548173ffffffffffffffffffffffffffffffffffffffff021916908373ffffffffffffffffffffffffffffffffffffffff1602179055505050620001ca565b600081519050620000d18162000196565b92915050565b600081519050620000e881620001b0565b92915050565b6000806040838503121562000108576200010762000191565b5b60006200011885828601620000c0565b92505060206200012b85828601620000d7565b9150509250929050565b6000620001428262000171565b9050919050565b6000620001568262000135565b9050919050565b60006200016a8262000135565b9050919050565b600073ffffffffffffffffffffffffffffffffffffffff82169050919050565b600080fd5b620001a18162000149565b8114620001ad57600080fd5b50565b620001bb816200015d565b8114620001c757600080fd5b50565b6140a280620001da6000396000f3fe608060405234801561001057600080fd5b50600436106100885760003560e01c8063861bea801161005b578063861bea80146101505780638c59a9131461018a578063d300b007146101ba578063f78e7108146101d657610088565b8063271d054c1461008d57806344ddc61f146100bf57806353e2790f146100ef5780637f12145214610120575b600080fd5b6100a760048036038101906100a29190612e04565b610206565b6040516100b69392919061392f565b60405180910390f35b6100d960048036038101906100d49190612faa565b6102c5565b6040516100e691906137bd565b60405180910390f35b61010960048036038101906101049190612e5e565b6108ab565b604051610117929190613a4d565b60405180910390f35b61013a60048036038101906101359190612ea7565b611093565b60405161014791906137bd565b60405180910390f35b61016a60048036038101906101659190612e5e565b6115f5565b6040516101819b9a99989796959493929190613853565b60405180910390f35b6101a4600480360381019061019f9190612f03565b611a59565b6040516101b191906137bd565b60405180910390f35b6101d460048036038101906101cf9190613065565b611def565b005b6101f060048036038101906101eb9190612e5e565b612100565b6040516101fd919061379b565b60405180910390f35b600660205280600052604060002060009150905080600001805461022990613cb6565b80601f016020809104026020016040519081016040528092919081815260200182805461025590613cb6565b80156102a25780601f10610277576101008083540402835291602001916102a2565b820191906000526020600020905b81548152906001019060200180831161028557829003601f168201915b5050505050908060010154908060020160009054906101000a900460ff16905083565b60008460008054906101000a900473ffffffffffffffffffffffffffffffffffffffff1673ffffffffffffffffffffffffffffffffffffffff16638e81979a826040518263ffffffff1660e01b81526004016103219190613801565b60206040518083038186803b15801561033957600080fd5b505afa15801561034d573d6000803e3d6000fd5b505050506040513d601f19601f820116820180604052508101906103719190612e31565b6103b0576040517f08c379a00000000000000000000000000000000000000000000000000000000081526004016103a79061396d565b60405180910390fd5b6040518060400160405280600981526020017f56414c494441544f520000000000000000000000000000000000000000000000815250600160009054906101000a900473ffffffffffffffffffffffffffffffffffffffff1673ffffffffffffffffffffffffffffffffffffffff166391d1485482604051602001610435919061376d565b60405160208183030381529060405280519060200120336040518363ffffffff1660e01b81526004016104699291906137d8565b60206040518083038186803b15801561048157600080fd5b505afa158015610495573d6000803e3d6000fd5b505050506040513d601f19601f820116820180604052508101906104b99190612e31565b6104f8576040517f08c379a00000000000000000000000000000000000000000000000000000000081526004016104ef9061398d565b60405180910390fd5b600660003373ffffffffffffffffffffffffffffffffffffffff1673ffffffffffffffffffffffffffffffffffffffff16815260200190815260200160002060020160009054906101000a900460ff1615610588576040517f08c379a000000000000000000000000000000000000000000000000000000000815260040161057f90613a2d565b60405180910390fd5b8461ffff1660058760405161059d919061376d565b908152602001604051809103902080549050106105ef576040517f08c379a00000000000000000000000000000000000000000000000000000000081526004016105e6906139ed565b60405180910390fd5b60005b600587604051610602919061376d565b9081526020016040518091039020805490508110156106f7573373ffffffffffffffffffffffffffffffffffffffff16600588604051610642919061376d565b9081526020016040518091039020828154811061066257610661613e1a565b5b9060005260206000200160009054906101000a900473ffffffffffffffffffffffffffffffffffffffff1673ffffffffffffffffffffffffffffffffffffffff1614156106e4576040517f08c379a00000000000000000000000000000000000000000000000000000000081526004016106db90613a0d565b60405180910390fd5b80806106ef90613d44565b9150506105f2565b50600586604051610708919061376d565b9081526020016040518091039020339080600181540180825580915050600190039060005260206000200160009091909190916101000a81548173ffffffffffffffffffffffffffffffffffffffff021916908373ffffffffffffffffffffffffffffffffffffffff16021790555060405180606001604052808560000151815260200160058860405161079c919061376d565b908152602001604051809103902080549050815260200160011515815250600660003273ffffffffffffffffffffffffffffffffffffffff1673ffffffffffffffffffffffffffffffffffffffff16815260200190815260200160002060008201518160000190805190602001906108159291906128c2565b506020820151816001015560408201518160020160006101000a81548160ff021916908315150217905550905050600286604051610853919061376d565b9081526020016040518091039020600701601681819054906101000a900461ffff168092919061088290613d19565b91906101000a81548161ffff021916908361ffff16021790555050600192505050949350505050565b6108b3612948565b60608260008054906101000a900473ffffffffffffffffffffffffffffffffffffffff1673ffffffffffffffffffffffffffffffffffffffff16638e81979a826040518263ffffffff1660e01b815260040161090f9190613801565b60206040518083038186803b15801561092757600080fd5b505afa15801561093b573d6000803e3d6000fd5b505050506040513d601f19601f8201168201806040525081019061095f9190612e31565b61099e576040517f08c379a00000000000000000000000000000000000000000000000000000000081526004016109959061396d565b60405180910390fd5b6002600360003373ffffffffffffffffffffffffffffffffffffffff1673ffffffffffffffffffffffffffffffffffffffff1681526020019081526020016000206040516109ec9190613784565b90815260200160405180910390206007600360003373ffffffffffffffffffffffffffffffffffffffff1673ffffffffffffffffffffffffffffffffffffffff168152602001908152602001600020604051610a489190613784565b90815260200160405180910390208160405180610160016040529081600082018054610a7390613cb6565b80601f0160208091040260200160405190810160405280929190818152602001828054610a9f90613cb6565b8015610aec5780601f10610ac157610100808354040283529160200191610aec565b820191906000526020600020905b815481529060010190602001808311610acf57829003601f168201915b50505050508152602001600182018054610b0590613cb6565b80601f0160208091040260200160405190810160405280929190818152602001828054610b3190613cb6565b8015610b7e5780601f10610b5357610100808354040283529160200191610b7e565b820191906000526020600020905b815481529060010190602001808311610b6157829003601f168201915b50505050508152602001600282018054610b9790613cb6565b80601f0160208091040260200160405190810160405280929190818152602001828054610bc390613cb6565b8015610c105780601f10610be557610100808354040283529160200191610c10565b820191906000526020600020905b815481529060010190602001808311610bf357829003601f168201915b50505050508152602001600382018054610c2990613cb6565b80601f0160208091040260200160405190810160405280929190818152602001828054610c5590613cb6565b8015610ca25780601f10610c7757610100808354040283529160200191610ca2565b820191906000526020600020905b815481529060010190602001808311610c8557829003601f168201915b50505050508152602001600482018054610cbb90613cb6565b80601f0160208091040260200160405190810160405280929190818152602001828054610ce790613cb6565b8015610d345780601f10610d0957610100808354040283529160200191610d34565b820191906000526020600020905b815481529060010190602001808311610d1757829003601f168201915b50505050508152602001600582018054610d4d90613cb6565b80601f0160208091040260200160405190810160405280929190818152602001828054610d7990613cb6565b8015610dc65780601f10610d9b57610100808354040283529160200191610dc6565b820191906000526020600020905b815481529060010190602001808311610da957829003601f168201915b50505050508152602001600682018054610ddf90613cb6565b80601f0160208091040260200160405190810160405280929190818152602001828054610e0b90613cb6565b8015610e585780601f10610e2d57610100808354040283529160200191610e58565b820191906000526020600020905b815481529060010190602001808311610e3b57829003601f168201915b505050505081526020016007820160009054906101000a900473ffffffffffffffffffffffffffffffffffffffff1673ffffffffffffffffffffffffffffffffffffffff1673ffffffffffffffffffffffffffffffffffffffff1681526020016007820160149054906101000a900461ffff1661ffff1661ffff1681526020016007820160169054906101000a900461ffff1661ffff1661ffff168152602001600882015481525050915080805480602002602001604051908101604052809291908181526020016000905b8282101561108357838290600052602060002090600402016040518060800160405290816000820160009054906101000a900473ffffffffffffffffffffffffffffffffffffffff1673ffffffffffffffffffffffffffffffffffffffff1673ffffffffffffffffffffffffffffffffffffffff16815260200160018201548152602001600282018054610fb790613cb6565b80601f0160208091040260200160405190810160405280929190818152602001828054610fe390613cb6565b80156110305780601f1061100557610100808354040283529160200191611030565b820191906000526020600020905b81548152906001019060200180831161101357829003601f168201915b505050505081526020016003820160009054906101000a900460ff16600281111561105e5761105d613dbc565b5b60028111156110705761106f613dbc565b5b8152505081526020019060010190610f24565b5050505090509250925050915091565b60008260008054906101000a900473ffffffffffffffffffffffffffffffffffffffff1673ffffffffffffffffffffffffffffffffffffffff16638e81979a826040518263ffffffff1660e01b81526004016110ef9190613801565b60206040518083038186803b15801561110757600080fd5b505afa15801561111b573d6000803e3d6000fd5b505050506040513d601f19601f8201168201806040525081019061113f9190612e31565b61117e576040517f08c379a00000000000000000000000000000000000000000000000000000000081526004016111759061396d565b60405180910390fd5b6002600360003373ffffffffffffffffffffffffffffffffffffffff1673ffffffffffffffffffffffffffffffffffffffff16815260200190815260200160002080546111ca90613cb6565b90501161120c576040517f08c379a0000000000000000000000000000000000000000000000000000000008152600401611203906139ad565b60405180910390fd5b600080600090505b6007600360003373ffffffffffffffffffffffffffffffffffffffff1673ffffffffffffffffffffffffffffffffffffffff1681526020019081526020016000206040516112629190613784565b9081526020016040518091039020805490508161ffff16101561135e576001600281111561129357611292613dbc565b5b6007600360003373ffffffffffffffffffffffffffffffffffffffff1673ffffffffffffffffffffffffffffffffffffffff1681526020019081526020016000206040516112e19190613784565b90815260200160405180910390208261ffff168154811061130557611304613e1a565b5b906000526020600020906004020160030160009054906101000a900460ff16600281111561133657611335613dbc565b5b141561134b57818061134790613d44565b9250505b808061135690613d19565b915050611214565b5060008054906101000a900473ffffffffffffffffffffffffffffffffffffffff1673ffffffffffffffffffffffffffffffffffffffff16638675c40273__$63b3866c7ad69c9b67104bce93fa94acc6$__63f5ddf6df6002600360003373ffffffffffffffffffffffffffffffffffffffff1673ffffffffffffffffffffffffffffffffffffffff1681526020019081526020016000206040516114039190613784565b908152602001604051809103902060070160149054906101000a900461ffff16856040518363ffffffff1660e01b8152600401611441929190613a84565b60206040518083038186803b15801561145957600080fd5b505af415801561146d573d6000803e3d6000fd5b505050506040513d601f19601f8201168201806040525081019061149191906130dd565b6040518263ffffffff1660e01b81526004016114ad9190613aad565b60206040518083038186803b1580156114c557600080fd5b505afa1580156114d9573d6000803e3d6000fd5b505050506040513d601f19601f820116820180604052508101906114fd9190612e31565b61153c576040517f08c379a0000000000000000000000000000000000000000000000000000000008152600401611533906139cd565b60405180910390fd5b600160009054906101000a900473ffffffffffffffffffffffffffffffffffffffff1673ffffffffffffffffffffffffffffffffffffffff166372b6294c86866040518363ffffffff1660e01b8152600401611599929190613823565b602060405180830381600087803b1580156115b357600080fd5b505af11580156115c7573d6000803e3d6000fd5b505050506040513d601f19601f820116820180604052508101906115eb9190612e31565b9250505092915050565b60028180516020810182018051848252602083016020850120818352809550505050505060009150905080600001805461162e90613cb6565b80601f016020809104026020016040519081016040528092919081815260200182805461165a90613cb6565b80156116a75780601f1061167c576101008083540402835291602001916116a7565b820191906000526020600020905b81548152906001019060200180831161168a57829003601f168201915b5050505050908060010180546116bc90613cb6565b80601f01602080910402602001604051908101604052809291908181526020018280546116e890613cb6565b80156117355780601f1061170a57610100808354040283529160200191611735565b820191906000526020600020905b81548152906001019060200180831161171857829003601f168201915b50505050509080600201805461174a90613cb6565b80601f016020809104026020016040519081016040528092919081815260200182805461177690613cb6565b80156117c35780601f10611798576101008083540402835291602001916117c3565b820191906000526020600020905b8154815290600101906020018083116117a657829003601f168201915b5050505050908060030180546117d890613cb6565b80601f016020809104026020016040519081016040528092919081815260200182805461180490613cb6565b80156118515780601f1061182657610100808354040283529160200191611851565b820191906000526020600020905b81548152906001019060200180831161183457829003601f168201915b50505050509080600401805461186690613cb6565b80601f016020809104026020016040519081016040528092919081815260200182805461189290613cb6565b80156118df5780601f106118b4576101008083540402835291602001916118df565b820191906000526020600020905b8154815290600101906020018083116118c257829003601f168201915b5050505050908060050180546118f490613cb6565b80601f016020809104026020016040519081016040528092919081815260200182805461192090613cb6565b801561196d5780601f106119425761010080835404028352916020019161196d565b820191906000526020600020905b81548152906001019060200180831161195057829003601f168201915b50505050509080600601805461198290613cb6565b80601f01602080910402602001604051908101604052809291908181526020018280546119ae90613cb6565b80156119fb5780601f106119d0576101008083540402835291602001916119fb565b820191906000526020600020905b8154815290600101906020018083116119de57829003601f168201915b5050505050908060070160009054906101000a900473ffffffffffffffffffffffffffffffffffffffff16908060070160149054906101000a900461ffff16908060070160169054906101000a900461ffff1690806008015490508b565b60008360008054906101000a900473ffffffffffffffffffffffffffffffffffffffff1673ffffffffffffffffffffffffffffffffffffffff16638e81979a826040518263ffffffff1660e01b8152600401611ab59190613801565b60206040518083038186803b158015611acd57600080fd5b505afa158015611ae1573d6000803e3d6000fd5b505050506040513d601f19601f82011682018060405250810190611b059190612e31565b611b44576040517f08c379a0000000000000000000000000000000000000000000000000000000008152600401611b3b9061396d565b60405180910390fd5b6040518060400160405280600981526020017f56414c494441544f520000000000000000000000000000000000000000000000815250600160009054906101000a900473ffffffffffffffffffffffffffffffffffffffff1673ffffffffffffffffffffffffffffffffffffffff166391d1485482604051602001611bc9919061376d565b60405160208183030381529060405280519060200120336040518363ffffffff1660e01b8152600401611bfd9291906137d8565b60206040518083038186803b158015611c1557600080fd5b505afa158015611c29573d6000803e3d6000fd5b505050506040513d601f19601f82011682018060405250810190611c4d9190612e31565b611c8c576040517f08c379a0000000000000000000000000000000000000000000000000000000008152600401611c839061398d565b60405180910390fd5b600785604051611c9c919061376d565b908152602001604051809103902084908060018154018082558091505060019003906000526020600020906004020160009091909190915060008201518160000160006101000a81548173ffffffffffffffffffffffffffffffffffffffff021916908373ffffffffffffffffffffffffffffffffffffffff160217905550602082015181600101556040820151816002019080519060200190611d419291906128c2565b5060608201518160030160006101000a81548160ff02191690836002811115611d6d57611d6c613dbc565b5b02179055505050600660003373ffffffffffffffffffffffffffffffffffffffff1673ffffffffffffffffffffffffffffffffffffffff16815260200190815260200160002060008082016000611dc491906129c0565b60018201600090556002820160006101000a81549060ff021916905550506001925050509392505050565b8160008054906101000a900473ffffffffffffffffffffffffffffffffffffffff1673ffffffffffffffffffffffffffffffffffffffff16638e81979a826040518263ffffffff1660e01b8152600401611e499190613801565b60206040518083038186803b158015611e6157600080fd5b505afa158015611e75573d6000803e3d6000fd5b505050506040513d601f19601f82011682018060405250810190611e999190612e31565b611ed8576040517f08c379a0000000000000000000000000000000000000000000000000000000008152600401611ecf9061396d565b60405180910390fd5b8160028360c00151604051611eed919061376d565b90815260200160405180910390206000820151816000019080519060200190611f179291906128c2565b506020820151816001019080519060200190611f349291906128c2565b506040820151816002019080519060200190611f519291906128c2565b506060820151816003019080519060200190611f6e9291906128c2565b506080820151816004019080519060200190611f8b9291906128c2565b5060a0820151816005019080519060200190611fa89291906128c2565b5060c0820151816006019080519060200190611fc59291906128c2565b5060e08201518160070160006101000a81548173ffffffffffffffffffffffffffffffffffffffff021916908373ffffffffffffffffffffffffffffffffffffffff1602179055506101008201518160070160146101000a81548161ffff021916908361ffff1602179055506101208201518160070160166101000a81548161ffff021916908361ffff160217905550610140820151816008015590505060048260c001519080600181540180825580915050600190039060005260206000200160009091909190915090805190602001906120a29291906128c2565b508160c00151600360003373ffffffffffffffffffffffffffffffffffffffff1673ffffffffffffffffffffffffffffffffffffffff16815260200190815260200160002090805190602001906120fa9291906128c2565b50505050565b60608160008054906101000a900473ffffffffffffffffffffffffffffffffffffffff1673ffffffffffffffffffffffffffffffffffffffff16638e81979a826040518263ffffffff1660e01b815260040161215c9190613801565b60206040518083038186803b15801561217457600080fd5b505afa158015612188573d6000803e3d6000fd5b505050506040513d601f19601f820116820180604052508101906121ac9190612e31565b6121eb576040517f08c379a00000000000000000000000000000000000000000000000000000000081526004016121e29061396d565b60405180910390fd5b6040518060400160405280600981526020017f56414c494441544f520000000000000000000000000000000000000000000000815250600160009054906101000a900473ffffffffffffffffffffffffffffffffffffffff1673ffffffffffffffffffffffffffffffffffffffff166391d1485482604051602001612270919061376d565b60405160208183030381529060405280519060200120336040518363ffffffff1660e01b81526004016122a49291906137d8565b60206040518083038186803b1580156122bc57600080fd5b505afa1580156122d0573d6000803e3d6000fd5b505050506040513d601f19601f820116820180604052508101906122f49190612e31565b612333576040517f08c379a000000000000000000000000000000000000000000000000000000000815260040161232a9061398d565b60405180910390fd5b600060048054905067ffffffffffffffff81111561235457612353613e49565b5b60405190808252806020026020018201604052801561238d57816020015b61237a612948565b8152602001906001900390816123725790505b50905060005b6004805490508110156128b6576002600482815481106123b6576123b5613e1a565b5b906000526020600020016040516123cd9190613784565b9081526020016040518091039020604051806101600160405290816000820180546123f790613cb6565b80601f016020809104026020016040519081016040528092919081815260200182805461242390613cb6565b80156124705780601f1061244557610100808354040283529160200191612470565b820191906000526020600020905b81548152906001019060200180831161245357829003601f168201915b5050505050815260200160018201805461248990613cb6565b80601f01602080910402602001604051908101604052809291908181526020018280546124b590613cb6565b80156125025780601f106124d757610100808354040283529160200191612502565b820191906000526020600020905b8154815290600101906020018083116124e557829003601f168201915b5050505050815260200160028201805461251b90613cb6565b80601f016020809104026020016040519081016040528092919081815260200182805461254790613cb6565b80156125945780601f1061256957610100808354040283529160200191612594565b820191906000526020600020905b81548152906001019060200180831161257757829003601f168201915b505050505081526020016003820180546125ad90613cb6565b80601f01602080910402602001604051908101604052809291908181526020018280546125d990613cb6565b80156126265780601f106125fb57610100808354040283529160200191612626565b820191906000526020600020905b81548152906001019060200180831161260957829003601f168201915b5050505050815260200160048201805461263f90613cb6565b80601f016020809104026020016040519081016040528092919081815260200182805461266b90613cb6565b80156126b85780601f1061268d576101008083540402835291602001916126b8565b820191906000526020600020905b81548152906001019060200180831161269b57829003601f168201915b505050505081526020016005820180546126d190613cb6565b80601f01602080910402602001604051908101604052809291908181526020018280546126fd90613cb6565b801561274a5780601f1061271f5761010080835404028352916020019161274a565b820191906000526020600020905b81548152906001019060200180831161272d57829003601f168201915b5050505050815260200160068201805461276390613cb6565b80601f016020809104026020016040519081016040528092919081815260200182805461278f90613cb6565b80156127dc5780601f106127b1576101008083540402835291602001916127dc565b820191906000526020600020905b8154815290600101906020018083116127bf57829003601f168201915b505050505081526020016007820160009054906101000a900473ffffffffffffffffffffffffffffffffffffffff1673ffffffffffffffffffffffffffffffffffffffff1673ffffffffffffffffffffffffffffffffffffffff1681526020016007820160149054906101000a900461ffff1661ffff1661ffff1681526020016007820160169054906101000a900461ffff1661ffff1661ffff16815260200160088201548152505082828151811061289857612897613e1a565b5b602002602001018190525080806128ae90613d44565b915050612393565b50809350505050919050565b8280546128ce90613cb6565b90600052602060002090601f0160209004810192826128f05760008555612937565b82601f1061290957805160ff1916838001178555612937565b82800160010185558215612937579182015b8281111561293657825182559160200191906001019061291b565b5b5090506129449190612a00565b5090565b60405180610160016040528060608152602001606081526020016060815260200160608152602001606081526020016060815260200160608152602001600073ffffffffffffffffffffffffffffffffffffffff168152602001600061ffff168152602001600061ffff168152602001600081525090565b5080546129cc90613cb6565b6000825580601f106129de57506129fd565b601f0160209004906000526020600020908101906129fc9190612a00565b5b50565b5b80821115612a19576000816000905550600101612a01565b5090565b6000612a30612a2b84613aed565b613ac8565b905082815260208101848484011115612a4c57612a4b613e87565b5b612a57848285613c74565b509392505050565b600081359050612a6e81614000565b92915050565b600081359050612a8381614017565b92915050565b600081519050612a9881614017565b92915050565b600081359050612aad8161402e565b92915050565b600082601f830112612ac857612ac7613e78565b5b8135612ad8848260208601612a1d565b91505092915050565b600060608284031215612af757612af6613e7d565b5b612b016060613ac8565b9050600082013567ffffffffffffffff811115612b2157612b20613e82565b5b612b2d84828501612ab3565b6000830152506020612b4184828501612dda565b6020830152506040612b5584828501612a74565b60408301525092915050565b60006101608284031215612b7857612b77613e7d565b5b612b83610160613ac8565b9050600082013567ffffffffffffffff811115612ba357612ba2613e82565b5b612baf84828501612ab3565b600083015250602082013567ffffffffffffffff811115612bd357612bd2613e82565b5b612bdf84828501612ab3565b602083015250604082013567ffffffffffffffff811115612c0357612c02613e82565b5b612c0f84828501612ab3565b604083015250606082013567ffffffffffffffff811115612c3357612c32613e82565b5b612c3f84828501612ab3565b606083015250608082013567ffffffffffffffff811115612c6357612c62613e82565b5b612c6f84828501612ab3565b60808301525060a082013567ffffffffffffffff811115612c9357612c92613e82565b5b612c9f84828501612ab3565b60a08301525060c082013567ffffffffffffffff811115612cc357612cc2613e82565b5b612ccf84828501612ab3565b60c08301525060e0612ce384828501612a5f565b60e083015250610100612cf884828501612dc5565b61010083015250610120612d0e84828501612dc5565b61012083015250610140612d2484828501612dda565b6101408301525092915050565b600060808284031215612d4757612d46613e7d565b5b612d516080613ac8565b90506000612d6184828501612a5f565b6000830152506020612d7584828501612dda565b602083015250604082013567ffffffffffffffff811115612d9957612d98613e82565b5b612da584828501612ab3565b6040830152506060612db984828501612a9e565b60608301525092915050565b600081359050612dd48161403e565b92915050565b600081359050612de981614055565b92915050565b600081519050612dfe81614055565b92915050565b600060208284031215612e1a57612e19613e91565b5b6000612e2884828501612a5f565b91505092915050565b600060208284031215612e4757612e46613e91565b5b6000612e5584828501612a89565b91505092915050565b600060208284031215612e7457612e73613e91565b5b600082013567ffffffffffffffff811115612e9257612e91613e8c565b5b612e9e84828501612ab3565b91505092915050565b60008060408385031215612ebe57612ebd613e91565b5b600083013567ffffffffffffffff811115612edc57612edb613e8c565b5b612ee885828601612ab3565b9250506020612ef985828601612a5f565b9150509250929050565b600080600060608486031215612f1c57612f1b613e91565b5b600084013567ffffffffffffffff811115612f3a57612f39613e8c565b5b612f4686828701612ab3565b935050602084013567ffffffffffffffff811115612f6757612f66613e8c565b5b612f7386828701612ab3565b925050604084013567ffffffffffffffff811115612f9457612f93613e8c565b5b612fa086828701612d31565b9150509250925092565b60008060008060808587031215612fc457612fc3613e91565b5b600085013567ffffffffffffffff811115612fe257612fe1613e8c565b5b612fee87828801612ab3565b945050602085013567ffffffffffffffff81111561300f5761300e613e8c565b5b61301b87828801612ab3565b935050604061302c87828801612dc5565b925050606085013567ffffffffffffffff81111561304d5761304c613e8c565b5b61305987828801612ae1565b91505092959194509250565b6000806040838503121561307c5761307b613e91565b5b600083013567ffffffffffffffff81111561309a57613099613e8c565b5b6130a685828601612ab3565b925050602083013567ffffffffffffffff8111156130c7576130c6613e8c565b5b6130d385828601612b61565b9150509250929050565b6000602082840312156130f3576130f2613e91565b5b600061310184828501612def565b91505092915050565b6000613116838361347e565b905092915050565b600061312a83836136b0565b905092915050565b61313b81613bdd565b82525050565b61314a81613bdd565b82525050565b600061315b82613b53565b6131658185613b8e565b93508360208202850161317785613b1e565b8060005b858110156131b35784840389528151613194858261310a565b945061319f83613b74565b925060208a0199505060018101905061317b565b50829750879550505050505092915050565b60006131d082613b5e565b6131da8185613b9f565b9350836020820285016131ec85613b2e565b8060005b858110156132285784840389528151613209858261311e565b945061321483613b81565b925060208a019950506001810190506131f0565b50829750879550505050505092915050565b61324381613bef565b82525050565b61325281613bfb565b82525050565b61326181613c50565b82525050565b600061327282613b69565b61327c8185613bb0565b935061328c818560208601613c83565b61329581613e96565b840191505092915050565b60006132ab82613b69565b6132b58185613bc1565b93506132c5818560208601613c83565b6132ce81613e96565b840191505092915050565b60006132e482613b69565b6132ee8185613bd2565b93506132fe818560208601613c83565b80840191505092915050565b6000815461331781613cb6565b6133218186613bd2565b9450600182166000811461333c576001811461334d57613380565b60ff19831686528186019350613380565b61335685613b3e565b60005b8381101561337857815481890152600182019150602081019050613359565b838801955050505b50505092915050565b6000613396601483613bc1565b91506133a182613ea7565b602082019050919050565b60006133b9601c83613bc1565b91506133c482613ed0565b602082019050919050565b60006133dc601483613bc1565b91506133e782613ef9565b602082019050919050565b60006133ff601983613bc1565b915061340a82613f22565b602082019050919050565b6000613422600d83613bc1565b915061342d82613f4b565b602082019050919050565b6000613445603b83613bc1565b915061345082613f74565b604082019050919050565b6000613468601683613bc1565b915061347382613fc3565b602082019050919050565b600061016083016000830151848203600086015261349c8282613267565b915050602083015184820360208601526134b68282613267565b915050604083015184820360408601526134d08282613267565b915050606083015184820360608601526134ea8282613267565b915050608083015184820360808601526135048282613267565b91505060a083015184820360a086015261351e8282613267565b91505060c083015184820360c08601526135388282613267565b91505060e083015161354d60e0860182613132565b50610100830151613562610100860182613713565b50610120830151613577610120860182613713565b5061014083015161358c610140860182613740565b508091505092915050565b60006101608301600083015184820360008601526135b58282613267565b915050602083015184820360208601526135cf8282613267565b915050604083015184820360408601526135e98282613267565b915050606083015184820360608601526136038282613267565b9150506080830151848203608086015261361d8282613267565b91505060a083015184820360a08601526136378282613267565b91505060c083015184820360c08601526136518282613267565b91505060e083015161366660e0860182613132565b5061010083015161367b610100860182613713565b50610120830151613690610120860182613713565b506101408301516136a5610140860182613740565b508091505092915050565b60006080830160008301516136c86000860182613132565b5060208301516136db6020860182613740565b50604083015184820360408601526136f38282613267565b91505060608301516137086060860182613258565b508091505092915050565b61371c81613c18565b82525050565b61372b81613c18565b82525050565b61373a81613c62565b82525050565b61374981613c46565b82525050565b61375881613c46565b82525050565b61376781613c46565b82525050565b600061377982846132d9565b915081905092915050565b6000613790828461330a565b915081905092915050565b600060208201905081810360008301526137b58184613150565b905092915050565b60006020820190506137d2600083018461323a565b92915050565b60006040820190506137ed6000830185613249565b6137fa6020830184613141565b9392505050565b6000602082019050818103600083015261381b81846132a0565b905092915050565b6000604082019050818103600083015261383d81856132a0565b905061384c6020830184613141565b9392505050565b600061016082019050818103600083015261386e818e6132a0565b90508181036020830152613882818d6132a0565b90508181036040830152613896818c6132a0565b905081810360608301526138aa818b6132a0565b905081810360808301526138be818a6132a0565b905081810360a08301526138d281896132a0565b905081810360c08301526138e681886132a0565b90506138f560e0830187613141565b613903610100830186613722565b613911610120830185613722565b61391f61014083018461374f565b9c9b505050505050505050505050565b6000606082019050818103600083015261394981866132a0565b9050613958602083018561374f565b613965604083018461323a565b949350505050565b6000602082019050818103600083015261398681613389565b9050919050565b600060208201905081810360008301526139a6816133ac565b9050919050565b600060208201905081810360008301526139c6816133cf565b9050919050565b600060208201905081810360008301526139e6816133f2565b9050919050565b60006020820190508181036000830152613a0681613415565b9050919050565b60006020820190508181036000830152613a2681613438565b9050919050565b60006020820190508181036000830152613a468161345b565b9050919050565b60006040820190508181036000830152613a678185613597565b90508181036020830152613a7b81846131c5565b90509392505050565b6000604082019050613a996000830185613731565b613aa6602083018461375e565b9392505050565b6000602082019050613ac2600083018461374f565b92915050565b6000613ad2613ae3565b9050613ade8282613ce8565b919050565b6000604051905090565b600067ffffffffffffffff821115613b0857613b07613e49565b5b613b1182613e96565b9050602081019050919050565b6000819050602082019050919050565b6000819050602082019050919050565b60008190508160005260206000209050919050565b600081519050919050565b600081519050919050565b600081519050919050565b6000602082019050919050565b6000602082019050919050565b600082825260208201905092915050565b600082825260208201905092915050565b600082825260208201905092915050565b600082825260208201905092915050565b600081905092915050565b6000613be882613c26565b9050919050565b60008115159050919050565b6000819050919050565b6000819050613c1382613fec565b919050565b600061ffff82169050919050565b600073ffffffffffffffffffffffffffffffffffffffff82169050919050565b6000819050919050565b6000613c5b82613c05565b9050919050565b6000613c6d82613c18565b9050919050565b82818337600083830152505050565b60005b83811015613ca1578082015181840152602081019050613c86565b83811115613cb0576000848401525b50505050565b60006002820490506001821680613cce57607f821691505b60208210811415613ce257613ce1613deb565b5b50919050565b613cf182613e96565b810181811067ffffffffffffffff82111715613d1057613d0f613e49565b5b80604052505050565b6000613d2482613c18565b915061ffff821415613d3957613d38613d8d565b5b600182019050919050565b6000613d4f82613c46565b91507fffffffffffffffffffffffffffffffffffffffffffffffffffffffffffffffff821415613d8257613d81613d8d565b5b600182019050919050565b7f4e487b7100000000000000000000000000000000000000000000000000000000600052601160045260246000fd5b7f4e487b7100000000000000000000000000000000000000000000000000000000600052602160045260246000fd5b7f4e487b7100000000000000000000000000000000000000000000000000000000600052602260045260246000fd5b7f4e487b7100000000000000000000000000000000000000000000000000000000600052603260045260246000fd5b7f4e487b7100000000000000000000000000000000000000000000000000000000600052604160045260246000fd5b600080fd5b600080fd5b600080fd5b600080fd5b600080fd5b600080fd5b6000601f19601f8301169050919050565b7f496e76616c69642061636365737320746f6b656e000000000000000000000000600082015250565b7f596f7520646f6e74206861766520746865207065726d697373696f6e00000000600082015250565b7f4e6f20617373657420746f207265636f76657279000000000000000000000000600082015250565b7f5265636f7665727920726571756573742072656a656374656400000000000000600082015250565b7f4e6f7420617661696c61626c6500000000000000000000000000000000000000600082015250565b7f596f752063616e6e6f742076616c6964617465206d6f7265207468616e206f6e60008201527f6520636f6e746163742066726f6d207468697320726571756573740000000000602082015250565b7f596f75206861766520756e66696e697368207461736b00000000000000000000600082015250565b60038110613ffd57613ffc613dbc565b5b50565b61400981613bdd565b811461401457600080fd5b50565b61402081613bef565b811461402b57600080fd5b50565b6003811061403b57600080fd5b50565b61404781613c18565b811461405257600080fd5b50565b61405e81613c46565b811461406957600080fd5b5056fea264697066735822122018d4f46ae63ffa47cbde1f4c217ce9917dab9531e3ee8f2e30bfe6dee6d5583864736f6c63430008060033",
  "linkReferences": {
    "contracts/Utils/Utils.sol": {
      "Utils": [
        {
          "length": 20,
          "start": 5495
        }
      ]
    }
  },
  "deployedLinkReferences": {
    "contracts/Utils/Utils.sol": {
      "Utils": [
        {
          "length": 20,
          "start": 5021
        }
      ]
    }
  }
}