{
  "_format": "hh-sol-artifact-1",
  "contractName": "Recovery",
  "sourceName": "contracts/Recovery/Recovery.sol",
  "abi": [
    {
      "inputs": [
        {
          "internalType": "contract Auth",
          "name": "_auth",
          "type": "address"
        },
        {
          "internalType": "contract Users",
          "name": "_user",
          "type": "address"
        }
      ],
      "stateMutability": "nonpayable",
      "type": "constructor"
    },
    {
      "inputs": [
        {
          "internalType": "string",
          "name": "platform_token",
          "type": "string"
        },
        {
          "internalType": "string",
          "name": "account_token",
          "type": "string"
        },
        {
          "internalType": "uint16",
          "name": "numberOfContacts",
          "type": "uint16"
        },
        {
          "components": [
            {
              "internalType": "string",
              "name": "account_oken",
              "type": "string"
            },
            {
              "internalType": "uint16",
              "name": "index",
              "type": "uint16"
            },
            {
              "internalType": "bool",
              "name": "status",
              "type": "bool"
            }
          ],
          "internalType": "struct Structs.IsValidating",
          "name": "is_validaing",
          "type": "tuple"
        }
      ],
      "name": "acceptValidation",
      "outputs": [
        {
          "internalType": "bool",
          "name": "",
          "type": "bool"
        }
      ],
      "stateMutability": "nonpayable",
      "type": "function"
    },
    {
      "inputs": [
        {
          "internalType": "string",
          "name": "platform_token",
          "type": "string"
        }
      ],
      "name": "fetchRequests",
      "outputs": [
        {
          "components": [
            {
              "internalType": "string",
              "name": "requester_name",
              "type": "string"
            },
            {
              "internalType": "string",
              "name": "requester_country",
              "type": "string"
            },
            {
              "internalType": "string",
              "name": "requester_phone",
              "type": "string"
            },
            {
              "internalType": "string",
              "name": "requester_email",
              "type": "string"
            },
            {
              "internalType": "string",
              "name": "relationship",
              "type": "string"
            },
            {
              "internalType": "string",
              "name": "reason",
              "type": "string"
            },
            {
              "internalType": "string",
              "name": "account_token",
              "type": "string"
            },
            {
              "internalType": "address",
              "name": "account_address",
              "type": "address"
            },
            {
              "internalType": "uint16",
              "name": "num_of_contacts",
              "type": "uint16"
            },
            {
              "internalType": "uint256",
              "name": "request_date",
              "type": "uint256"
            }
          ],
          "internalType": "struct Structs.RecoveryRequest[]",
          "name": "",
          "type": "tuple[]"
        }
      ],
      "stateMutability": "view",
      "type": "function"
    },
    {
      "inputs": [
        {
          "internalType": "string",
          "name": "platform_token",
          "type": "string"
        },
        {
          "internalType": "address",
          "name": "old_wallet_addr",
          "type": "address"
        }
      ],
      "name": "recoverAccount",
      "outputs": [
        {
          "internalType": "bool",
          "name": "",
          "type": "bool"
        }
      ],
      "stateMutability": "nonpayable",
      "type": "function"
    },
    {
      "inputs": [
        {
          "internalType": "string",
          "name": "platform_token",
          "type": "string"
        }
      ],
      "name": "requestStatus",
      "outputs": [
        {
          "components": [
            {
              "internalType": "string",
              "name": "requester_name",
              "type": "string"
            },
            {
              "internalType": "string",
              "name": "requester_country",
              "type": "string"
            },
            {
              "internalType": "string",
              "name": "requester_phone",
              "type": "string"
            },
            {
              "internalType": "string",
              "name": "requester_email",
              "type": "string"
            },
            {
              "internalType": "string",
              "name": "relationship",
              "type": "string"
            },
            {
              "internalType": "string",
              "name": "reason",
              "type": "string"
            },
            {
              "internalType": "string",
              "name": "account_token",
              "type": "string"
            },
            {
              "internalType": "address",
              "name": "account_address",
              "type": "address"
            },
            {
              "internalType": "uint16",
              "name": "num_of_contacts",
              "type": "uint16"
            },
            {
              "internalType": "uint256",
              "name": "request_date",
              "type": "uint256"
            }
          ],
          "internalType": "struct Structs.RecoveryRequest",
          "name": "",
          "type": "tuple"
        },
        {
          "components": [
            {
              "internalType": "address",
              "name": "reporter",
              "type": "address"
            },
            {
              "internalType": "uint256",
              "name": "contact_index",
              "type": "uint256"
            },
            {
              "internalType": "string",
              "name": "comment",
              "type": "string"
            },
            {
              "internalType": "enum Structs.REPORT_TYPE",
              "name": "report_type",
              "type": "uint8"
            }
          ],
          "internalType": "struct Structs.Report[]",
          "name": "",
          "type": "tuple[]"
        }
      ],
      "stateMutability": "view",
      "type": "function"
    },
    {
      "inputs": [
        {
          "internalType": "string",
          "name": "platform_token",
          "type": "string"
        },
        {
          "internalType": "string",
          "name": "account_token",
          "type": "string"
        },
        {
          "components": [
            {
              "internalType": "address",
              "name": "reporter",
              "type": "address"
            },
            {
              "internalType": "uint256",
              "name": "contact_index",
              "type": "uint256"
            },
            {
              "internalType": "string",
              "name": "comment",
              "type": "string"
            },
            {
              "internalType": "enum Structs.REPORT_TYPE",
              "name": "report_type",
              "type": "uint8"
            }
          ],
          "internalType": "struct Structs.Report",
          "name": "report",
          "type": "tuple"
        }
      ],
      "name": "saveReport",
      "outputs": [
        {
          "internalType": "bool",
          "name": "",
          "type": "bool"
        }
      ],
      "stateMutability": "nonpayable",
      "type": "function"
    },
    {
      "inputs": [
        {
          "internalType": "string",
          "name": "platform_token",
          "type": "string"
        },
        {
          "components": [
            {
              "internalType": "string",
              "name": "requester_name",
              "type": "string"
            },
            {
              "internalType": "string",
              "name": "requester_country",
              "type": "string"
            },
            {
              "internalType": "string",
              "name": "requester_phone",
              "type": "string"
            },
            {
              "internalType": "string",
              "name": "requester_email",
              "type": "string"
            },
            {
              "internalType": "string",
              "name": "relationship",
              "type": "string"
            },
            {
              "internalType": "string",
              "name": "reason",
              "type": "string"
            },
            {
              "internalType": "string",
              "name": "account_token",
              "type": "string"
            },
            {
              "internalType": "address",
              "name": "account_address",
              "type": "address"
            },
            {
              "internalType": "uint16",
              "name": "num_of_contacts",
              "type": "uint16"
            },
            {
              "internalType": "uint256",
              "name": "request_date",
              "type": "uint256"
            }
          ],
          "internalType": "struct Structs.RecoveryRequest",
          "name": "recovery_request",
          "type": "tuple"
        }
      ],
      "name": "saveRequest",
      "outputs": [],
      "stateMutability": "nonpayable",
      "type": "function"
    }
  ],
  "bytecode": "0x60806040523480156200001157600080fd5b50604051620039f1380380620039f18339818101604052810190620000379190620000ee565b816000806101000a81548173ffffffffffffffffffffffffffffffffffffffff021916908373ffffffffffffffffffffffffffffffffffffffff16021790555080600160006101000a81548173ffffffffffffffffffffffffffffffffffffffff021916908373ffffffffffffffffffffffffffffffffffffffff1602179055505050620001ca565b600081519050620000d18162000196565b92915050565b600081519050620000e881620001b0565b92915050565b6000806040838503121562000108576200010762000191565b5b60006200011885828601620000c0565b92505060206200012b85828601620000d7565b9150509250929050565b6000620001428262000171565b9050919050565b6000620001568262000135565b9050919050565b60006200016a8262000135565b9050919050565b600073ffffffffffffffffffffffffffffffffffffffff82169050919050565b600080fd5b620001a18162000149565b8114620001ad57600080fd5b50565b620001bb816200015d565b8114620001c757600080fd5b50565b61381780620001da6000396000f3fe608060405234801561001057600080fd5b50600436106100625760003560e01c80634b71ffac1461006757806353e2790f146100835780636d2e3281146100b45780637f121452146100e45780638c59a91314610114578063f78e710814610144575b600080fd5b610081600480360381019061007c919061292d565b610174565b005b61009d60048036038101906100989190612726565b610461565b6040516100ab9291906131c2565b60405180910390f35b6100ce60048036038101906100c99190612872565b610c29565b6040516100db919061304c565b60405180910390f35b6100fe60048036038101906100f9919061276f565b61118c565b60405161010b919061304c565b60405180910390f35b61012e600480360381019061012991906127cb565b6116ee565b60405161013b919061304c565b60405180910390f35b61015e60048036038101906101599190612726565b611a91565b60405161016b919061302a565b60405180910390f35b8160008054906101000a900473ffffffffffffffffffffffffffffffffffffffff1673ffffffffffffffffffffffffffffffffffffffff16638e81979a826040518263ffffffff1660e01b81526004016101ce9190613090565b60206040518083038186803b1580156101e657600080fd5b505afa1580156101fa573d6000803e3d6000fd5b505050506040513d601f19601f8201168201806040525081019061021e91906126f9565b61025d576040517f08c379a0000000000000000000000000000000000000000000000000000000008152600401610254906130e2565b60405180910390fd5b8160028360c001516040516102729190612ffc565b9081526020016040518091039020600082015181600001908051906020019061029c9291906121d8565b5060208201518160010190805190602001906102b99291906121d8565b5060408201518160020190805190602001906102d69291906121d8565b5060608201518160030190805190602001906102f39291906121d8565b5060808201518160040190805190602001906103109291906121d8565b5060a082015181600501908051906020019061032d9291906121d8565b5060c082015181600601908051906020019061034a9291906121d8565b5060e08201518160070160006101000a81548173ffffffffffffffffffffffffffffffffffffffff021916908373ffffffffffffffffffffffffffffffffffffffff1602179055506101008201518160070160146101000a81548161ffff021916908361ffff160217905550610120820151816008015590505060048260c001519080600181540180825580915050600190039060005260206000200160009091909190915090805190602001906104039291906121d8565b508160c00151600360003373ffffffffffffffffffffffffffffffffffffffff1673ffffffffffffffffffffffffffffffffffffffff168152602001908152602001600020908051906020019061045b9291906121d8565b50505050565b61046961225e565b60608260008054906101000a900473ffffffffffffffffffffffffffffffffffffffff1673ffffffffffffffffffffffffffffffffffffffff16638e81979a826040518263ffffffff1660e01b81526004016104c59190613090565b60206040518083038186803b1580156104dd57600080fd5b505afa1580156104f1573d6000803e3d6000fd5b505050506040513d601f19601f8201168201806040525081019061051591906126f9565b610554576040517f08c379a000000000000000000000000000000000000000000000000000000000815260040161054b906130e2565b60405180910390fd5b6002600360003373ffffffffffffffffffffffffffffffffffffffff1673ffffffffffffffffffffffffffffffffffffffff1681526020019081526020016000206040516105a29190613013565b90815260200160405180910390206007600360003373ffffffffffffffffffffffffffffffffffffffff1673ffffffffffffffffffffffffffffffffffffffff1681526020019081526020016000206040516105fe9190613013565b908152602001604051809103902081604051806101400160405290816000820180546106299061342b565b80601f01602080910402602001604051908101604052809291908181526020018280546106559061342b565b80156106a25780601f10610677576101008083540402835291602001916106a2565b820191906000526020600020905b81548152906001019060200180831161068557829003601f168201915b505050505081526020016001820180546106bb9061342b565b80601f01602080910402602001604051908101604052809291908181526020018280546106e79061342b565b80156107345780601f1061070957610100808354040283529160200191610734565b820191906000526020600020905b81548152906001019060200180831161071757829003601f168201915b5050505050815260200160028201805461074d9061342b565b80601f01602080910402602001604051908101604052809291908181526020018280546107799061342b565b80156107c65780601f1061079b576101008083540402835291602001916107c6565b820191906000526020600020905b8154815290600101906020018083116107a957829003601f168201915b505050505081526020016003820180546107df9061342b565b80601f016020809104026020016040519081016040528092919081815260200182805461080b9061342b565b80156108585780601f1061082d57610100808354040283529160200191610858565b820191906000526020600020905b81548152906001019060200180831161083b57829003601f168201915b505050505081526020016004820180546108719061342b565b80601f016020809104026020016040519081016040528092919081815260200182805461089d9061342b565b80156108ea5780601f106108bf576101008083540402835291602001916108ea565b820191906000526020600020905b8154815290600101906020018083116108cd57829003601f168201915b505050505081526020016005820180546109039061342b565b80601f016020809104026020016040519081016040528092919081815260200182805461092f9061342b565b801561097c5780601f106109515761010080835404028352916020019161097c565b820191906000526020600020905b81548152906001019060200180831161095f57829003601f168201915b505050505081526020016006820180546109959061342b565b80601f01602080910402602001604051908101604052809291908181526020018280546109c19061342b565b8015610a0e5780601f106109e357610100808354040283529160200191610a0e565b820191906000526020600020905b8154815290600101906020018083116109f157829003601f168201915b505050505081526020016007820160009054906101000a900473ffffffffffffffffffffffffffffffffffffffff1673ffffffffffffffffffffffffffffffffffffffff1673ffffffffffffffffffffffffffffffffffffffff1681526020016007820160149054906101000a900461ffff1661ffff1661ffff168152602001600882015481525050915080805480602002602001604051908101604052809291908181526020016000905b82821015610c1957838290600052602060002090600402016040518060800160405290816000820160009054906101000a900473ffffffffffffffffffffffffffffffffffffffff1673ffffffffffffffffffffffffffffffffffffffff1673ffffffffffffffffffffffffffffffffffffffff16815260200160018201548152602001600282018054610b4d9061342b565b80601f0160208091040260200160405190810160405280929190818152602001828054610b799061342b565b8015610bc65780601f10610b9b57610100808354040283529160200191610bc6565b820191906000526020600020905b815481529060010190602001808311610ba957829003601f168201915b505050505081526020016003820160009054906101000a900460ff166002811115610bf457610bf3613531565b5b6002811115610c0657610c05613531565b5b8152505081526020019060010190610aba565b5050505090509250925050915091565b60008460008054906101000a900473ffffffffffffffffffffffffffffffffffffffff1673ffffffffffffffffffffffffffffffffffffffff16638e81979a826040518263ffffffff1660e01b8152600401610c859190613090565b60206040518083038186803b158015610c9d57600080fd5b505afa158015610cb1573d6000803e3d6000fd5b505050506040513d601f19601f82011682018060405250810190610cd591906126f9565b610d14576040517f08c379a0000000000000000000000000000000000000000000000000000000008152600401610d0b906130e2565b60405180910390fd5b6040518060400160405280600981526020017f56414c494441544f520000000000000000000000000000000000000000000000815250600160009054906101000a900473ffffffffffffffffffffffffffffffffffffffff1673ffffffffffffffffffffffffffffffffffffffff166391d1485482604051602001610d999190612ffc565b60405160208183030381529060405280519060200120336040518363ffffffff1660e01b8152600401610dcd929190613067565b60206040518083038186803b158015610de557600080fd5b505afa158015610df9573d6000803e3d6000fd5b505050506040513d601f19601f82011682018060405250810190610e1d91906126f9565b610e5c576040517f08c379a0000000000000000000000000000000000000000000000000000000008152600401610e5390613102565b60405180910390fd5b600660003373ffffffffffffffffffffffffffffffffffffffff1673ffffffffffffffffffffffffffffffffffffffff16815260200190815260200160002060010160029054906101000a900460ff1615610eec576040517f08c379a0000000000000000000000000000000000000000000000000000000008152600401610ee3906131a2565b60405180910390fd5b8461ffff16600587604051610f019190612ffc565b90815260200160405180910390208054905010610f53576040517f08c379a0000000000000000000000000000000000000000000000000000000008152600401610f4a90613162565b60405180910390fd5b60005b600587604051610f669190612ffc565b90815260200160405180910390208054905081101561105b573373ffffffffffffffffffffffffffffffffffffffff16600588604051610fa69190612ffc565b90815260200160405180910390208281548110610fc657610fc561358f565b5b9060005260206000200160009054906101000a900473ffffffffffffffffffffffffffffffffffffffff1673ffffffffffffffffffffffffffffffffffffffff161415611048576040517f08c379a000000000000000000000000000000000000000000000000000000000815260040161103f90613182565b60405180910390fd5b8080611053906134b9565b915050610f56565b5083600660003273ffffffffffffffffffffffffffffffffffffffff1673ffffffffffffffffffffffffffffffffffffffff16815260200190815260200160002060008201518160000190805190602001906110b89291906121d8565b5060208201518160010160006101000a81548161ffff021916908361ffff16021790555060408201518160010160026101000a81548160ff02191690831515021790555090505060058660405161110f9190612ffc565b9081526020016040518091039020339080600181540180825580915050600190039060005260206000200160009091909190916101000a81548173ffffffffffffffffffffffffffffffffffffffff021916908373ffffffffffffffffffffffffffffffffffffffff160217905550600192505050949350505050565b60008260008054906101000a900473ffffffffffffffffffffffffffffffffffffffff1673ffffffffffffffffffffffffffffffffffffffff16638e81979a826040518263ffffffff1660e01b81526004016111e89190613090565b60206040518083038186803b15801561120057600080fd5b505afa158015611214573d6000803e3d6000fd5b505050506040513d601f19601f8201168201806040525081019061123891906126f9565b611277576040517f08c379a000000000000000000000000000000000000000000000000000000000815260040161126e906130e2565b60405180910390fd5b6002600360003373ffffffffffffffffffffffffffffffffffffffff1673ffffffffffffffffffffffffffffffffffffffff16815260200190815260200160002080546112c39061342b565b905011611305576040517f08c379a00000000000000000000000000000000000000000000000000000000081526004016112fc90613122565b60405180910390fd5b600080600090505b6007600360003373ffffffffffffffffffffffffffffffffffffffff1673ffffffffffffffffffffffffffffffffffffffff16815260200190815260200160002060405161135b9190613013565b9081526020016040518091039020805490508161ffff161015611457576001600281111561138c5761138b613531565b5b6007600360003373ffffffffffffffffffffffffffffffffffffffff1673ffffffffffffffffffffffffffffffffffffffff1681526020019081526020016000206040516113da9190613013565b90815260200160405180910390208261ffff16815481106113fe576113fd61358f565b5b906000526020600020906004020160030160009054906101000a900460ff16600281111561142f5761142e613531565b5b1415611444578180611440906134b9565b9250505b808061144f9061348e565b91505061130d565b5060008054906101000a900473ffffffffffffffffffffffffffffffffffffffff1673ffffffffffffffffffffffffffffffffffffffff16638675c40273__$63b3866c7ad69c9b67104bce93fa94acc6$__63f5ddf6df6002600360003373ffffffffffffffffffffffffffffffffffffffff1673ffffffffffffffffffffffffffffffffffffffff1681526020019081526020016000206040516114fc9190613013565b908152602001604051809103902060070160149054906101000a900461ffff16856040518363ffffffff1660e01b815260040161153a9291906131f9565b60206040518083038186803b15801561155257600080fd5b505af4158015611566573d6000803e3d6000fd5b505050506040513d601f19601f8201168201806040525081019061158a91906129a5565b6040518263ffffffff1660e01b81526004016115a69190613222565b60206040518083038186803b1580156115be57600080fd5b505afa1580156115d2573d6000803e3d6000fd5b505050506040513d601f19601f820116820180604052508101906115f691906126f9565b611635576040517f08c379a000000000000000000000000000000000000000000000000000000000815260040161162c90613142565b60405180910390fd5b600160009054906101000a900473ffffffffffffffffffffffffffffffffffffffff1673ffffffffffffffffffffffffffffffffffffffff166372b6294c86866040518363ffffffff1660e01b81526004016116929291906130b2565b602060405180830381600087803b1580156116ac57600080fd5b505af11580156116c0573d6000803e3d6000fd5b505050506040513d601f19601f820116820180604052508101906116e491906126f9565b9250505092915050565b60008360008054906101000a900473ffffffffffffffffffffffffffffffffffffffff1673ffffffffffffffffffffffffffffffffffffffff16638e81979a826040518263ffffffff1660e01b815260040161174a9190613090565b60206040518083038186803b15801561176257600080fd5b505afa158015611776573d6000803e3d6000fd5b505050506040513d601f19601f8201168201806040525081019061179a91906126f9565b6117d9576040517f08c379a00000000000000000000000000000000000000000000000000000000081526004016117d0906130e2565b60405180910390fd5b6040518060400160405280600981526020017f56414c494441544f520000000000000000000000000000000000000000000000815250600160009054906101000a900473ffffffffffffffffffffffffffffffffffffffff1673ffffffffffffffffffffffffffffffffffffffff166391d148548260405160200161185e9190612ffc565b60405160208183030381529060405280519060200120336040518363ffffffff1660e01b8152600401611892929190613067565b60206040518083038186803b1580156118aa57600080fd5b505afa1580156118be573d6000803e3d6000fd5b505050506040513d601f19601f820116820180604052508101906118e291906126f9565b611921576040517f08c379a000000000000000000000000000000000000000000000000000000000815260040161191890613102565b60405180910390fd5b6007856040516119319190612ffc565b908152602001604051809103902084908060018154018082558091505060019003906000526020600020906004020160009091909190915060008201518160000160006101000a81548173ffffffffffffffffffffffffffffffffffffffff021916908373ffffffffffffffffffffffffffffffffffffffff1602179055506020820151816001015560408201518160020190805190602001906119d69291906121d8565b5060608201518160030160006101000a81548160ff02191690836002811115611a0257611a01613531565b5b02179055505050600660003373ffffffffffffffffffffffffffffffffffffffff1673ffffffffffffffffffffffffffffffffffffffff16815260200190815260200160002060008082016000611a5991906122cb565b6001820160006101000a81549061ffff02191690556001820160026101000a81549060ff021916905550506001925050509392505050565b60608160008054906101000a900473ffffffffffffffffffffffffffffffffffffffff1673ffffffffffffffffffffffffffffffffffffffff16638e81979a826040518263ffffffff1660e01b8152600401611aed9190613090565b60206040518083038186803b158015611b0557600080fd5b505afa158015611b19573d6000803e3d6000fd5b505050506040513d601f19601f82011682018060405250810190611b3d91906126f9565b611b7c576040517f08c379a0000000000000000000000000000000000000000000000000000000008152600401611b73906130e2565b60405180910390fd5b6040518060400160405280600981526020017f56414c494441544f520000000000000000000000000000000000000000000000815250600160009054906101000a900473ffffffffffffffffffffffffffffffffffffffff1673ffffffffffffffffffffffffffffffffffffffff166391d1485482604051602001611c019190612ffc565b60405160208183030381529060405280519060200120336040518363ffffffff1660e01b8152600401611c35929190613067565b60206040518083038186803b158015611c4d57600080fd5b505afa158015611c61573d6000803e3d6000fd5b505050506040513d601f19601f82011682018060405250810190611c8591906126f9565b611cc4576040517f08c379a0000000000000000000000000000000000000000000000000000000008152600401611cbb90613102565b60405180910390fd5b606060005b6004805490508110156121cc57600260048281548110611cec57611ceb61358f565b5b90600052602060002001604051611d039190613013565b908152602001604051809103902060405180610140016040529081600082018054611d2d9061342b565b80601f0160208091040260200160405190810160405280929190818152602001828054611d599061342b565b8015611da65780601f10611d7b57610100808354040283529160200191611da6565b820191906000526020600020905b815481529060010190602001808311611d8957829003601f168201915b50505050508152602001600182018054611dbf9061342b565b80601f0160208091040260200160405190810160405280929190818152602001828054611deb9061342b565b8015611e385780601f10611e0d57610100808354040283529160200191611e38565b820191906000526020600020905b815481529060010190602001808311611e1b57829003601f168201915b50505050508152602001600282018054611e519061342b565b80601f0160208091040260200160405190810160405280929190818152602001828054611e7d9061342b565b8015611eca5780601f10611e9f57610100808354040283529160200191611eca565b820191906000526020600020905b815481529060010190602001808311611ead57829003601f168201915b50505050508152602001600382018054611ee39061342b565b80601f0160208091040260200160405190810160405280929190818152602001828054611f0f9061342b565b8015611f5c5780601f10611f3157610100808354040283529160200191611f5c565b820191906000526020600020905b815481529060010190602001808311611f3f57829003601f168201915b50505050508152602001600482018054611f759061342b565b80601f0160208091040260200160405190810160405280929190818152602001828054611fa19061342b565b8015611fee5780601f10611fc357610100808354040283529160200191611fee565b820191906000526020600020905b815481529060010190602001808311611fd157829003601f168201915b505050505081526020016005820180546120079061342b565b80601f01602080910402602001604051908101604052809291908181526020018280546120339061342b565b80156120805780601f1061205557610100808354040283529160200191612080565b820191906000526020600020905b81548152906001019060200180831161206357829003601f168201915b505050505081526020016006820180546120999061342b565b80601f01602080910402602001604051908101604052809291908181526020018280546120c59061342b565b80156121125780601f106120e757610100808354040283529160200191612112565b820191906000526020600020905b8154815290600101906020018083116120f557829003601f168201915b505050505081526020016007820160009054906101000a900473ffffffffffffffffffffffffffffffffffffffff1673ffffffffffffffffffffffffffffffffffffffff1673ffffffffffffffffffffffffffffffffffffffff1681526020016007820160149054906101000a900461ffff1661ffff1661ffff1681526020016008820154815250508282815181106121ae576121ad61358f565b5b602002602001018190525080806121c4906134b9565b915050611cc9565b50809350505050919050565b8280546121e49061342b565b90600052602060002090601f016020900481019282612206576000855561224d565b82601f1061221f57805160ff191683800117855561224d565b8280016001018555821561224d579182015b8281111561224c578251825591602001919060010190612231565b5b50905061225a919061230b565b5090565b60405180610140016040528060608152602001606081526020016060815260200160608152602001606081526020016060815260200160608152602001600073ffffffffffffffffffffffffffffffffffffffff168152602001600061ffff168152602001600081525090565b5080546122d79061342b565b6000825580601f106122e95750612308565b601f016020900490600052602060002090810190612307919061230b565b5b50565b5b8082111561232457600081600090555060010161230c565b5090565b600061233b61233684613262565b61323d565b905082815260208101848484011115612357576123566135fc565b5b6123628482856133e9565b509392505050565b60008135905061237981613775565b92915050565b60008135905061238e8161378c565b92915050565b6000815190506123a38161378c565b92915050565b6000813590506123b8816137a3565b92915050565b600082601f8301126123d3576123d26135ed565b5b81356123e3848260208601612328565b91505092915050565b600060608284031215612402576124016135f2565b5b61240c606061323d565b9050600082013567ffffffffffffffff81111561242c5761242b6135f7565b5b612438848285016123be565b600083015250602061244c848285016126ba565b60208301525060406124608482850161237f565b60408301525092915050565b60006101408284031215612483576124826135f2565b5b61248e61014061323d565b9050600082013567ffffffffffffffff8111156124ae576124ad6135f7565b5b6124ba848285016123be565b600083015250602082013567ffffffffffffffff8111156124de576124dd6135f7565b5b6124ea848285016123be565b602083015250604082013567ffffffffffffffff81111561250e5761250d6135f7565b5b61251a848285016123be565b604083015250606082013567ffffffffffffffff81111561253e5761253d6135f7565b5b61254a848285016123be565b606083015250608082013567ffffffffffffffff81111561256e5761256d6135f7565b5b61257a848285016123be565b60808301525060a082013567ffffffffffffffff81111561259e5761259d6135f7565b5b6125aa848285016123be565b60a08301525060c082013567ffffffffffffffff8111156125ce576125cd6135f7565b5b6125da848285016123be565b60c08301525060e06125ee8482850161236a565b60e083015250610100612603848285016126ba565b61010083015250610120612619848285016126cf565b6101208301525092915050565b60006080828403121561263c5761263b6135f2565b5b612646608061323d565b905060006126568482850161236a565b600083015250602061266a848285016126cf565b602083015250604082013567ffffffffffffffff81111561268e5761268d6135f7565b5b61269a848285016123be565b60408301525060606126ae848285016123a9565b60608301525092915050565b6000813590506126c9816137b3565b92915050565b6000813590506126de816137ca565b92915050565b6000815190506126f3816137ca565b92915050565b60006020828403121561270f5761270e613606565b5b600061271d84828501612394565b91505092915050565b60006020828403121561273c5761273b613606565b5b600082013567ffffffffffffffff81111561275a57612759613601565b5b612766848285016123be565b91505092915050565b6000806040838503121561278657612785613606565b5b600083013567ffffffffffffffff8111156127a4576127a3613601565b5b6127b0858286016123be565b92505060206127c18582860161236a565b9150509250929050565b6000806000606084860312156127e4576127e3613606565b5b600084013567ffffffffffffffff81111561280257612801613601565b5b61280e868287016123be565b935050602084013567ffffffffffffffff81111561282f5761282e613601565b5b61283b868287016123be565b925050604084013567ffffffffffffffff81111561285c5761285b613601565b5b61286886828701612626565b9150509250925092565b6000806000806080858703121561288c5761288b613606565b5b600085013567ffffffffffffffff8111156128aa576128a9613601565b5b6128b6878288016123be565b945050602085013567ffffffffffffffff8111156128d7576128d6613601565b5b6128e3878288016123be565b93505060406128f4878288016126ba565b925050606085013567ffffffffffffffff81111561291557612914613601565b5b612921878288016123ec565b91505092959194509250565b6000806040838503121561294457612943613606565b5b600083013567ffffffffffffffff81111561296257612961613601565b5b61296e858286016123be565b925050602083013567ffffffffffffffff81111561298f5761298e613601565b5b61299b8582860161246c565b9150509250929050565b6000602082840312156129bb576129ba613606565b5b60006129c9848285016126e4565b91505092915050565b60006129de8383612d46565b905092915050565b60006129f28383612f4e565b905092915050565b612a0381613352565b82525050565b612a1281613352565b82525050565b6000612a23826132c8565b612a2d8185613303565b935083602082028501612a3f85613293565b8060005b85811015612a7b5784840389528151612a5c85826129d2565b9450612a67836132e9565b925060208a01995050600181019050612a43565b50829750879550505050505092915050565b6000612a98826132d3565b612aa28185613314565b935083602082028501612ab4856132a3565b8060005b85811015612af05784840389528151612ad185826129e6565b9450612adc836132f6565b925060208a01995050600181019050612ab8565b50829750879550505050505092915050565b612b0b81613364565b82525050565b612b1a81613370565b82525050565b612b29816133c5565b82525050565b6000612b3a826132de565b612b448185613325565b9350612b548185602086016133f8565b612b5d8161360b565b840191505092915050565b6000612b73826132de565b612b7d8185613336565b9350612b8d8185602086016133f8565b612b968161360b565b840191505092915050565b6000612bac826132de565b612bb68185613347565b9350612bc68185602086016133f8565b80840191505092915050565b60008154612bdf8161342b565b612be98186613347565b94506001821660008114612c045760018114612c1557612c48565b60ff19831686528186019350612c48565b612c1e856132b3565b60005b83811015612c4057815481890152600182019150602081019050612c21565b838801955050505b50505092915050565b6000612c5e601483613336565b9150612c698261361c565b602082019050919050565b6000612c81601c83613336565b9150612c8c82613645565b602082019050919050565b6000612ca4601483613336565b9150612caf8261366e565b602082019050919050565b6000612cc7601983613336565b9150612cd282613697565b602082019050919050565b6000612cea600d83613336565b9150612cf5826136c0565b602082019050919050565b6000612d0d603b83613336565b9150612d18826136e9565b604082019050919050565b6000612d30601683613336565b9150612d3b82613738565b602082019050919050565b6000610140830160008301518482036000860152612d648282612b2f565b91505060208301518482036020860152612d7e8282612b2f565b91505060408301518482036040860152612d988282612b2f565b91505060608301518482036060860152612db28282612b2f565b91505060808301518482036080860152612dcc8282612b2f565b91505060a083015184820360a0860152612de68282612b2f565b91505060c083015184820360c0860152612e008282612b2f565b91505060e0830151612e1560e08601826129fa565b50610100830151612e2a610100860182612fb1565b50610120830151612e3f610120860182612fcf565b508091505092915050565b6000610140830160008301518482036000860152612e688282612b2f565b91505060208301518482036020860152612e828282612b2f565b91505060408301518482036040860152612e9c8282612b2f565b91505060608301518482036060860152612eb68282612b2f565b91505060808301518482036080860152612ed08282612b2f565b91505060a083015184820360a0860152612eea8282612b2f565b91505060c083015184820360c0860152612f048282612b2f565b91505060e0830151612f1960e08601826129fa565b50610100830151612f2e610100860182612fb1565b50610120830151612f43610120860182612fcf565b508091505092915050565b6000608083016000830151612f6660008601826129fa565b506020830151612f796020860182612fcf565b5060408301518482036040860152612f918282612b2f565b9150506060830151612fa66060860182612b20565b508091505092915050565b612fba8161338d565b82525050565b612fc9816133d7565b82525050565b612fd8816133bb565b82525050565b612fe7816133bb565b82525050565b612ff6816133bb565b82525050565b60006130088284612ba1565b915081905092915050565b600061301f8284612bd2565b915081905092915050565b600060208201905081810360008301526130448184612a18565b905092915050565b60006020820190506130616000830184612b02565b92915050565b600060408201905061307c6000830185612b11565b6130896020830184612a09565b9392505050565b600060208201905081810360008301526130aa8184612b68565b905092915050565b600060408201905081810360008301526130cc8185612b68565b90506130db6020830184612a09565b9392505050565b600060208201905081810360008301526130fb81612c51565b9050919050565b6000602082019050818103600083015261311b81612c74565b9050919050565b6000602082019050818103600083015261313b81612c97565b9050919050565b6000602082019050818103600083015261315b81612cba565b9050919050565b6000602082019050818103600083015261317b81612cdd565b9050919050565b6000602082019050818103600083015261319b81612d00565b9050919050565b600060208201905081810360008301526131bb81612d23565b9050919050565b600060408201905081810360008301526131dc8185612e4a565b905081810360208301526131f08184612a8d565b90509392505050565b600060408201905061320e6000830185612fc0565b61321b6020830184612fed565b9392505050565b60006020820190506132376000830184612fde565b92915050565b6000613247613258565b9050613253828261345d565b919050565b6000604051905090565b600067ffffffffffffffff82111561327d5761327c6135be565b5b6132868261360b565b9050602081019050919050565b6000819050602082019050919050565b6000819050602082019050919050565b60008190508160005260206000209050919050565b600081519050919050565b600081519050919050565b600081519050919050565b6000602082019050919050565b6000602082019050919050565b600082825260208201905092915050565b600082825260208201905092915050565b600082825260208201905092915050565b600082825260208201905092915050565b600081905092915050565b600061335d8261339b565b9050919050565b60008115159050919050565b6000819050919050565b600081905061338882613761565b919050565b600061ffff82169050919050565b600073ffffffffffffffffffffffffffffffffffffffff82169050919050565b6000819050919050565b60006133d08261337a565b9050919050565b60006133e28261338d565b9050919050565b82818337600083830152505050565b60005b838110156134165780820151818401526020810190506133fb565b83811115613425576000848401525b50505050565b6000600282049050600182168061344357607f821691505b6020821081141561345757613456613560565b5b50919050565b6134668261360b565b810181811067ffffffffffffffff82111715613485576134846135be565b5b80604052505050565b60006134998261338d565b915061ffff8214156134ae576134ad613502565b5b600182019050919050565b60006134c4826133bb565b91507fffffffffffffffffffffffffffffffffffffffffffffffffffffffffffffffff8214156134f7576134f6613502565b5b600182019050919050565b7f4e487b7100000000000000000000000000000000000000000000000000000000600052601160045260246000fd5b7f4e487b7100000000000000000000000000000000000000000000000000000000600052602160045260246000fd5b7f4e487b7100000000000000000000000000000000000000000000000000000000600052602260045260246000fd5b7f4e487b7100000000000000000000000000000000000000000000000000000000600052603260045260246000fd5b7f4e487b7100000000000000000000000000000000000000000000000000000000600052604160045260246000fd5b600080fd5b600080fd5b600080fd5b600080fd5b600080fd5b600080fd5b6000601f19601f8301169050919050565b7f496e76616c69642061636365737320746f6b656e000000000000000000000000600082015250565b7f596f7520646f6e74206861766520746865207065726d697373696f6e00000000600082015250565b7f4e6f20617373657420746f207265636f76657279000000000000000000000000600082015250565b7f5265636f7665727920726571756573742072656a656374656400000000000000600082015250565b7f4e6f7420617661696c61626c6500000000000000000000000000000000000000600082015250565b7f596f752063616e6e6f742076616c6964617465206d6f7265207468616e206f6e60008201527f6520636f6e746163742066726f6d207468697320726571756573740000000000602082015250565b7f596f75206861766520756e66696e697368207461736b00000000000000000000600082015250565b6003811061377257613771613531565b5b50565b61377e81613352565b811461378957600080fd5b50565b61379581613364565b81146137a057600080fd5b50565b600381106137b057600080fd5b50565b6137bc8161338d565b81146137c757600080fd5b50565b6137d3816133bb565b81146137de57600080fd5b5056fea26469706673582212202ca22b438371b0191d26c40d0e904e54e22eece6eee7a44032781b231046e03664736f6c63430008060033",
  "linkReferences": {
    "contracts/Utils/Utils.sol": {
      "Utils": [
        {
          "length": 20,
          "start": 5744
        }
      ]
    }
  },
  "deployedLinkReferences": {
    "contracts/Utils/Utils.sol": {
      "Utils": [
        {
          "length": 20,
          "start": 5270
        }
      ]
    }
  }
}