{
  "_format": "hh-sol-artifact-1",
  "contractName": "Utils",
  "sourceName": "contracts/Utils/Utils.sol",
  "abi": [
    {
      "inputs": [
        {
          "internalType": "string",
          "name": "str1",
          "type": "string"
        },
        {
          "internalType": "string",
          "name": "str2",
          "type": "string"
        }
      ],
      "name": "compareStrings",
      "outputs": [
        {
          "internalType": "bool",
          "name": "",
          "type": "bool"
        }
      ],
      "stateMutability": "pure",
      "type": "function"
    }
  ],
  "bytecode": "0x610392610053600b82828239805160001a607314610046577f4e487b7100000000000000000000000000000000000000000000000000000000600052600060045260246000fd5b30600052607381538281f3fe73000000000000000000000000000000000000000030146080604052600436106100355760003560e01c8063bed34bba1461003a575b600080fd5b610054600480360381019061004f9190610133565b61006a565b6040516100619190610202565b60405180910390f35b60008160405160200161007d91906101eb565b60405160208183030381529060405280519060200120836040516020016100a491906101eb565b6040516020818303038152906040528051906020012014905092915050565b60006100d66100d184610242565b61021d565b9050828152602081018484840111156100f2576100f161033c565b5b6100fd848285610295565b509392505050565b600082601f83011261011a57610119610337565b5b813561012a8482602086016100c3565b91505092915050565b6000806040838503121561014a57610149610346565b5b600083013567ffffffffffffffff81111561016857610167610341565b5b61017485828601610105565b925050602083013567ffffffffffffffff81111561019557610194610341565b5b6101a185828601610105565b9150509250929050565b6101b481610289565b82525050565b60006101c582610273565b6101cf818561027e565b93506101df8185602086016102a4565b80840191505092915050565b60006101f782846101ba565b915081905092915050565b600060208201905061021760008301846101ab565b92915050565b6000610227610238565b905061023382826102d7565b919050565b6000604051905090565b600067ffffffffffffffff82111561025d5761025c610308565b5b6102668261034b565b9050602081019050919050565b600081519050919050565b600081905092915050565b60008115159050919050565b82818337600083830152505050565b60005b838110156102c25780820151818401526020810190506102a7565b838111156102d1576000848401525b50505050565b6102e08261034b565b810181811067ffffffffffffffff821117156102ff576102fe610308565b5b80604052505050565b7f4e487b7100000000000000000000000000000000000000000000000000000000600052604160045260246000fd5b600080fd5b600080fd5b600080fd5b600080fd5b6000601f19601f830116905091905056fea26469706673582212202b81c518dc05f8996a1c2214329d029cf41e6831d46c44fe2460c197777bf32664736f6c63430008060033",
  "linkReferences": {},
  "deployedLinkReferences": {}
}