{
  "_format": "hh-sol-artifact-1",
  "contractName": "Utils",
  "sourceName": "contracts/Utils/Utils.sol",
  "abi": [
    {
      "inputs": [
        {
          "internalType": "uint256",
          "name": "y",
          "type": "uint256"
        },
        {
          "internalType": "uint256",
          "name": "x",
          "type": "uint256"
        }
      ],
      "name": "checkPercent",
      "outputs": [
        {
          "internalType": "uint256",
          "name": "",
          "type": "uint256"
        }
      ],
      "stateMutability": "pure",
      "type": "function"
    },
    {
      "inputs": [
        {
          "internalType": "string",
          "name": "str1",
          "type": "string"
        },
        {
          "internalType": "string",
          "name": "str2",
          "type": "string"
        }
      ],
      "name": "compareStrings",
      "outputs": [
        {
          "internalType": "bool",
          "name": "",
          "type": "bool"
        }
      ],
      "stateMutability": "pure",
      "type": "function"
    }
  ],
  "bytecode": "0x610578610053600b82828239805160001a607314610046577f4e487b7100000000000000000000000000000000000000000000000000000000600052600060045260246000fd5b30600052607381538281f3fe73000000000000000000000000000000000000000030146080604052600436106100405760003560e01c8063bed34bba14610045578063f5ddf6df14610075575b600080fd5b61005f600480360381019061005a91906101a5565b6100a5565b60405161006c91906102c3565b60405180910390f35b61008f600480360381019061008a919061021d565b6100fe565b60405161009c91906102de565b60405180910390f35b6000816040516020016100b891906102ac565b60405160208183030381529060405280519060200120836040516020016100df91906102ac565b6040516020818303038152906040528051906020012014905092915050565b60008282606461010e9190610396565b6101189190610365565b905092915050565b600061013361012e8461031e565b6102f9565b90508281526020810184848401111561014f5761014e61050b565b5b61015a848285610406565b509392505050565b600082601f83011261017757610176610506565b5b8135610187848260208601610120565b91505092915050565b60008135905061019f8161052b565b92915050565b600080604083850312156101bc576101bb610515565b5b600083013567ffffffffffffffff8111156101da576101d9610510565b5b6101e685828601610162565b925050602083013567ffffffffffffffff81111561020757610206610510565b5b61021385828601610162565b9150509250929050565b6000806040838503121561023457610233610515565b5b600061024285828601610190565b925050602061025385828601610190565b9150509250929050565b610266816103f0565b82525050565b60006102778261034f565b610281818561035a565b9350610291818560208601610415565b80840191505092915050565b6102a6816103fc565b82525050565b60006102b8828461026c565b915081905092915050565b60006020820190506102d8600083018461025d565b92915050565b60006020820190506102f3600083018461029d565b92915050565b6000610303610314565b905061030f8282610448565b919050565b6000604051905090565b600067ffffffffffffffff821115610339576103386104d7565b5b6103428261051a565b9050602081019050919050565b600081519050919050565b600081905092915050565b6000610370826103fc565b915061037b836103fc565b92508261038b5761038a6104a8565b5b828204905092915050565b60006103a1826103fc565b91506103ac836103fc565b9250817fffffffffffffffffffffffffffffffffffffffffffffffffffffffffffffffff04831182151516156103e5576103e4610479565b5b828202905092915050565b60008115159050919050565b6000819050919050565b82818337600083830152505050565b60005b83811015610433578082015181840152602081019050610418565b83811115610442576000848401525b50505050565b6104518261051a565b810181811067ffffffffffffffff821117156104705761046f6104d7565b5b80604052505050565b7f4e487b7100000000000000000000000000000000000000000000000000000000600052601160045260246000fd5b7f4e487b7100000000000000000000000000000000000000000000000000000000600052601260045260246000fd5b7f4e487b7100000000000000000000000000000000000000000000000000000000600052604160045260246000fd5b600080fd5b600080fd5b600080fd5b600080fd5b6000601f19601f8301169050919050565b610534816103fc565b811461053f57600080fd5b5056fea2646970667358221220a931b2ed2f44089d5cf880430d72d59e13da4c6d1e281f65921f2a3d3736262f64736f6c63430008060033",
  "linkReferences": {},
  "deployedLinkReferences": {}
}