{
  "_format": "hh-sol-artifact-1",
  "contractName": "Assets",
  "sourceName": "contracts/Assets/Assets.sol",
  "abi": [
    {
      "inputs": [
        {
          "internalType": "contract Auth",
          "name": "_auth",
          "type": "address"
        }
      ],
      "stateMutability": "nonpayable",
      "type": "constructor"
    },
    {
      "anonymous": false,
      "inputs": [
        {
          "indexed": true,
          "internalType": "address",
          "name": "owner",
          "type": "address"
        },
        {
          "indexed": true,
          "internalType": "string",
          "name": "_asset_token",
          "type": "string"
        }
      ],
      "name": "AssetDeleted",
      "type": "event"
    },
    {
      "anonymous": false,
      "inputs": [
        {
          "indexed": true,
          "internalType": "address",
          "name": "owner",
          "type": "address"
        },
        {
          "indexed": true,
          "internalType": "uint256",
          "name": "id",
          "type": "uint256"
        }
      ],
      "name": "AssetEdited",
      "type": "event"
    },
    {
      "anonymous": false,
      "inputs": [
        {
          "indexed": true,
          "internalType": "address",
          "name": "owner",
          "type": "address"
        },
        {
          "indexed": true,
          "internalType": "uint256",
          "name": "id",
          "type": "uint256"
        }
      ],
      "name": "AssetSaved",
      "type": "event"
    },
    {
      "inputs": [
        {
          "internalType": "string",
          "name": "platform_token",
          "type": "string"
        },
        {
          "internalType": "uint256",
          "name": "_asset_id",
          "type": "uint256"
        }
      ],
      "name": "deleteAsset",
      "outputs": [
        {
          "internalType": "bool",
          "name": "",
          "type": "bool"
        }
      ],
      "stateMutability": "nonpayable",
      "type": "function"
    },
    {
      "inputs": [
        {
          "internalType": "string",
          "name": "platform_token",
          "type": "string"
        },
        {
          "components": [
            {
              "internalType": "uint256",
              "name": "id",
              "type": "uint256"
            },
            {
              "internalType": "string",
              "name": "title",
              "type": "string"
            },
            {
              "internalType": "string",
              "name": "asset",
              "type": "string"
            }
          ],
          "internalType": "struct Structs.Asset",
          "name": "_asset",
          "type": "tuple"
        }
      ],
      "name": "editAsset",
      "outputs": [
        {
          "internalType": "bool",
          "name": "",
          "type": "bool"
        }
      ],
      "stateMutability": "nonpayable",
      "type": "function"
    },
    {
      "inputs": [
        {
          "internalType": "string",
          "name": "platform_token",
          "type": "string"
        }
      ],
      "name": "fetchAsset",
      "outputs": [
        {
          "components": [
            {
              "internalType": "uint256",
              "name": "id",
              "type": "uint256"
            },
            {
              "internalType": "string",
              "name": "title",
              "type": "string"
            },
            {
              "internalType": "string",
              "name": "asset",
              "type": "string"
            }
          ],
          "internalType": "struct Structs.Asset[]",
          "name": "",
          "type": "tuple[]"
        }
      ],
      "stateMutability": "view",
      "type": "function"
    },
    {
      "inputs": [
        {
          "internalType": "string",
          "name": "platform_token",
          "type": "string"
        },
        {
          "components": [
            {
              "internalType": "uint256",
              "name": "id",
              "type": "uint256"
            },
            {
              "internalType": "string",
              "name": "title",
              "type": "string"
            },
            {
              "internalType": "string",
              "name": "asset",
              "type": "string"
            }
          ],
          "internalType": "struct Structs.Asset",
          "name": "_asset",
          "type": "tuple"
        }
      ],
      "name": "saveAsset",
      "outputs": [
        {
          "internalType": "bool",
          "name": "",
          "type": "bool"
        }
      ],
      "stateMutability": "nonpayable",
      "type": "function"
    }
  ],
  "bytecode": "0x60806040523480156200001157600080fd5b50604051620016b3380380620016b3833981810160405281019062000037919062000095565b806000806101000a81548173ffffffffffffffffffffffffffffffffffffffff021916908373ffffffffffffffffffffffffffffffffffffffff160217905550506200012e565b6000815190506200008f8162000114565b92915050565b600060208284031215620000ae57620000ad6200010f565b5b6000620000be848285016200007e565b91505092915050565b6000620000d482620000ef565b9050919050565b6000620000e882620000c7565b9050919050565b600073ffffffffffffffffffffffffffffffffffffffff82169050919050565b600080fd5b6200011f81620000db565b81146200012b57600080fd5b50565b611575806200013e6000396000f3fe608060405234801561001057600080fd5b506004361061004c5760003560e01c80630dbcca3d146100515780635887c8ad146100815780636414e3a8146100b1578063f0348a79146100e1575b600080fd5b61006b60048036038101906100669190610e9e565b610111565b6040516100789190611127565b60405180910390f35b61009b60048036038101906100969190610e55565b6103ab565b6040516100a89190611105565b60405180910390f35b6100cb60048036038101906100c69190610f16565b610667565b6040516100d89190611127565b60405180910390f35b6100fb60048036038101906100f69190610e9e565b610973565b6040516101089190611127565b60405180910390f35b60008260008054906101000a900473ffffffffffffffffffffffffffffffffffffffff1673ffffffffffffffffffffffffffffffffffffffff16638e81979a826040518263ffffffff1660e01b815260040161016d9190611142565b60206040518083038186803b15801561018557600080fd5b505afa158015610199573d6000803e3d6000fd5b505050506040513d601f19601f820116820180604052508101906101bd9190610e28565b6101fc576040517f08c379a00000000000000000000000000000000000000000000000000000000081526004016101f390611164565b60405180910390fd5b600160003373ffffffffffffffffffffffffffffffffffffffff1673ffffffffffffffffffffffffffffffffffffffff1681526020019081526020016000206040518060600160405280600160003373ffffffffffffffffffffffffffffffffffffffff1673ffffffffffffffffffffffffffffffffffffffff16815260200190815260200160002080549050815260200185602001518152602001856040015181525090806001815401808255809150506001900390600052602060002090600302016000909190919091506000820151816000015560208201518160010190805190602001906102ef929190610b82565b50604082015181600201908051906020019061030c929190610b82565b50505060018060003373ffffffffffffffffffffffffffffffffffffffff1673ffffffffffffffffffffffffffffffffffffffff1681526020019081526020016000208054905061035d9190611296565b3373ffffffffffffffffffffffffffffffffffffffff167f99933273ca35c5619651975f48d4015869f673b779f1732c6b0fb67e2fad09de60405160405180910390a3600191505092915050565b60608160008054906101000a900473ffffffffffffffffffffffffffffffffffffffff1673ffffffffffffffffffffffffffffffffffffffff16638e81979a826040518263ffffffff1660e01b81526004016104079190611142565b60206040518083038186803b15801561041f57600080fd5b505afa158015610433573d6000803e3d6000fd5b505050506040513d601f19601f820116820180604052508101906104579190610e28565b610496576040517f08c379a000000000000000000000000000000000000000000000000000000000815260040161048d90611164565b60405180910390fd5b6000600160003373ffffffffffffffffffffffffffffffffffffffff1673ffffffffffffffffffffffffffffffffffffffff168152602001908152602001600020805480602002602001604051908101604052809291908181526020016000905b8282101561065757838290600052602060002090600302016040518060600160405290816000820154815260200160018201805461053490611322565b80601f016020809104026020016040519081016040528092919081815260200182805461056090611322565b80156105ad5780601f10610582576101008083540402835291602001916105ad565b820191906000526020600020905b81548152906001019060200180831161059057829003601f168201915b505050505081526020016002820180546105c690611322565b80601f01602080910402602001604051908101604052809291908181526020018280546105f290611322565b801561063f5780601f106106145761010080835404028352916020019161063f565b820191906000526020600020905b81548152906001019060200180831161062257829003601f168201915b505050505081525050815260200190600101906104f7565b5050505090508092505050919050565b60008260008054906101000a900473ffffffffffffffffffffffffffffffffffffffff1673ffffffffffffffffffffffffffffffffffffffff16638e81979a826040518263ffffffff1660e01b81526004016106c39190611142565b60206040518083038186803b1580156106db57600080fd5b505afa1580156106ef573d6000803e3d6000fd5b505050506040513d601f19601f820116820180604052508101906107139190610e28565b610752576040517f08c379a000000000000000000000000000000000000000000000000000000000815260040161074990611164565b60405180910390fd5b60008390505b60018060003373ffffffffffffffffffffffffffffffffffffffff1673ffffffffffffffffffffffffffffffffffffffff168152602001908152602001600020805490506107a69190611296565b8110156108d757600160003373ffffffffffffffffffffffffffffffffffffffff1673ffffffffffffffffffffffffffffffffffffffff1681526020019081526020016000206001826107f99190611240565b8154811061080a5761080961145b565b5b9060005260206000209060030201600160003373ffffffffffffffffffffffffffffffffffffffff1673ffffffffffffffffffffffffffffffffffffffff16815260200190815260200160002082815481106108695761086861145b565b5b906000526020600020906003020160008201548160000155600182018160010190805461089590611322565b6108a0929190610c08565b5060028201816002019080546108b590611322565b6108c0929190610c08565b5090505080806108cf90611385565b915050610758565b50600160003373ffffffffffffffffffffffffffffffffffffffff1673ffffffffffffffffffffffffffffffffffffffff1681526020019081526020016000208054806109275761092661142c565b5b60019003818190600052602060002090600302016000808201600090556001820160006109549190610c95565b6002820160006109649190610c95565b50509055600191505092915050565b60008260008054906101000a900473ffffffffffffffffffffffffffffffffffffffff1673ffffffffffffffffffffffffffffffffffffffff16638e81979a826040518263ffffffff1660e01b81526004016109cf9190611142565b60206040518083038186803b1580156109e757600080fd5b505afa1580156109fb573d6000803e3d6000fd5b505050506040513d601f19601f82011682018060405250810190610a1f9190610e28565b610a5e576040517f08c379a0000000000000000000000000000000000000000000000000000000008152600401610a5590611164565b60405180910390fd5b604051806060016040528084600001518152602001846020015181526020018460400151815250600160003373ffffffffffffffffffffffffffffffffffffffff1673ffffffffffffffffffffffffffffffffffffffff168152602001908152602001600020846000015181548110610ada57610ad961145b565b5b9060005260206000209060030201600082015181600001556020820151816001019080519060200190610b0e929190610b82565b506040820151816002019080519060200190610b2b929190610b82565b5090505082600001513373ffffffffffffffffffffffffffffffffffffffff167f0f352c506c5af294ecfbc5e115222a54a13f09ac3f457d7883d72a90264f470e60405160405180910390a3600191505092915050565b828054610b8e90611322565b90600052602060002090601f016020900481019282610bb05760008555610bf7565b82601f10610bc957805160ff1916838001178555610bf7565b82800160010185558215610bf7579182015b82811115610bf6578251825591602001919060010190610bdb565b5b509050610c049190610cd5565b5090565b828054610c1490611322565b90600052602060002090601f016020900481019282610c365760008555610c84565b82601f10610c475780548555610c84565b82800160010185558215610c8457600052602060002091601f016020900482015b82811115610c83578254825591600101919060010190610c68565b5b509050610c919190610cd5565b5090565b508054610ca190611322565b6000825580601f10610cb35750610cd2565b601f016020900490600052602060002090810190610cd19190610cd5565b5b50565b5b80821115610cee576000816000905550600101610cd6565b5090565b6000610d05610d00846111a9565b611184565b905082815260208101848484011115610d2157610d206114c8565b5b610d2c8482856112e0565b509392505050565b600081519050610d4381611511565b92915050565b600082601f830112610d5e57610d5d6114b9565b5b8135610d6e848260208601610cf2565b91505092915050565b600060608284031215610d8d57610d8c6114be565b5b610d976060611184565b90506000610da784828501610e13565b600083015250602082013567ffffffffffffffff811115610dcb57610dca6114c3565b5b610dd784828501610d49565b602083015250604082013567ffffffffffffffff811115610dfb57610dfa6114c3565b5b610e0784828501610d49565b60408301525092915050565b600081359050610e2281611528565b92915050565b600060208284031215610e3e57610e3d6114d2565b5b6000610e4c84828501610d34565b91505092915050565b600060208284031215610e6b57610e6a6114d2565b5b600082013567ffffffffffffffff811115610e8957610e886114cd565b5b610e9584828501610d49565b91505092915050565b60008060408385031215610eb557610eb46114d2565b5b600083013567ffffffffffffffff811115610ed357610ed26114cd565b5b610edf85828601610d49565b925050602083013567ffffffffffffffff811115610f0057610eff6114cd565b5b610f0c85828601610d77565b9150509250929050565b60008060408385031215610f2d57610f2c6114d2565b5b600083013567ffffffffffffffff811115610f4b57610f4a6114cd565b5b610f5785828601610d49565b9250506020610f6885828601610e13565b9150509250929050565b6000610f7e838361109f565b905092915050565b6000610f91826111ea565b610f9b818561120d565b935083602082028501610fad856111da565b8060005b85811015610fe95784840389528151610fca8582610f72565b9450610fd583611200565b925060208a01995050600181019050610fb1565b50829750879550505050505092915050565b611004816112ca565b82525050565b6000611015826111f5565b61101f818561121e565b935061102f8185602086016112ef565b611038816114d7565b840191505092915050565b600061104e826111f5565b611058818561122f565b93506110688185602086016112ef565b611071816114d7565b840191505092915050565b6000611089600b8361122f565b9150611094826114e8565b602082019050919050565b60006060830160008301516110b760008601826110f6565b50602083015184820360208601526110cf828261100a565b915050604083015184820360408601526110e9828261100a565b9150508091505092915050565b6110ff816112d6565b82525050565b6000602082019050818103600083015261111f8184610f86565b905092915050565b600060208201905061113c6000830184610ffb565b92915050565b6000602082019050818103600083015261115c8184611043565b905092915050565b6000602082019050818103600083015261117d8161107c565b9050919050565b600061118e61119f565b905061119a8282611354565b919050565b6000604051905090565b600067ffffffffffffffff8211156111c4576111c361148a565b5b6111cd826114d7565b9050602081019050919050565b6000819050602082019050919050565b600081519050919050565b600081519050919050565b6000602082019050919050565b600082825260208201905092915050565b600082825260208201905092915050565b600082825260208201905092915050565b600061124b826112d6565b9150611256836112d6565b9250827fffffffffffffffffffffffffffffffffffffffffffffffffffffffffffffffff0382111561128b5761128a6113ce565b5b828201905092915050565b60006112a1826112d6565b91506112ac836112d6565b9250828210156112bf576112be6113ce565b5b828203905092915050565b60008115159050919050565b6000819050919050565b82818337600083830152505050565b60005b8381101561130d5780820151818401526020810190506112f2565b8381111561131c576000848401525b50505050565b6000600282049050600182168061133a57607f821691505b6020821081141561134e5761134d6113fd565b5b50919050565b61135d826114d7565b810181811067ffffffffffffffff8211171561137c5761137b61148a565b5b80604052505050565b6000611390826112d6565b91507fffffffffffffffffffffffffffffffffffffffffffffffffffffffffffffffff8214156113c3576113c26113ce565b5b600182019050919050565b7f4e487b7100000000000000000000000000000000000000000000000000000000600052601160045260246000fd5b7f4e487b7100000000000000000000000000000000000000000000000000000000600052602260045260246000fd5b7f4e487b7100000000000000000000000000000000000000000000000000000000600052603160045260246000fd5b7f4e487b7100000000000000000000000000000000000000000000000000000000600052603260045260246000fd5b7f4e487b7100000000000000000000000000000000000000000000000000000000600052604160045260246000fd5b600080fd5b600080fd5b600080fd5b600080fd5b600080fd5b600080fd5b6000601f19601f8301169050919050565b7f57726f6e6720746f6b656e000000000000000000000000000000000000000000600082015250565b61151a816112ca565b811461152557600080fd5b50565b611531816112d6565b811461153c57600080fd5b5056fea26469706673582212202fde57f33f00e1db15a118ee7849d5bb0c344931c99211d649706e05991489a564736f6c63430008060033",
  "linkReferences": {},
  "deployedLinkReferences": {}
}