{
  "_format": "hh-sol-artifact-1",
  "contractName": "Users",
  "sourceName": "contracts/Users/Users.sol",
  "abi": [
    {
      "inputs": [
        {
          "internalType": "contract Auth",
          "name": "_auth",
          "type": "address"
        }
      ],
      "stateMutability": "nonpayable",
      "type": "constructor"
    },
    {
      "anonymous": false,
      "inputs": [
        {
          "indexed": true,
          "internalType": "address",
          "name": "olduser",
          "type": "address"
        },
        {
          "indexed": true,
          "internalType": "address",
          "name": "new_user",
          "type": "address"
        }
      ],
      "name": "AccountRecovered",
      "type": "event"
    },
    {
      "anonymous": false,
      "inputs": [
        {
          "indexed": true,
          "internalType": "bytes32",
          "name": "role",
          "type": "bytes32"
        },
        {
          "indexed": true,
          "internalType": "bytes32",
          "name": "previousAdminRole",
          "type": "bytes32"
        },
        {
          "indexed": true,
          "internalType": "bytes32",
          "name": "newAdminRole",
          "type": "bytes32"
        }
      ],
      "name": "RoleAdminChanged",
      "type": "event"
    },
    {
      "anonymous": false,
      "inputs": [
        {
          "indexed": true,
          "internalType": "bytes32",
          "name": "role",
          "type": "bytes32"
        },
        {
          "indexed": true,
          "internalType": "address",
          "name": "account",
          "type": "address"
        },
        {
          "indexed": true,
          "internalType": "address",
          "name": "sender",
          "type": "address"
        }
      ],
      "name": "RoleGranted",
      "type": "event"
    },
    {
      "anonymous": false,
      "inputs": [
        {
          "indexed": true,
          "internalType": "bytes32",
          "name": "role",
          "type": "bytes32"
        },
        {
          "indexed": true,
          "internalType": "address",
          "name": "account",
          "type": "address"
        },
        {
          "indexed": true,
          "internalType": "address",
          "name": "sender",
          "type": "address"
        }
      ],
      "name": "RoleRevoked",
      "type": "event"
    },
    {
      "anonymous": false,
      "inputs": [
        {
          "indexed": true,
          "internalType": "address",
          "name": "user_address",
          "type": "address"
        }
      ],
      "name": "UserAccountEdited",
      "type": "event"
    },
    {
      "anonymous": false,
      "inputs": [
        {
          "indexed": true,
          "internalType": "address",
          "name": "user_address",
          "type": "address"
        }
      ],
      "name": "UserContactsUpdated",
      "type": "event"
    },
    {
      "anonymous": false,
      "inputs": [
        {
          "indexed": true,
          "internalType": "address",
          "name": "user_address",
          "type": "address"
        }
      ],
      "name": "UserCreated",
      "type": "event"
    },
    {
      "inputs": [],
      "name": "ADMIN",
      "outputs": [
        {
          "internalType": "bytes32",
          "name": "",
          "type": "bytes32"
        }
      ],
      "stateMutability": "view",
      "type": "function"
    },
    {
      "inputs": [],
      "name": "DEFAULT_ADMIN_ROLE",
      "outputs": [
        {
          "internalType": "bytes32",
          "name": "",
          "type": "bytes32"
        }
      ],
      "stateMutability": "view",
      "type": "function"
    },
    {
      "inputs": [],
      "name": "VALIDATOR",
      "outputs": [
        {
          "internalType": "bytes32",
          "name": "",
          "type": "bytes32"
        }
      ],
      "stateMutability": "view",
      "type": "function"
    },
    {
      "inputs": [
        {
          "internalType": "string",
          "name": "platform_token",
          "type": "string"
        },
        {
          "internalType": "enum Structs.SEARCH_TYPE",
          "name": "search_type",
          "type": "uint8"
        },
        {
          "internalType": "string[]",
          "name": "otp",
          "type": "string[]"
        },
        {
          "internalType": "string",
          "name": "search_string",
          "type": "string"
        }
      ],
      "name": "accountSearch",
      "outputs": [
        {
          "components": [
            {
              "internalType": "string",
              "name": "fullname",
              "type": "string"
            },
            {
              "internalType": "string",
              "name": "phone",
              "type": "string"
            },
            {
              "internalType": "string",
              "name": "email",
              "type": "string"
            },
            {
              "internalType": "address",
              "name": "wallet_addr",
              "type": "address"
            }
          ],
          "internalType": "struct Structs.FoundUser",
          "name": "",
          "type": "tuple"
        }
      ],
      "stateMutability": "nonpayable",
      "type": "function"
    },
    {
      "inputs": [
        {
          "internalType": "string",
          "name": "platform_token",
          "type": "string"
        },
        {
          "components": [
            {
              "internalType": "uint256",
              "name": "id",
              "type": "uint256"
            },
            {
              "internalType": "string",
              "name": "name",
              "type": "string"
            },
            {
              "internalType": "string",
              "name": "email",
              "type": "string"
            },
            {
              "internalType": "string",
              "name": "phone",
              "type": "string"
            },
            {
              "internalType": "string",
              "name": "country",
              "type": "string"
            },
            {
              "internalType": "string",
              "name": "relationship",
              "type": "string"
            }
          ],
          "internalType": "struct Structs.Contact[]",
          "name": "contacts",
          "type": "tuple[]"
        }
      ],
      "name": "addContact",
      "outputs": [
        {
          "internalType": "bool",
          "name": "",
          "type": "bool"
        }
      ],
      "stateMutability": "nonpayable",
      "type": "function"
    },
    {
      "inputs": [
        {
          "internalType": "string",
          "name": "platform_token",
          "type": "string"
        },
        {
          "components": [
            {
              "internalType": "uint256",
              "name": "id",
              "type": "uint256"
            },
            {
              "internalType": "string",
              "name": "name",
              "type": "string"
            },
            {
              "internalType": "string",
              "name": "email",
              "type": "string"
            },
            {
              "internalType": "string",
              "name": "phone",
              "type": "string"
            },
            {
              "internalType": "string",
              "name": "country",
              "type": "string"
            },
            {
              "internalType": "string",
              "name": "relationship",
              "type": "string"
            }
          ],
          "internalType": "struct Structs.NextOfKin",
          "name": "nextOfKin",
          "type": "tuple"
        }
      ],
      "name": "addNextOfKin",
      "outputs": [
        {
          "internalType": "bool",
          "name": "",
          "type": "bool"
        }
      ],
      "stateMutability": "nonpayable",
      "type": "function"
    },
    {
      "inputs": [
        {
          "internalType": "address",
          "name": "user_address",
          "type": "address"
        }
      ],
      "name": "contactCount",
      "outputs": [
        {
          "internalType": "uint256",
          "name": "",
          "type": "uint256"
        }
      ],
      "stateMutability": "view",
      "type": "function"
    },
    {
      "inputs": [
        {
          "internalType": "string",
          "name": "platform_token",
          "type": "string"
        },
        {
          "components": [
            {
              "internalType": "uint256",
              "name": "id",
              "type": "uint256"
            },
            {
              "internalType": "address",
              "name": "wallet_addr",
              "type": "address"
            },
            {
              "internalType": "string",
              "name": "account_token",
              "type": "string"
            },
            {
              "internalType": "string",
              "name": "fullname",
              "type": "string"
            },
            {
              "internalType": "string",
              "name": "avatar",
              "type": "string"
            },
            {
              "internalType": "string",
              "name": "email",
              "type": "string"
            },
            {
              "internalType": "string",
              "name": "phone",
              "type": "string"
            },
            {
              "internalType": "string",
              "name": "country",
              "type": "string"
            },
            {
              "internalType": "string",
              "name": "street_address",
              "type": "string"
            },
            {
              "internalType": "uint256",
              "name": "last_activity",
              "type": "uint256"
            },
            {
              "internalType": "string",
              "name": "others",
              "type": "string"
            }
          ],
          "internalType": "struct Structs.User",
          "name": "new_user",
          "type": "tuple"
        }
      ],
      "name": "createAccount",
      "outputs": [
        {
          "internalType": "bool",
          "name": "",
          "type": "bool"
        }
      ],
      "stateMutability": "nonpayable",
      "type": "function"
    },
    {
      "inputs": [
        {
          "internalType": "string",
          "name": "platform_token",
          "type": "string"
        },
        {
          "components": [
            {
              "internalType": "uint256",
              "name": "id",
              "type": "uint256"
            },
            {
              "internalType": "address",
              "name": "wallet_addr",
              "type": "address"
            },
            {
              "internalType": "string",
              "name": "account_token",
              "type": "string"
            },
            {
              "internalType": "string",
              "name": "fullname",
              "type": "string"
            },
            {
              "internalType": "string",
              "name": "avatar",
              "type": "string"
            },
            {
              "internalType": "string",
              "name": "email",
              "type": "string"
            },
            {
              "internalType": "string",
              "name": "phone",
              "type": "string"
            },
            {
              "internalType": "string",
              "name": "country",
              "type": "string"
            },
            {
              "internalType": "string",
              "name": "street_address",
              "type": "string"
            },
            {
              "internalType": "uint256",
              "name": "last_activity",
              "type": "uint256"
            },
            {
              "internalType": "string",
              "name": "others",
              "type": "string"
            }
          ],
          "internalType": "struct Structs.User",
          "name": "edited_user",
          "type": "tuple"
        }
      ],
      "name": "editAccount",
      "outputs": [
        {
          "internalType": "bool",
          "name": "",
          "type": "bool"
        }
      ],
      "stateMutability": "nonpayable",
      "type": "function"
    },
    {
      "inputs": [
        {
          "internalType": "string",
          "name": "platform_token",
          "type": "string"
        }
      ],
      "name": "fetchUserData",
      "outputs": [
        {
          "components": [
            {
              "internalType": "uint256",
              "name": "id",
              "type": "uint256"
            },
            {
              "internalType": "address",
              "name": "wallet_addr",
              "type": "address"
            },
            {
              "internalType": "string",
              "name": "account_token",
              "type": "string"
            },
            {
              "internalType": "string",
              "name": "fullname",
              "type": "string"
            },
            {
              "internalType": "string",
              "name": "avatar",
              "type": "string"
            },
            {
              "internalType": "string",
              "name": "email",
              "type": "string"
            },
            {
              "internalType": "string",
              "name": "phone",
              "type": "string"
            },
            {
              "internalType": "string",
              "name": "country",
              "type": "string"
            },
            {
              "internalType": "string",
              "name": "street_address",
              "type": "string"
            },
            {
              "internalType": "uint256",
              "name": "last_activity",
              "type": "uint256"
            },
            {
              "internalType": "string",
              "name": "others",
              "type": "string"
            }
          ],
          "internalType": "struct Structs.User",
          "name": "",
          "type": "tuple"
        },
        {
          "components": [
            {
              "internalType": "uint256",
              "name": "id",
              "type": "uint256"
            },
            {
              "internalType": "string",
              "name": "name",
              "type": "string"
            },
            {
              "internalType": "string",
              "name": "email",
              "type": "string"
            },
            {
              "internalType": "string",
              "name": "phone",
              "type": "string"
            },
            {
              "internalType": "string",
              "name": "country",
              "type": "string"
            },
            {
              "internalType": "string",
              "name": "relationship",
              "type": "string"
            }
          ],
          "internalType": "struct Structs.NextOfKin",
          "name": "",
          "type": "tuple"
        },
        {
          "components": [
            {
              "internalType": "uint256",
              "name": "id",
              "type": "uint256"
            },
            {
              "internalType": "string",
              "name": "name",
              "type": "string"
            },
            {
              "internalType": "string",
              "name": "email",
              "type": "string"
            },
            {
              "internalType": "string",
              "name": "phone",
              "type": "string"
            },
            {
              "internalType": "string",
              "name": "country",
              "type": "string"
            },
            {
              "internalType": "string",
              "name": "relationship",
              "type": "string"
            }
          ],
          "internalType": "struct Structs.Contact[]",
          "name": "",
          "type": "tuple[]"
        }
      ],
      "stateMutability": "nonpayable",
      "type": "function"
    },
    {
      "inputs": [
        {
          "internalType": "bytes32",
          "name": "role",
          "type": "bytes32"
        }
      ],
      "name": "getRoleAdmin",
      "outputs": [
        {
          "internalType": "bytes32",
          "name": "",
          "type": "bytes32"
        }
      ],
      "stateMutability": "view",
      "type": "function"
    },
    {
      "inputs": [
        {
          "internalType": "bytes32",
          "name": "role",
          "type": "bytes32"
        },
        {
          "internalType": "address",
          "name": "account",
          "type": "address"
        }
      ],
      "name": "grantRole",
      "outputs": [],
      "stateMutability": "nonpayable",
      "type": "function"
    },
    {
      "inputs": [
        {
          "internalType": "bytes32",
          "name": "role",
          "type": "bytes32"
        },
        {
          "internalType": "address",
          "name": "account",
          "type": "address"
        }
      ],
      "name": "hasRole",
      "outputs": [
        {
          "internalType": "bool",
          "name": "",
          "type": "bool"
        }
      ],
      "stateMutability": "view",
      "type": "function"
    },
    {
      "inputs": [
        {
          "internalType": "string",
          "name": "platform_token",
          "type": "string"
        },
        {
          "internalType": "address",
          "name": "old_wallet_addr",
          "type": "address"
        },
        {
          "internalType": "string[]",
          "name": "otps",
          "type": "string[]"
        }
      ],
      "name": "recoverAccount",
      "outputs": [
        {
          "internalType": "bool",
          "name": "",
          "type": "bool"
        }
      ],
      "stateMutability": "nonpayable",
      "type": "function"
    },
    {
      "inputs": [
        {
          "internalType": "string",
          "name": "platform_token",
          "type": "string"
        },
        {
          "internalType": "address",
          "name": "old_wallet_addr",
          "type": "address"
        }
      ],
      "name": "recoverAccountByNextOfKin",
      "outputs": [
        {
          "internalType": "bool",
          "name": "",
          "type": "bool"
        }
      ],
      "stateMutability": "nonpayable",
      "type": "function"
    },
    {
      "inputs": [
        {
          "internalType": "bytes32",
          "name": "role",
          "type": "bytes32"
        },
        {
          "internalType": "address",
          "name": "account",
          "type": "address"
        }
      ],
      "name": "renounceRole",
      "outputs": [],
      "stateMutability": "nonpayable",
      "type": "function"
    },
    {
      "inputs": [
        {
          "internalType": "bytes32",
          "name": "role",
          "type": "bytes32"
        },
        {
          "internalType": "address",
          "name": "account",
          "type": "address"
        }
      ],
      "name": "revokeRole",
      "outputs": [],
      "stateMutability": "nonpayable",
      "type": "function"
    },
    {
      "inputs": [
        {
          "internalType": "bytes4",
          "name": "interfaceId",
          "type": "bytes4"
        }
      ],
      "name": "supportsInterface",
      "outputs": [
        {
          "internalType": "bool",
          "name": "",
          "type": "bool"
        }
      ],
      "stateMutability": "view",
      "type": "function"
    },
    {
      "inputs": [
        {
          "internalType": "string",
          "name": "platform_token",
          "type": "string"
        },
        {
          "internalType": "string",
          "name": "email",
          "type": "string"
        },
        {
          "internalType": "string",
          "name": "phone",
          "type": "string"
        }
      ],
      "name": "updateContacts",
      "outputs": [
        {
          "internalType": "bool",
          "name": "",
          "type": "bool"
        }
      ],
      "stateMutability": "nonpayable",
      "type": "function"
    },
    {
      "inputs": [],
      "name": "userCount",
      "outputs": [
        {
          "internalType": "uint256",
          "name": "",
          "type": "uint256"
        }
      ],
      "stateMutability": "view",
      "type": "function"
    }
  ],
  "bytecode": "0x60806040523480156200001157600080fd5b5060405162005e0538038062005e05833981810160405281019062000037919062000224565b80600160006101000a81548173ffffffffffffffffffffffffffffffffffffffff021916908373ffffffffffffffffffffffffffffffffffffffff1602179055506200008d6000801b336200009460201b60201c565b50620002bd565b620000a68282620000aa60201b60201c565b5050565b620000bc82826200019b60201b60201c565b6200019757600160008084815260200190815260200160002060000160008373ffffffffffffffffffffffffffffffffffffffff1673ffffffffffffffffffffffffffffffffffffffff16815260200190815260200160002060006101000a81548160ff0219169083151502179055506200013c6200020560201b60201c565b73ffffffffffffffffffffffffffffffffffffffff168173ffffffffffffffffffffffffffffffffffffffff16837f2f8788117e7eff1d82e926ec794901d17c78024a50270940304540a733656f0d60405160405180910390a45b5050565b600080600084815260200190815260200160002060000160008373ffffffffffffffffffffffffffffffffffffffff1673ffffffffffffffffffffffffffffffffffffffff16815260200190815260200160002060009054906101000a900460ff16905092915050565b600033905090565b6000815190506200021e81620002a3565b92915050565b6000602082840312156200023d576200023c6200029e565b5b60006200024d848285016200020d565b91505092915050565b600062000263826200027e565b9050919050565b6000620002778262000256565b9050919050565b600073ffffffffffffffffffffffffffffffffffffffff82169050919050565b600080fd5b620002ae816200026a565b8114620002ba57600080fd5b50565b615b3880620002cd6000396000f3fe608060405234801561001057600080fd5b506004361061012c5760003560e01c8063918ba311116100ad578063b882697f11610071578063b882697f14610393578063d547741f146103c3578063dd351fb3146103df578063f5f5c7c21461040f578063fb2c36bc1461043f5761012c565b8063918ba311146102b357806391d14854146102e5578063a217fddf14610315578063acf0412614610333578063b2a26971146103635761012c565b806336568abe116100f457806336568abe146101e9578063393df8cb14610205578063474ccffa1461022357806372b6294c146102535780638157bcc5146102835761012c565b806301ffc9a71461013157806307973ccf14610161578063248a9ca31461017f5780632a0acc6a146101af5780632f2ff15d146101cd575b600080fd5b61014b600480360381019061014691906143ef565b61046f565b604051610158919061516d565b60405180910390f35b6101696104e9565b6040516101769190615412565b60405180910390f35b61019960048036038101906101949190614382565b6104ef565b6040516101a69190615188565b60405180910390f35b6101b761050e565b6040516101c49190615188565b60405180910390f35b6101e760048036038101906101e291906143af565b610532565b005b61020360048036038101906101fe91906143af565b610553565b005b61020d6105d6565b60405161021a9190615188565b60405180910390f35b61023d6004803603810190610238919061479e565b6105fa565b60405161024a919061516d565b60405180910390f35b61026d60048036038101906102689190614465565b610927565b60405161027a919061516d565b60405180910390f35b61029d600480360381019061029891906145c4565b610b0d565b6040516102aa919061534a565b60405180910390f35b6102cd60048036038101906102c8919061441c565b611e9c565b6040516102dc939291906153c6565b60405180910390f35b6102ff60048036038101906102fa91906143af565b612042565b60405161030c919061516d565b60405180910390f35b61031d6120ac565b60405161032a9190615188565b60405180910390f35b61034d60048036038101906103489190614726565b6120b3565b60405161035a919061516d565b60405180910390f35b61037d6004803603810190610378919061454c565b612291565b60405161038a919061516d565b60405180910390f35b6103ad60048036038101906103a891906144c1565b612561565b6040516103ba919061516d565b60405180910390f35b6103dd60048036038101906103d891906143af565b61298d565b005b6103f960048036038101906103f49190614328565b6129ae565b6040516104069190615412565b60405180910390f35b6104296004803603810190610424919061467f565b6129fa565b604051610436919061516d565b60405180910390f35b6104596004803603810190610454919061479e565b612bec565b604051610466919061516d565b60405180910390f35b60007f7965db0b000000000000000000000000000000000000000000000000000000007bffffffffffffffffffffffffffffffffffffffffffffffffffffffff1916827bffffffffffffffffffffffffffffffffffffffffffffffffffffffff191614806104e257506104e182612e9d565b5b9050919050565b60045481565b6000806000838152602001908152602001600020600101549050919050565b7fdf8b4c520ffe197c5343c6f5aec59570151ef9a492f2c624fd45ddde6135ec4281565b61053b826104ef565b61054481612f07565b61054e8383612f1b565b505050565b61055b612ffb565b73ffffffffffffffffffffffffffffffffffffffff168173ffffffffffffffffffffffffffffffffffffffff16146105c8576040517f08c379a00000000000000000000000000000000000000000000000000000000081526004016105bf9061532a565b60405180910390fd5b6105d28282613003565b5050565b7fa95257aebefccffaada4758f028bce81ea992693be70592f620c4c9a0d9e715a81565b60003382604001516001600260008473ffffffffffffffffffffffffffffffffffffffff1673ffffffffffffffffffffffffffffffffffffffff16815260200190815260200160002060030180546106519061571d565b905010610693576040517f08c379a000000000000000000000000000000000000000000000000000000000815260040161068a906152ca565b60405180910390fd5b600073ffffffffffffffffffffffffffffffffffffffff166007826040516106bb91906150bb565b908152602001604051809103902060009054906101000a900473ffffffffffffffffffffffffffffffffffffffff1673ffffffffffffffffffffffffffffffffffffffff1614610740576040517f08c379a00000000000000000000000000000000000000000000000000000000081526004016107379061530a565b60405180910390fd5b84600160009054906101000a900473ffffffffffffffffffffffffffffffffffffffff1673ffffffffffffffffffffffffffffffffffffffff16638e81979a826040518263ffffffff1660e01b815260040161079c91906151da565b60206040518083038186803b1580156107b457600080fd5b505afa1580156107c8573d6000803e3d6000fd5b505050506040513d601f19601f820116820180604052508101906107ec9190614355565b61082b576040517f08c379a00000000000000000000000000000000000000000000000000000000081526004016108229061528a565b60405180910390fd5b600073__$0689fb7d66acb0fc11d309c95fd59dd4bb$__63b39efde1876002600360076004600081548092919061086190615780565b919050556040518663ffffffff1660e01b815260040161088595949392919061536c565b60206040518083038186803b15801561089d57600080fd5b505af41580156108b1573d6000803e3d6000fd5b505050506040513d601f19601f820116820180604052508101906108d59190614355565b90503373ffffffffffffffffffffffffffffffffffffffff167f0b0376a109cbb578b709f85f6a7befcdac3ac1ab251c99ede87f30c9572ac4d360405160405180910390a28094505050505092915050565b600082600160009054906101000a900473ffffffffffffffffffffffffffffffffffffffff1673ffffffffffffffffffffffffffffffffffffffff16638e81979a826040518263ffffffff1660e01b815260040161098591906151da565b60206040518083038186803b15801561099d57600080fd5b505afa1580156109b1573d6000803e3d6000fd5b505050506040513d601f19601f820116820180604052508101906109d59190614355565b610a14576040517f08c379a0000000000000000000000000000000000000000000000000000000008152600401610a0b9061528a565b60405180910390fd5b3373ffffffffffffffffffffffffffffffffffffffff168373ffffffffffffffffffffffffffffffffffffffff167ff3c2cfcba78dedc0396d1efe1de1c5eefff973232934298197de8aedfa69f3bd60405160405180910390a373__$0689fb7d66acb0fc11d309c95fd59dd4bb$__6351b3875f84600260036005600660076040518763ffffffff1660e01b8152600401610ab49695949392919061510c565b60206040518083038186803b158015610acc57600080fd5b505af4158015610ae0573d6000803e3d6000fd5b505050506040513d601f19601f82011682018060405250810190610b049190614355565b91505092915050565b610b15613406565b84600160009054906101000a900473ffffffffffffffffffffffffffffffffffffffff1673ffffffffffffffffffffffffffffffffffffffff16638e81979a826040518263ffffffff1660e01b8152600401610b7191906151da565b60206040518083038186803b158015610b8957600080fd5b505afa158015610b9d573d6000803e3d6000fd5b505050506040513d601f19601f82011682018060405250810190610bc19190614355565b610c00576040517f08c379a0000000000000000000000000000000000000000000000000000000008152600401610bf79061528a565b60405180910390fd5b83600860003373ffffffffffffffffffffffffffffffffffffffff1673ffffffffffffffffffffffffffffffffffffffff1681526020019081526020016000209080519060200190610c53929190613444565b50610c5c613406565b60006002811115610c7057610c6f6157f8565b5b866002811115610c8357610c826157f8565b5b14156112e057600060026000600787604051610c9f91906150bb565b908152602001604051809103902060009054906101000a900473ffffffffffffffffffffffffffffffffffffffff1673ffffffffffffffffffffffffffffffffffffffff1673ffffffffffffffffffffffffffffffffffffffff16815260200190815260200160002060405180610160016040529081600082015481526020016001820160009054906101000a900473ffffffffffffffffffffffffffffffffffffffff1673ffffffffffffffffffffffffffffffffffffffff1673ffffffffffffffffffffffffffffffffffffffff168152602001600282018054610d849061571d565b80601f0160208091040260200160405190810160405280929190818152602001828054610db09061571d565b8015610dfd5780601f10610dd257610100808354040283529160200191610dfd565b820191906000526020600020905b815481529060010190602001808311610de057829003601f168201915b50505050508152602001600382018054610e169061571d565b80601f0160208091040260200160405190810160405280929190818152602001828054610e429061571d565b8015610e8f5780601f10610e6457610100808354040283529160200191610e8f565b820191906000526020600020905b815481529060010190602001808311610e7257829003601f168201915b50505050508152602001600482018054610ea89061571d565b80601f0160208091040260200160405190810160405280929190818152602001828054610ed49061571d565b8015610f215780601f10610ef657610100808354040283529160200191610f21565b820191906000526020600020905b815481529060010190602001808311610f0457829003601f168201915b50505050508152602001600582018054610f3a9061571d565b80601f0160208091040260200160405190810160405280929190818152602001828054610f669061571d565b8015610fb35780601f10610f8857610100808354040283529160200191610fb3565b820191906000526020600020905b815481529060010190602001808311610f9657829003601f168201915b50505050508152602001600682018054610fcc9061571d565b80601f0160208091040260200160405190810160405280929190818152602001828054610ff89061571d565b80156110455780601f1061101a57610100808354040283529160200191611045565b820191906000526020600020905b81548152906001019060200180831161102857829003601f168201915b5050505050815260200160078201805461105e9061571d565b80601f016020809104026020016040519081016040528092919081815260200182805461108a9061571d565b80156110d75780601f106110ac576101008083540402835291602001916110d7565b820191906000526020600020905b8154815290600101906020018083116110ba57829003601f168201915b505050505081526020016008820180546110f09061571d565b80601f016020809104026020016040519081016040528092919081815260200182805461111c9061571d565b80156111695780601f1061113e57610100808354040283529160200191611169565b820191906000526020600020905b81548152906001019060200180831161114c57829003601f168201915b5050505050815260200160098201548152602001600a8201805461118c9061571d565b80601f01602080910402602001604051908101604052809291908181526020018280546111b89061571d565b80156112055780601f106111da57610100808354040283529160200191611205565b820191906000526020600020905b8154815290600101906020018083116111e857829003601f168201915b5050505050815250509050600073ffffffffffffffffffffffffffffffffffffffff1660078660405161123891906150bb565b908152602001604051809103902060009054906101000a900473ffffffffffffffffffffffffffffffffffffffff1673ffffffffffffffffffffffffffffffffffffffff16141561128d578193505050611e93565b6040518060800160405280826060015181526020018260c0015181526020018260a001518152602001826020015173ffffffffffffffffffffffffffffffffffffffff1681525091508193505050611e93565b600160028111156112f4576112f36157f8565b5b866002811115611307576113066157f8565b5b14156118d25760005b6003805490508110156118c8576000600260006003848154811061133757611336615856565b5b9060005260206000200160009054906101000a900473ffffffffffffffffffffffffffffffffffffffff1673ffffffffffffffffffffffffffffffffffffffff1673ffffffffffffffffffffffffffffffffffffffff16815260200190815260200160002060050180546113aa9061571d565b80601f01602080910402602001604051908101604052809291908181526020018280546113d69061571d565b80156114235780601f106113f857610100808354040283529160200191611423565b820191906000526020600020905b81548152906001019060200180831161140657829003601f168201915b5050505050905073__$63b3866c7ad69c9b67104bce93fa94acc6$__63bed34bba82886040518363ffffffff1660e01b81526004016114639291906151fc565b60206040518083038186803b15801561147b57600080fd5b505af415801561148f573d6000803e3d6000fd5b505050506040513d601f19601f820116820180604052508101906114b39190614355565b156118b457604051806080016040528060026000600386815481106114db576114da615856565b5b9060005260206000200160009054906101000a900473ffffffffffffffffffffffffffffffffffffffff1673ffffffffffffffffffffffffffffffffffffffff1673ffffffffffffffffffffffffffffffffffffffff168152602001908152602001600020600301805461154e9061571d565b80601f016020809104026020016040519081016040528092919081815260200182805461157a9061571d565b80156115c75780601f1061159c576101008083540402835291602001916115c7565b820191906000526020600020905b8154815290600101906020018083116115aa57829003601f168201915b5050505050815260200160026000600386815481106115e9576115e8615856565b5b9060005260206000200160009054906101000a900473ffffffffffffffffffffffffffffffffffffffff1673ffffffffffffffffffffffffffffffffffffffff1673ffffffffffffffffffffffffffffffffffffffff168152602001908152602001600020600601805461165c9061571d565b80601f01602080910402602001604051908101604052809291908181526020018280546116889061571d565b80156116d55780601f106116aa576101008083540402835291602001916116d5565b820191906000526020600020905b8154815290600101906020018083116116b857829003601f168201915b5050505050815260200160026000600386815481106116f7576116f6615856565b5b9060005260206000200160009054906101000a900473ffffffffffffffffffffffffffffffffffffffff1673ffffffffffffffffffffffffffffffffffffffff1673ffffffffffffffffffffffffffffffffffffffff168152602001908152602001600020600501805461176a9061571d565b80601f01602080910402602001604051908101604052809291908181526020018280546117969061571d565b80156117e35780601f106117b8576101008083540402835291602001916117e3565b820191906000526020600020905b8154815290600101906020018083116117c657829003601f168201915b50505050508152602001600260006003868154811061180557611804615856565b5b9060005260206000200160009054906101000a900473ffffffffffffffffffffffffffffffffffffffff1673ffffffffffffffffffffffffffffffffffffffff1673ffffffffffffffffffffffffffffffffffffffff16815260200190815260200160002060010160009054906101000a900473ffffffffffffffffffffffffffffffffffffffff1673ffffffffffffffffffffffffffffffffffffffff168152509250829450505050611e93565b5080806118c090615780565b915050611310565b5080925050611e93565b60005b600380549050811015611e8d57600060026000600384815481106118fc576118fb615856565b5b9060005260206000200160009054906101000a900473ffffffffffffffffffffffffffffffffffffffff1673ffffffffffffffffffffffffffffffffffffffff1673ffffffffffffffffffffffffffffffffffffffff168152602001908152602001600020600601805461196f9061571d565b80601f016020809104026020016040519081016040528092919081815260200182805461199b9061571d565b80156119e85780601f106119bd576101008083540402835291602001916119e8565b820191906000526020600020905b8154815290600101906020018083116119cb57829003601f168201915b5050505050905073__$63b3866c7ad69c9b67104bce93fa94acc6$__63bed34bba82886040518363ffffffff1660e01b8152600401611a289291906151fc565b60206040518083038186803b158015611a4057600080fd5b505af4158015611a54573d6000803e3d6000fd5b505050506040513d601f19601f82011682018060405250810190611a789190614355565b15611e795760405180608001604052806002600060038681548110611aa057611a9f615856565b5b9060005260206000200160009054906101000a900473ffffffffffffffffffffffffffffffffffffffff1673ffffffffffffffffffffffffffffffffffffffff1673ffffffffffffffffffffffffffffffffffffffff1681526020019081526020016000206003018054611b139061571d565b80601f0160208091040260200160405190810160405280929190818152602001828054611b3f9061571d565b8015611b8c5780601f10611b6157610100808354040283529160200191611b8c565b820191906000526020600020905b815481529060010190602001808311611b6f57829003601f168201915b505050505081526020016002600060038681548110611bae57611bad615856565b5b9060005260206000200160009054906101000a900473ffffffffffffffffffffffffffffffffffffffff1673ffffffffffffffffffffffffffffffffffffffff1673ffffffffffffffffffffffffffffffffffffffff1681526020019081526020016000206006018054611c219061571d565b80601f0160208091040260200160405190810160405280929190818152602001828054611c4d9061571d565b8015611c9a5780601f10611c6f57610100808354040283529160200191611c9a565b820191906000526020600020905b815481529060010190602001808311611c7d57829003601f168201915b505050505081526020016002600060038681548110611cbc57611cbb615856565b5b9060005260206000200160009054906101000a900473ffffffffffffffffffffffffffffffffffffffff1673ffffffffffffffffffffffffffffffffffffffff1673ffffffffffffffffffffffffffffffffffffffff1681526020019081526020016000206005018054611d2f9061571d565b80601f0160208091040260200160405190810160405280929190818152602001828054611d5b9061571d565b8015611da85780601f10611d7d57610100808354040283529160200191611da8565b820191906000526020600020905b815481529060010190602001808311611d8b57829003601f168201915b505050505081526020016002600060038681548110611dca57611dc9615856565b5b9060005260206000200160009054906101000a900473ffffffffffffffffffffffffffffffffffffffff1673ffffffffffffffffffffffffffffffffffffffff1673ffffffffffffffffffffffffffffffffffffffff16815260200190815260200160002060010160009054906101000a900473ffffffffffffffffffffffffffffffffffffffff1673ffffffffffffffffffffffffffffffffffffffff168152509250829450505050611e93565b508080611e8590615780565b9150506118d5565b50809250505b50949350505050565b611ea46134a4565b611eac613514565b606083600160009054906101000a900473ffffffffffffffffffffffffffffffffffffffff1673ffffffffffffffffffffffffffffffffffffffff16638e81979a826040518263ffffffff1660e01b8152600401611f0a91906151da565b60206040518083038186803b158015611f2257600080fd5b505afa158015611f36573d6000803e3d6000fd5b505050506040513d601f19601f82011682018060405250810190611f5a9190614355565b611f99576040517f08c379a0000000000000000000000000000000000000000000000000000000008152600401611f909061528a565b60405180910390fd5b611fa16130e4565b73__$0689fb7d66acb0fc11d309c95fd59dd4bb$__63a3af90216002600660056040518463ffffffff1660e01b8152600401611fdf939291906151a3565b60006040518083038186803b158015611ff757600080fd5b505af415801561200b573d6000803e3d6000fd5b505050506040513d6000823e3d601f19601f820116820180604052508101906120349190614816565b935093509350509193909250565b600080600084815260200190815260200160002060000160008373ffffffffffffffffffffffffffffffffffffffff1673ffffffffffffffffffffffffffffffffffffffff16815260200190815260200160002060009054906101000a900460ff16905092915050565b6000801b81565b600082600160009054906101000a900473ffffffffffffffffffffffffffffffffffffffff1673ffffffffffffffffffffffffffffffffffffffff16638e81979a826040518263ffffffff1660e01b815260040161211191906151da565b60206040518083038186803b15801561212957600080fd5b505afa15801561213d573d6000803e3d6000fd5b505050506040513d601f19601f820116820180604052508101906121619190614355565b6121a0576040517f08c379a00000000000000000000000000000000000000000000000000000000081526004016121979061528a565b60405180910390fd5b82600660003373ffffffffffffffffffffffffffffffffffffffff1673ffffffffffffffffffffffffffffffffffffffff16815260200190815260200160002060008201518160000155602082015181600101908051906020019061220692919061354a565b50604082015181600201908051906020019061222392919061354a565b50606082015181600301908051906020019061224092919061354a565b50608082015181600401908051906020019061225d92919061354a565b5060a082015181600501908051906020019061227a92919061354a565b509050506122866130e4565b600191505092915050565b600082600160009054906101000a900473ffffffffffffffffffffffffffffffffffffffff1673ffffffffffffffffffffffffffffffffffffffff16638e81979a826040518263ffffffff1660e01b81526004016122ef91906151da565b60206040518083038186803b15801561230757600080fd5b505afa15801561231b573d6000803e3d6000fd5b505050506040513d601f19601f8201168201806040525081019061233f9190614355565b61237e576040517f08c379a00000000000000000000000000000000000000000000000000000000081526004016123759061528a565b60405180910390fd5b6003835110156123c3576040517f08c379a00000000000000000000000000000000000000000000000000000000081526004016123ba906152ea565b60405180910390fd5b600560003373ffffffffffffffffffffffffffffffffffffffff1673ffffffffffffffffffffffffffffffffffffffff168152602001908152602001600020600061240e91906135d0565b60005b835181101561254d57600560003373ffffffffffffffffffffffffffffffffffffffff1673ffffffffffffffffffffffffffffffffffffffff16815260200190815260200160002084828151811061246c5761246b615856565b5b602002602001015190806001815401808255809150506001900390600052602060002090600602016000909190919091506000820151816000015560208201518160010190805190602001906124c392919061354a565b5060408201518160020190805190602001906124e092919061354a565b5060608201518160030190805190602001906124fd92919061354a565b50608082015181600401908051906020019061251a92919061354a565b5060a082015181600501908051906020019061253792919061354a565b505050808061254590615780565b915050612411565b506125566130e4565b600191505092915050565b600083600160009054906101000a900473ffffffffffffffffffffffffffffffffffffffff1673ffffffffffffffffffffffffffffffffffffffff16638e81979a826040518263ffffffff1660e01b81526004016125bf91906151da565b60206040518083038186803b1580156125d757600080fd5b505afa1580156125eb573d6000803e3d6000fd5b505050506040513d601f19601f8201168201806040525081019061260f9190614355565b61264e576040517f08c379a00000000000000000000000000000000000000000000000000000000081526004016126459061528a565b60405180910390fd5b73__$63b3866c7ad69c9b67104bce93fa94acc6$__63bed34bba8460008151811061267c5761267b615856565b5b6020026020010151600860003373ffffffffffffffffffffffffffffffffffffffff1673ffffffffffffffffffffffffffffffffffffffff1681526020019081526020016000206000815481106126d6576126d5615856565b5b906000526020600020016040518363ffffffff1660e01b81526004016126fd929190615233565b60206040518083038186803b15801561271557600080fd5b505af4158015612729573d6000803e3d6000fd5b505050506040513d601f19601f8201168201806040525081019061274d9190614355565b8015612854575073__$63b3866c7ad69c9b67104bce93fa94acc6$__63bed34bba8460018151811061278257612781615856565b5b6020026020010151600860003373ffffffffffffffffffffffffffffffffffffffff1673ffffffffffffffffffffffffffffffffffffffff1681526020019081526020016000206001815481106127dc576127db615856565b5b906000526020600020016040518363ffffffff1660e01b8152600401612803929190615233565b60206040518083038186803b15801561281b57600080fd5b505af415801561282f573d6000803e3d6000fd5b505050506040513d601f19601f820116820180604052508101906128539190614355565b5b612893576040517f08c379a000000000000000000000000000000000000000000000000000000000815260040161288a906152aa565b60405180910390fd5b3373ffffffffffffffffffffffffffffffffffffffff168473ffffffffffffffffffffffffffffffffffffffff167ff3c2cfcba78dedc0396d1efe1de1c5eefff973232934298197de8aedfa69f3bd60405160405180910390a373__$0689fb7d66acb0fc11d309c95fd59dd4bb$__6351b3875f85600260036005600660076040518763ffffffff1660e01b81526004016129339695949392919061510c565b60206040518083038186803b15801561294b57600080fd5b505af415801561295f573d6000803e3d6000fd5b505050506040513d601f19601f820116820180604052508101906129839190614355565b9150509392505050565b612996826104ef565b61299f81612f07565b6129a98383613003565b505050565b6000600560008373ffffffffffffffffffffffffffffffffffffffff1673ffffffffffffffffffffffffffffffffffffffff168152602001908152602001600020805490509050919050565b600083600160009054906101000a900473ffffffffffffffffffffffffffffffffffffffff1673ffffffffffffffffffffffffffffffffffffffff16638e81979a826040518263ffffffff1660e01b8152600401612a5891906151da565b60206040518083038186803b158015612a7057600080fd5b505afa158015612a84573d6000803e3d6000fd5b505050506040513d601f19601f82011682018060405250810190612aa89190614355565b612ae7576040517f08c379a0000000000000000000000000000000000000000000000000000000008152600401612ade9061528a565b60405180910390fd5b83600260003373ffffffffffffffffffffffffffffffffffffffff1673ffffffffffffffffffffffffffffffffffffffff1681526020019081526020016000206005019080519060200190612b3d92919061354a565b5082600260003373ffffffffffffffffffffffffffffffffffffffff1673ffffffffffffffffffffffffffffffffffffffff1681526020019081526020016000206006019080519060200190612b9492919061354a565b503373ffffffffffffffffffffffffffffffffffffffff167faee4dfa9aa9f4f1021d38de0c94596420bc5d3aa7e88d0ba09fd53d47afefcf160405160405180910390a2612be06130e4565b60019150509392505050565b600082600160009054906101000a900473ffffffffffffffffffffffffffffffffffffffff1673ffffffffffffffffffffffffffffffffffffffff16638e81979a826040518263ffffffff1660e01b8152600401612c4a91906151da565b60206040518083038186803b158015612c6257600080fd5b505afa158015612c76573d6000803e3d6000fd5b505050506040513d601f19601f82011682018060405250810190612c9a9190614355565b612cd9576040517f08c379a0000000000000000000000000000000000000000000000000000000008152600401612cd09061528a565b60405180910390fd5b8260600151600260003373ffffffffffffffffffffffffffffffffffffffff1673ffffffffffffffffffffffffffffffffffffffff1681526020019081526020016000206003019080519060200190612d3392919061354a565b508260e00151600260003373ffffffffffffffffffffffffffffffffffffffff1673ffffffffffffffffffffffffffffffffffffffff1681526020019081526020016000206007019080519060200190612d8e92919061354a565b50826101000151600260003373ffffffffffffffffffffffffffffffffffffffff1673ffffffffffffffffffffffffffffffffffffffff1681526020019081526020016000206008019080519060200190612dea92919061354a565b50826101400151600260003373ffffffffffffffffffffffffffffffffffffffff1673ffffffffffffffffffffffffffffffffffffffff168152602001908152602001600020600a019080519060200190612e4692919061354a565b503373ffffffffffffffffffffffffffffffffffffffff167f13c2b4a4e63545103f3545c8f3e9a0ca284cb0d0eb571fbebb15debc3aefda1360405160405180910390a2612e926130e4565b600191505092915050565b60007f01ffc9a7000000000000000000000000000000000000000000000000000000007bffffffffffffffffffffffffffffffffffffffffffffffffffffffff1916827bffffffffffffffffffffffffffffffffffffffffffffffffffffffff1916149050919050565b612f1881612f13612ffb565b61312d565b50565b612f258282612042565b612ff757600160008084815260200190815260200160002060000160008373ffffffffffffffffffffffffffffffffffffffff1673ffffffffffffffffffffffffffffffffffffffff16815260200190815260200160002060006101000a81548160ff021916908315150217905550612f9c612ffb565b73ffffffffffffffffffffffffffffffffffffffff168173ffffffffffffffffffffffffffffffffffffffff16837f2f8788117e7eff1d82e926ec794901d17c78024a50270940304540a733656f0d60405160405180910390a45b5050565b600033905090565b61300d8282612042565b156130e057600080600084815260200190815260200160002060000160008373ffffffffffffffffffffffffffffffffffffffff1673ffffffffffffffffffffffffffffffffffffffff16815260200190815260200160002060006101000a81548160ff021916908315150217905550613085612ffb565b73ffffffffffffffffffffffffffffffffffffffff168173ffffffffffffffffffffffffffffffffffffffff16837ff6391f5c32d9c69d2a47ea670b442974b53935d1edc7fd64eb21e047a839171b60405160405180910390a45b5050565b42600260003373ffffffffffffffffffffffffffffffffffffffff1673ffffffffffffffffffffffffffffffffffffffff16815260200190815260200160002060090181905550565b6131378282612042565b6131c65761315c8173ffffffffffffffffffffffffffffffffffffffff1660146131ca565b61316a8360001c60206131ca565b60405160200161317b9291906150d2565b6040516020818303038152906040526040517f08c379a00000000000000000000000000000000000000000000000000000000081526004016131bd91906151da565b60405180910390fd5b5050565b6060600060028360026131dd91906155d9565b6131e79190615583565b67ffffffffffffffff811115613200576131ff615885565b5b6040519080825280601f01601f1916602001820160405280156132325781602001600182028036833780820191505090505b5090507f30000000000000000000000000000000000000000000000000000000000000008160008151811061326a57613269615856565b5b60200101907effffffffffffffffffffffffffffffffffffffffffffffffffffffffffffff1916908160001a9053507f7800000000000000000000000000000000000000000000000000000000000000816001815181106132ce576132cd615856565b5b60200101907effffffffffffffffffffffffffffffffffffffffffffffffffffffffffffff1916908160001a9053506000600184600261330e91906155d9565b6133189190615583565b90505b60018111156133b8577f3031323334353637383961626364656600000000000000000000000000000000600f86166010811061335a57613359615856565b5b1a60f81b82828151811061337157613370615856565b5b60200101907effffffffffffffffffffffffffffffffffffffffffffffffffffffffffffff1916908160001a905350600485901c9450806133b1906156f3565b905061331b565b50600084146133fc576040517f08c379a00000000000000000000000000000000000000000000000000000000081526004016133f39061526a565b60405180910390fd5b8091505092915050565b6040518060800160405280606081526020016060815260200160608152602001600073ffffffffffffffffffffffffffffffffffffffff1681525090565b828054828255906000526020600020908101928215613493579160200282015b8281111561349257825182908051906020019061348292919061354a565b5091602001919060010190613464565b5b5090506134a091906135f4565b5090565b60405180610160016040528060008152602001600073ffffffffffffffffffffffffffffffffffffffff1681526020016060815260200160608152602001606081526020016060815260200160608152602001606081526020016060815260200160008152602001606081525090565b6040518060c001604052806000815260200160608152602001606081526020016060815260200160608152602001606081525090565b8280546135569061571d565b90600052602060002090601f01602090048101928261357857600085556135bf565b82601f1061359157805160ff19168380011785556135bf565b828001600101855582156135bf579182015b828111156135be5782518255916020019190600101906135a3565b5b5090506135cc9190613618565b5090565b50805460008255600602906000526020600020908101906135f19190613635565b50565b5b80821115613614576000818161360b91906136a4565b506001016135f5565b5090565b5b80821115613631576000816000905550600101613619565b5090565b5b808211156136a05760008082016000905560018201600061365791906136a4565b60028201600061366791906136a4565b60038201600061367791906136a4565b60048201600061368791906136a4565b60058201600061369791906136a4565b50600601613636565b5090565b5080546136b09061571d565b6000825580601f106136c257506136e1565b601f0160209004906000526020600020908101906136e09190613618565b5b50565b60006136f76136f284615452565b61542d565b9050808382526020820190508285602086028201111561371a576137196158c3565b5b60005b8581101561376857813567ffffffffffffffff8111156137405761373f6158b4565b5b80860161374d8982613a1a565b8552602085019450602084019350505060018101905061371d565b5050509392505050565b60006137856137808461547e565b61542d565b905080838252602082019050828560208602820111156137a8576137a76158c3565b5b60005b858110156137f657813567ffffffffffffffff8111156137ce576137cd6158b4565b5b8086016137db8982613a76565b855260208501945060208401935050506001810190506137ab565b5050509392505050565b600061381361380e8461547e565b61542d565b90508083825260208201905082856020860282011115613836576138356158c3565b5b60005b8581101561388457815167ffffffffffffffff81111561385c5761385b6158b4565b5b8086016138698982613ba2565b85526020850194506020840193505050600181019050613839565b5050509392505050565b60006138a161389c846154aa565b61542d565b9050828152602081018484840111156138bd576138bc6158c8565b5b6138c88482856156b1565b509392505050565b60006138e36138de846154aa565b61542d565b9050828152602081018484840111156138ff576138fe6158c8565b5b61390a8482856156c0565b509392505050565b60008135905061392181615a7f565b92915050565b60008151905061393681615a7f565b92915050565b600082601f830112613951576139506158b4565b5b81356139618482602086016136e4565b91505092915050565b600082601f83011261397f5761397e6158b4565b5b813561398f848260208601613772565b91505092915050565b600082601f8301126139ad576139ac6158b4565b5b81516139bd848260208601613800565b91505092915050565b6000815190506139d581615a96565b92915050565b6000813590506139ea81615aad565b92915050565b6000813590506139ff81615ac4565b92915050565b600081359050613a1481615adb565b92915050565b600082601f830112613a2f57613a2e6158b4565b5b8135613a3f84826020860161388e565b91505092915050565b600082601f830112613a5d57613a5c6158b4565b5b8151613a6d8482602086016138d0565b91505092915050565b600060c08284031215613a8c57613a8b6158b9565b5b613a9660c061542d565b90506000613aa6848285016142fe565b600083015250602082013567ffffffffffffffff811115613aca57613ac96158be565b5b613ad684828501613a1a565b602083015250604082013567ffffffffffffffff811115613afa57613af96158be565b5b613b0684828501613a1a565b604083015250606082013567ffffffffffffffff811115613b2a57613b296158be565b5b613b3684828501613a1a565b606083015250608082013567ffffffffffffffff811115613b5a57613b596158be565b5b613b6684828501613a1a565b60808301525060a082013567ffffffffffffffff811115613b8a57613b896158be565b5b613b9684828501613a1a565b60a08301525092915050565b600060c08284031215613bb857613bb76158b9565b5b613bc260c061542d565b90506000613bd284828501614313565b600083015250602082015167ffffffffffffffff811115613bf657613bf56158be565b5b613c0284828501613a48565b602083015250604082015167ffffffffffffffff811115613c2657613c256158be565b5b613c3284828501613a48565b604083015250606082015167ffffffffffffffff811115613c5657613c556158be565b5b613c6284828501613a48565b606083015250608082015167ffffffffffffffff811115613c8657613c856158be565b5b613c9284828501613a48565b60808301525060a082015167ffffffffffffffff811115613cb657613cb56158be565b5b613cc284828501613a48565b60a08301525092915050565b600060c08284031215613ce457613ce36158b9565b5b613cee60c061542d565b90506000613cfe848285016142fe565b600083015250602082013567ffffffffffffffff811115613d2257613d216158be565b5b613d2e84828501613a1a565b602083015250604082013567ffffffffffffffff811115613d5257613d516158be565b5b613d5e84828501613a1a565b604083015250606082013567ffffffffffffffff811115613d8257613d816158be565b5b613d8e84828501613a1a565b606083015250608082013567ffffffffffffffff811115613db257613db16158be565b5b613dbe84828501613a1a565b60808301525060a082013567ffffffffffffffff811115613de257613de16158be565b5b613dee84828501613a1a565b60a08301525092915050565b600060c08284031215613e1057613e0f6158b9565b5b613e1a60c061542d565b90506000613e2a84828501614313565b600083015250602082015167ffffffffffffffff811115613e4e57613e4d6158be565b5b613e5a84828501613a48565b602083015250604082015167ffffffffffffffff811115613e7e57613e7d6158be565b5b613e8a84828501613a48565b604083015250606082015167ffffffffffffffff811115613eae57613ead6158be565b5b613eba84828501613a48565b606083015250608082015167ffffffffffffffff811115613ede57613edd6158be565b5b613eea84828501613a48565b60808301525060a082015167ffffffffffffffff811115613f0e57613f0d6158be565b5b613f1a84828501613a48565b60a08301525092915050565b60006101608284031215613f3d57613f3c6158b9565b5b613f4861016061542d565b90506000613f58848285016142fe565b6000830152506020613f6c84828501613912565b602083015250604082013567ffffffffffffffff811115613f9057613f8f6158be565b5b613f9c84828501613a1a565b604083015250606082013567ffffffffffffffff811115613fc057613fbf6158be565b5b613fcc84828501613a1a565b606083015250608082013567ffffffffffffffff811115613ff057613fef6158be565b5b613ffc84828501613a1a565b60808301525060a082013567ffffffffffffffff8111156140205761401f6158be565b5b61402c84828501613a1a565b60a08301525060c082013567ffffffffffffffff8111156140505761404f6158be565b5b61405c84828501613a1a565b60c08301525060e082013567ffffffffffffffff8111156140805761407f6158be565b5b61408c84828501613a1a565b60e08301525061010082013567ffffffffffffffff8111156140b1576140b06158be565b5b6140bd84828501613a1a565b610100830152506101206140d3848285016142fe565b6101208301525061014082013567ffffffffffffffff8111156140f9576140f86158be565b5b61410584828501613a1a565b6101408301525092915050565b60006101608284031215614129576141286158b9565b5b61413461016061542d565b9050600061414484828501614313565b600083015250602061415884828501613927565b602083015250604082015167ffffffffffffffff81111561417c5761417b6158be565b5b61418884828501613a48565b604083015250606082015167ffffffffffffffff8111156141ac576141ab6158be565b5b6141b884828501613a48565b606083015250608082015167ffffffffffffffff8111156141dc576141db6158be565b5b6141e884828501613a48565b60808301525060a082015167ffffffffffffffff81111561420c5761420b6158be565b5b61421884828501613a48565b60a08301525060c082015167ffffffffffffffff81111561423c5761423b6158be565b5b61424884828501613a48565b60c08301525060e082015167ffffffffffffffff81111561426c5761426b6158be565b5b61427884828501613a48565b60e08301525061010082015167ffffffffffffffff81111561429d5761429c6158be565b5b6142a984828501613a48565b610100830152506101206142bf84828501614313565b6101208301525061014082015167ffffffffffffffff8111156142e5576142e46158be565b5b6142f184828501613a48565b6101408301525092915050565b60008135905061430d81615aeb565b92915050565b60008151905061432281615aeb565b92915050565b60006020828403121561433e5761433d6158d2565b5b600061434c84828501613912565b91505092915050565b60006020828403121561436b5761436a6158d2565b5b6000614379848285016139c6565b91505092915050565b600060208284031215614398576143976158d2565b5b60006143a6848285016139db565b91505092915050565b600080604083850312156143c6576143c56158d2565b5b60006143d4858286016139db565b92505060206143e585828601613912565b9150509250929050565b600060208284031215614405576144046158d2565b5b6000614413848285016139f0565b91505092915050565b600060208284031215614432576144316158d2565b5b600082013567ffffffffffffffff8111156144505761444f6158cd565b5b61445c84828501613a1a565b91505092915050565b6000806040838503121561447c5761447b6158d2565b5b600083013567ffffffffffffffff81111561449a576144996158cd565b5b6144a685828601613a1a565b92505060206144b785828601613912565b9150509250929050565b6000806000606084860312156144da576144d96158d2565b5b600084013567ffffffffffffffff8111156144f8576144f76158cd565b5b61450486828701613a1a565b935050602061451586828701613912565b925050604084013567ffffffffffffffff811115614536576145356158cd565b5b6145428682870161393c565b9150509250925092565b60008060408385031215614563576145626158d2565b5b600083013567ffffffffffffffff811115614581576145806158cd565b5b61458d85828601613a1a565b925050602083013567ffffffffffffffff8111156145ae576145ad6158cd565b5b6145ba8582860161396a565b9150509250929050565b600080600080608085870312156145de576145dd6158d2565b5b600085013567ffffffffffffffff8111156145fc576145fb6158cd565b5b61460887828801613a1a565b945050602061461987828801613a05565b935050604085013567ffffffffffffffff81111561463a576146396158cd565b5b6146468782880161393c565b925050606085013567ffffffffffffffff811115614667576146666158cd565b5b61467387828801613a1a565b91505092959194509250565b600080600060608486031215614698576146976158d2565b5b600084013567ffffffffffffffff8111156146b6576146b56158cd565b5b6146c286828701613a1a565b935050602084013567ffffffffffffffff8111156146e3576146e26158cd565b5b6146ef86828701613a1a565b925050604084013567ffffffffffffffff8111156147105761470f6158cd565b5b61471c86828701613a1a565b9150509250925092565b6000806040838503121561473d5761473c6158d2565b5b600083013567ffffffffffffffff81111561475b5761475a6158cd565b5b61476785828601613a1a565b925050602083013567ffffffffffffffff811115614788576147876158cd565b5b61479485828601613cce565b9150509250929050565b600080604083850312156147b5576147b46158d2565b5b600083013567ffffffffffffffff8111156147d3576147d26158cd565b5b6147df85828601613a1a565b925050602083013567ffffffffffffffff811115614800576147ff6158cd565b5b61480c85828601613f26565b9150509250929050565b60008060006060848603121561482f5761482e6158d2565b5b600084015167ffffffffffffffff81111561484d5761484c6158cd565b5b61485986828701614112565b935050602084015167ffffffffffffffff81111561487a576148796158cd565b5b61488686828701613dfa565b925050604084015167ffffffffffffffff8111156148a7576148a66158cd565b5b6148b386828701613998565b9150509250925092565b60006148c98383614c84565b905092915050565b6148da81615633565b82525050565b6148e981615633565b82525050565b6148f881615633565b82525050565b8082525050565b600061491082615500565b61491a8185615523565b93508360208202850161492c856154db565b8060005b85811015614968578484038952815161494985826148bd565b945061495483615516565b925060208a01995050600181019050614930565b50829750879550505050505092915050565b61498381615645565b82525050565b61499281615651565b82525050565b8082525050565b8082525050565b8082525050565b8082525050565b60006149bf8261550b565b6149c98185615534565b93506149d98185602086016156c0565b6149e2816158d7565b840191505092915050565b60006149f88261550b565b614a028185615545565b9350614a128185602086016156c0565b614a1b816158d7565b840191505092915050565b6000614a318261550b565b614a3b8185615556565b9350614a4b8185602086016156c0565b614a54816158d7565b840191505092915050565b6000614a6a8261550b565b614a748185615567565b9350614a848185602086016156c0565b614a8d816158d7565b840191505092915050565b6000614aa38261550b565b614aad8185615578565b9350614abd8185602086016156c0565b80840191505092915050565b60008154614ad68161571d565b614ae08186615556565b94506001821660008114614afb5760018114614b0d57614b40565b60ff1983168652602086019350614b40565b614b16856154eb565b60005b83811015614b3857815481890152600182019150602081019050614b19565b808801955050505b50505092915050565b6000614b56602083615545565b9150614b61826158e8565b602082019050919050565b6000614b79601483615545565b9150614b8482615911565b602082019050919050565b6000614b9c600e83615545565b9150614ba78261593a565b602082019050919050565b6000614bbf600a83615545565b9150614bca82615963565b602082019050919050565b6000614be2601483615545565b9150614bed8261598c565b602082019050919050565b6000614c05600a83615545565b9150614c10826159b5565b602082019050919050565b6000614c28601783615578565b9150614c33826159de565b601782019050919050565b6000614c4b601183615578565b9150614c5682615a07565b601182019050919050565b6000614c6e602f83615545565b9150614c7982615a30565b604082019050919050565b600060c083016000830151614c9c600086018261507f565b5060208301518482036020860152614cb482826149b4565b91505060408301518482036040860152614cce82826149b4565b91505060608301518482036060860152614ce882826149b4565b91505060808301518482036080860152614d0282826149b4565b91505060a083015184820360a0860152614d1c82826149b4565b9150508091505092915050565b60006080830160008301518482036000860152614d4682826149b4565b91505060208301518482036020860152614d6082826149b4565b91505060408301518482036040860152614d7a82826149b4565b9150506060830151614d8f60608601826148d1565b508091505092915050565b600060c083016000830151614db2600086018261507f565b5060208301518482036020860152614dca82826149b4565b91505060408301518482036040860152614de482826149b4565b91505060608301518482036060860152614dfe82826149b4565b91505060808301518482036080860152614e1882826149b4565b91505060a083015184820360a0860152614e3282826149b4565b9150508091505092915050565b600061016083016000830151614e58600086018261507f565b506020830151614e6b60208601826148d1565b5060408301518482036040860152614e8382826149b4565b91505060608301518482036060860152614e9d82826149b4565b91505060808301518482036080860152614eb782826149b4565b91505060a083015184820360a0860152614ed182826149b4565b91505060c083015184820360c0860152614eeb82826149b4565b91505060e083015184820360e0860152614f0582826149b4565b915050610100830151848203610100860152614f2182826149b4565b915050610120830151614f3861012086018261507f565b50610140830151848203610140860152614f5282826149b4565b9150508091505092915050565b600061016083016000830151614f7860008601826150ac565b506020830151614f8b60208601826148ef565b5060408301518482036040860152614fa38282614a5f565b91505060608301518482036060860152614fbd8282614a5f565b91505060808301518482036080860152614fd78282614a5f565b91505060a083015184820360a0860152614ff18282614a5f565b91505060c083015184820360c086015261500b8282614a5f565b91505060e083015184820360e08601526150258282614a5f565b9150506101008301518482036101008601526150418282614a5f565b9150506101208301516150586101208601826150ac565b506101408301518482036101408601526150728282614a5f565b9150508091505092915050565b615088816156a7565b82525050565b615097816156a7565b82525050565b6150a6816156a7565b82525050565b6150b5816156a7565b82525050565b60006150c78284614a98565b915081905092915050565b60006150dd82614c1b565b91506150e98285614a98565b91506150f482614c3e565b91506151008284614a98565b91508190509392505050565b600060c08201905061512160008301896148e0565b61512e60208301886149a6565b61513b60408301876148fe565b6151486060830186614998565b615155608083018561499f565b61516260a08301846149ad565b979650505050505050565b6000602082019050615182600083018461497a565b92915050565b600060208201905061519d6000830184614989565b92915050565b60006060820190506151b860008301866149a6565b6151c5602083018561499f565b6151d26040830184614998565b949350505050565b600060208201905081810360008301526151f481846149ed565b905092915050565b600060408201905081810360008301526152168185614a26565b9050818103602083015261522a8184614a26565b90509392505050565b6000604082019050818103600083015261524d8185614a26565b905081810360208301526152618184614ac9565b90509392505050565b6000602082019050818103600083015261528381614b49565b9050919050565b600060208201905081810360008301526152a381614b6c565b9050919050565b600060208201905081810360008301526152c381614b8f565b9050919050565b600060208201905081810360008301526152e381614bb2565b9050919050565b6000602082019050818103600083015261530381614bd5565b9050919050565b6000602082019050818103600083015261532381614bf8565b9050919050565b6000602082019050818103600083015261534381614c61565b9050919050565b600060208201905081810360008301526153648184614d29565b905092915050565b600060a08201905081810360008301526153868188614f5f565b905061539560208301876149a6565b6153a260408301866148fe565b6153af60608301856149ad565b6153bc608083018461509d565b9695505050505050565b600060608201905081810360008301526153e08186614e3f565b905081810360208301526153f48185614d9a565b905081810360408301526154088184614905565b9050949350505050565b6000602082019050615427600083018461508e565b92915050565b6000615437615448565b9050615443828261574f565b919050565b6000604051905090565b600067ffffffffffffffff82111561546d5761546c615885565b5b602082029050602081019050919050565b600067ffffffffffffffff82111561549957615498615885565b5b602082029050602081019050919050565b600067ffffffffffffffff8211156154c5576154c4615885565b5b6154ce826158d7565b9050602081019050919050565b6000819050602082019050919050565b60008190508160005260206000209050919050565b600081519050919050565b600081519050919050565b6000602082019050919050565b600082825260208201905092915050565b600082825260208201905092915050565b600082825260208201905092915050565b600082825260208201905092915050565b600082825260208201905092915050565b600081905092915050565b600061558e826156a7565b9150615599836156a7565b9250827fffffffffffffffffffffffffffffffffffffffffffffffffffffffffffffffff038211156155ce576155cd6157c9565b5b828201905092915050565b60006155e4826156a7565b91506155ef836156a7565b9250817fffffffffffffffffffffffffffffffffffffffffffffffffffffffffffffffff0483118215151615615628576156276157c9565b5b828202905092915050565b600061563e82615687565b9050919050565b60008115159050919050565b6000819050919050565b60007fffffffff0000000000000000000000000000000000000000000000000000000082169050919050565b600073ffffffffffffffffffffffffffffffffffffffff82169050919050565b6000819050919050565b82818337600083830152505050565b60005b838110156156de5780820151818401526020810190506156c3565b838111156156ed576000848401525b50505050565b60006156fe826156a7565b91506000821415615712576157116157c9565b5b600182039050919050565b6000600282049050600182168061573557607f821691505b6020821081141561574957615748615827565b5b50919050565b615758826158d7565b810181811067ffffffffffffffff8211171561577757615776615885565b5b80604052505050565b600061578b826156a7565b91507fffffffffffffffffffffffffffffffffffffffffffffffffffffffffffffffff8214156157be576157bd6157c9565b5b600182019050919050565b7f4e487b7100000000000000000000000000000000000000000000000000000000600052601160045260246000fd5b7f4e487b7100000000000000000000000000000000000000000000000000000000600052602160045260246000fd5b7f4e487b7100000000000000000000000000000000000000000000000000000000600052602260045260246000fd5b7f4e487b7100000000000000000000000000000000000000000000000000000000600052603260045260246000fd5b7f4e487b7100000000000000000000000000000000000000000000000000000000600052604160045260246000fd5b600080fd5b600080fd5b600080fd5b600080fd5b600080fd5b600080fd5b600080fd5b6000601f19601f8301169050919050565b7f537472696e67733a20686578206c656e67746820696e73756666696369656e74600082015250565b7f496e76616c69642061636365737320746f6b656e000000000000000000000000600082015250565b7f496e76616c696420546f6b656e73000000000000000000000000000000000000600082015250565b7f5573657220657869737400000000000000000000000000000000000000000000600082015250565b7f4d696e696d756d20636f6e7461637473203a2033000000000000000000000000600082015250565b7f546f6b656e207573656400000000000000000000000000000000000000000000600082015250565b7f416363657373436f6e74726f6c3a206163636f756e7420000000000000000000600082015250565b7f206973206d697373696e6720726f6c6520000000000000000000000000000000600082015250565b7f416363657373436f6e74726f6c3a2063616e206f6e6c792072656e6f756e636560008201527f20726f6c657320666f722073656c660000000000000000000000000000000000602082015250565b615a8881615633565b8114615a9357600080fd5b50565b615a9f81615645565b8114615aaa57600080fd5b50565b615ab681615651565b8114615ac157600080fd5b50565b615acd8161565b565b8114615ad857600080fd5b50565b60038110615ae857600080fd5b50565b615af4816156a7565b8114615aff57600080fd5b5056fea264697066735822122003306898f57abb0d7b08b31162c8e5eea657cb1d92fce23e89e87c50b294065564736f6c63430008060033",
  "linkReferences": {
    "contracts/Users/UserLib.sol": {
      "UserLib": [
        {
          "length": 20,
          "start": 2812
        },
        {
          "length": 20,
          "start": 3389
        },
        {
          "length": 20,
          "start": 8816
        },
        {
          "length": 20,
          "start": 11196
        }
      ]
    },
    "contracts/Utils/Utils.sol": {
      "Utils": [
        {
          "length": 20,
          "start": 5881
        },
        {
          "length": 20,
          "start": 7358
        },
        {
          "length": 20,
          "start": 10525
        },
        {
          "length": 20,
          "start": 10787
        }
      ]
    }
  },
  "deployedLinkReferences": {
    "contracts/Users/UserLib.sol": {
      "UserLib": [
        {
          "length": 20,
          "start": 2095
        },
        {
          "length": 20,
          "start": 2672
        },
        {
          "length": 20,
          "start": 8099
        },
        {
          "length": 20,
          "start": 10479
        }
      ]
    },
    "contracts/Utils/Utils.sol": {
      "Utils": [
        {
          "length": 20,
          "start": 5164
        },
        {
          "length": 20,
          "start": 6641
        },
        {
          "length": 20,
          "start": 9808
        },
        {
          "length": 20,
          "start": 10070
        }
      ]
    }
  }
}