{
  "_format": "hh-sol-artifact-1",
  "contractName": "Users",
  "sourceName": "contracts/Users/Users.sol",
  "abi": [
    {
      "inputs": [
        {
          "internalType": "contract Auth",
          "name": "_auth",
          "type": "address"
        }
      ],
      "stateMutability": "nonpayable",
      "type": "constructor"
    },
    {
      "anonymous": false,
      "inputs": [
        {
          "indexed": true,
          "internalType": "address",
          "name": "olduser",
          "type": "address"
        },
        {
          "indexed": true,
          "internalType": "address",
          "name": "new_user",
          "type": "address"
        }
      ],
      "name": "AccountRecovered",
      "type": "event"
    },
    {
      "anonymous": false,
      "inputs": [
        {
          "indexed": true,
          "internalType": "bytes32",
          "name": "role",
          "type": "bytes32"
        },
        {
          "indexed": true,
          "internalType": "bytes32",
          "name": "previousAdminRole",
          "type": "bytes32"
        },
        {
          "indexed": true,
          "internalType": "bytes32",
          "name": "newAdminRole",
          "type": "bytes32"
        }
      ],
      "name": "RoleAdminChanged",
      "type": "event"
    },
    {
      "anonymous": false,
      "inputs": [
        {
          "indexed": true,
          "internalType": "bytes32",
          "name": "role",
          "type": "bytes32"
        },
        {
          "indexed": true,
          "internalType": "address",
          "name": "account",
          "type": "address"
        },
        {
          "indexed": true,
          "internalType": "address",
          "name": "sender",
          "type": "address"
        }
      ],
      "name": "RoleGranted",
      "type": "event"
    },
    {
      "anonymous": false,
      "inputs": [
        {
          "indexed": true,
          "internalType": "bytes32",
          "name": "role",
          "type": "bytes32"
        },
        {
          "indexed": true,
          "internalType": "address",
          "name": "account",
          "type": "address"
        },
        {
          "indexed": true,
          "internalType": "address",
          "name": "sender",
          "type": "address"
        }
      ],
      "name": "RoleRevoked",
      "type": "event"
    },
    {
      "anonymous": false,
      "inputs": [
        {
          "indexed": true,
          "internalType": "address",
          "name": "user_address",
          "type": "address"
        }
      ],
      "name": "UserAccountEdited",
      "type": "event"
    },
    {
      "anonymous": false,
      "inputs": [
        {
          "indexed": true,
          "internalType": "address",
          "name": "user_address",
          "type": "address"
        }
      ],
      "name": "UserContactsUpdated",
      "type": "event"
    },
    {
      "anonymous": false,
      "inputs": [
        {
          "indexed": true,
          "internalType": "address",
          "name": "user_address",
          "type": "address"
        }
      ],
      "name": "UserCreated",
      "type": "event"
    },
    {
      "inputs": [],
      "name": "ADMIN",
      "outputs": [
        {
          "internalType": "bytes32",
          "name": "",
          "type": "bytes32"
        }
      ],
      "stateMutability": "view",
      "type": "function"
    },
    {
      "inputs": [],
      "name": "DEFAULT_ADMIN_ROLE",
      "outputs": [
        {
          "internalType": "bytes32",
          "name": "",
          "type": "bytes32"
        }
      ],
      "stateMutability": "view",
      "type": "function"
    },
    {
      "inputs": [],
      "name": "VALIDATOR",
      "outputs": [
        {
          "internalType": "bytes32",
          "name": "",
          "type": "bytes32"
        }
      ],
      "stateMutability": "view",
      "type": "function"
    },
    {
      "inputs": [
        {
          "internalType": "string",
          "name": "platform_token",
          "type": "string"
        },
        {
          "internalType": "enum Structs.SEARCH_TYPE",
          "name": "search_type",
          "type": "uint8"
        },
        {
          "internalType": "string[]",
          "name": "otp",
          "type": "string[]"
        },
        {
          "internalType": "string",
          "name": "search_string",
          "type": "string"
        }
      ],
      "name": "accountSearch",
      "outputs": [
        {
          "components": [
            {
              "internalType": "string",
              "name": "fullname",
              "type": "string"
            },
            {
              "internalType": "string",
              "name": "phone",
              "type": "string"
            },
            {
              "internalType": "string",
              "name": "email",
              "type": "string"
            },
            {
              "internalType": "address",
              "name": "wallet_addr",
              "type": "address"
            }
          ],
          "internalType": "struct Structs.FoundUser",
          "name": "",
          "type": "tuple"
        },
        {
          "components": [
            {
              "internalType": "uint256",
              "name": "id",
              "type": "uint256"
            },
            {
              "internalType": "string",
              "name": "name",
              "type": "string"
            },
            {
              "internalType": "string",
              "name": "email",
              "type": "string"
            },
            {
              "internalType": "string",
              "name": "phone",
              "type": "string"
            },
            {
              "internalType": "string",
              "name": "country",
              "type": "string"
            },
            {
              "internalType": "string",
              "name": "relationship",
              "type": "string"
            }
          ],
          "internalType": "struct Structs.Contact[]",
          "name": "",
          "type": "tuple[]"
        }
      ],
      "stateMutability": "nonpayable",
      "type": "function"
    },
    {
      "inputs": [
        {
          "internalType": "string",
          "name": "platform_token",
          "type": "string"
        },
        {
          "components": [
            {
              "internalType": "uint256",
              "name": "id",
              "type": "uint256"
            },
            {
              "internalType": "string",
              "name": "name",
              "type": "string"
            },
            {
              "internalType": "string",
              "name": "email",
              "type": "string"
            },
            {
              "internalType": "string",
              "name": "phone",
              "type": "string"
            },
            {
              "internalType": "string",
              "name": "country",
              "type": "string"
            },
            {
              "internalType": "string",
              "name": "relationship",
              "type": "string"
            }
          ],
          "internalType": "struct Structs.Contact[]",
          "name": "contacts",
          "type": "tuple[]"
        }
      ],
      "name": "addContact",
      "outputs": [
        {
          "internalType": "bool",
          "name": "",
          "type": "bool"
        }
      ],
      "stateMutability": "nonpayable",
      "type": "function"
    },
    {
      "inputs": [
        {
          "internalType": "string",
          "name": "platform_token",
          "type": "string"
        },
        {
          "components": [
            {
              "internalType": "uint256",
              "name": "id",
              "type": "uint256"
            },
            {
              "internalType": "string",
              "name": "name",
              "type": "string"
            },
            {
              "internalType": "string",
              "name": "email",
              "type": "string"
            },
            {
              "internalType": "string",
              "name": "phone",
              "type": "string"
            },
            {
              "internalType": "string",
              "name": "country",
              "type": "string"
            },
            {
              "internalType": "string",
              "name": "relationship",
              "type": "string"
            }
          ],
          "internalType": "struct Structs.NextOfKin",
          "name": "nextOfKin",
          "type": "tuple"
        }
      ],
      "name": "addNextOfKin",
      "outputs": [
        {
          "internalType": "bool",
          "name": "",
          "type": "bool"
        }
      ],
      "stateMutability": "nonpayable",
      "type": "function"
    },
    {
      "inputs": [
        {
          "internalType": "address",
          "name": "user_address",
          "type": "address"
        }
      ],
      "name": "contactCount",
      "outputs": [
        {
          "internalType": "uint256",
          "name": "",
          "type": "uint256"
        }
      ],
      "stateMutability": "view",
      "type": "function"
    },
    {
      "inputs": [
        {
          "internalType": "string",
          "name": "platform_token",
          "type": "string"
        },
        {
          "components": [
            {
              "internalType": "uint256",
              "name": "id",
              "type": "uint256"
            },
            {
              "internalType": "address",
              "name": "wallet_addr",
              "type": "address"
            },
            {
              "internalType": "string",
              "name": "account_token",
              "type": "string"
            },
            {
              "internalType": "string",
              "name": "fullname",
              "type": "string"
            },
            {
              "internalType": "string",
              "name": "avatar",
              "type": "string"
            },
            {
              "internalType": "string",
              "name": "email",
              "type": "string"
            },
            {
              "internalType": "string",
              "name": "phone",
              "type": "string"
            },
            {
              "internalType": "string",
              "name": "country",
              "type": "string"
            },
            {
              "internalType": "string",
              "name": "street_address",
              "type": "string"
            },
            {
              "internalType": "uint256",
              "name": "last_activity",
              "type": "uint256"
            },
            {
              "internalType": "string",
              "name": "others",
              "type": "string"
            }
          ],
          "internalType": "struct Structs.User",
          "name": "new_user",
          "type": "tuple"
        }
      ],
      "name": "createAccount",
      "outputs": [
        {
          "internalType": "bool",
          "name": "",
          "type": "bool"
        }
      ],
      "stateMutability": "nonpayable",
      "type": "function"
    },
    {
      "inputs": [
        {
          "internalType": "string",
          "name": "platform_token",
          "type": "string"
        },
        {
          "components": [
            {
              "internalType": "uint256",
              "name": "id",
              "type": "uint256"
            },
            {
              "internalType": "address",
              "name": "wallet_addr",
              "type": "address"
            },
            {
              "internalType": "string",
              "name": "account_token",
              "type": "string"
            },
            {
              "internalType": "string",
              "name": "fullname",
              "type": "string"
            },
            {
              "internalType": "string",
              "name": "avatar",
              "type": "string"
            },
            {
              "internalType": "string",
              "name": "email",
              "type": "string"
            },
            {
              "internalType": "string",
              "name": "phone",
              "type": "string"
            },
            {
              "internalType": "string",
              "name": "country",
              "type": "string"
            },
            {
              "internalType": "string",
              "name": "street_address",
              "type": "string"
            },
            {
              "internalType": "uint256",
              "name": "last_activity",
              "type": "uint256"
            },
            {
              "internalType": "string",
              "name": "others",
              "type": "string"
            }
          ],
          "internalType": "struct Structs.User",
          "name": "edited_user",
          "type": "tuple"
        }
      ],
      "name": "editAccount",
      "outputs": [
        {
          "internalType": "bool",
          "name": "",
          "type": "bool"
        }
      ],
      "stateMutability": "nonpayable",
      "type": "function"
    },
    {
      "inputs": [
        {
          "internalType": "string",
          "name": "platform_token",
          "type": "string"
        }
      ],
      "name": "fetchUserData",
      "outputs": [
        {
          "components": [
            {
              "internalType": "uint256",
              "name": "id",
              "type": "uint256"
            },
            {
              "internalType": "address",
              "name": "wallet_addr",
              "type": "address"
            },
            {
              "internalType": "string",
              "name": "account_token",
              "type": "string"
            },
            {
              "internalType": "string",
              "name": "fullname",
              "type": "string"
            },
            {
              "internalType": "string",
              "name": "avatar",
              "type": "string"
            },
            {
              "internalType": "string",
              "name": "email",
              "type": "string"
            },
            {
              "internalType": "string",
              "name": "phone",
              "type": "string"
            },
            {
              "internalType": "string",
              "name": "country",
              "type": "string"
            },
            {
              "internalType": "string",
              "name": "street_address",
              "type": "string"
            },
            {
              "internalType": "uint256",
              "name": "last_activity",
              "type": "uint256"
            },
            {
              "internalType": "string",
              "name": "others",
              "type": "string"
            }
          ],
          "internalType": "struct Structs.User",
          "name": "",
          "type": "tuple"
        },
        {
          "components": [
            {
              "internalType": "uint256",
              "name": "id",
              "type": "uint256"
            },
            {
              "internalType": "string",
              "name": "name",
              "type": "string"
            },
            {
              "internalType": "string",
              "name": "email",
              "type": "string"
            },
            {
              "internalType": "string",
              "name": "phone",
              "type": "string"
            },
            {
              "internalType": "string",
              "name": "country",
              "type": "string"
            },
            {
              "internalType": "string",
              "name": "relationship",
              "type": "string"
            }
          ],
          "internalType": "struct Structs.NextOfKin",
          "name": "",
          "type": "tuple"
        },
        {
          "components": [
            {
              "internalType": "uint256",
              "name": "id",
              "type": "uint256"
            },
            {
              "internalType": "string",
              "name": "name",
              "type": "string"
            },
            {
              "internalType": "string",
              "name": "email",
              "type": "string"
            },
            {
              "internalType": "string",
              "name": "phone",
              "type": "string"
            },
            {
              "internalType": "string",
              "name": "country",
              "type": "string"
            },
            {
              "internalType": "string",
              "name": "relationship",
              "type": "string"
            }
          ],
          "internalType": "struct Structs.Contact[]",
          "name": "",
          "type": "tuple[]"
        }
      ],
      "stateMutability": "nonpayable",
      "type": "function"
    },
    {
      "inputs": [
        {
          "internalType": "bytes32",
          "name": "role",
          "type": "bytes32"
        }
      ],
      "name": "getRoleAdmin",
      "outputs": [
        {
          "internalType": "bytes32",
          "name": "",
          "type": "bytes32"
        }
      ],
      "stateMutability": "view",
      "type": "function"
    },
    {
      "inputs": [
        {
          "internalType": "bytes32",
          "name": "role",
          "type": "bytes32"
        },
        {
          "internalType": "address",
          "name": "account",
          "type": "address"
        }
      ],
      "name": "grantRole",
      "outputs": [],
      "stateMutability": "nonpayable",
      "type": "function"
    },
    {
      "inputs": [
        {
          "internalType": "bytes32",
          "name": "role",
          "type": "bytes32"
        },
        {
          "internalType": "address",
          "name": "account",
          "type": "address"
        }
      ],
      "name": "hasRole",
      "outputs": [
        {
          "internalType": "bool",
          "name": "",
          "type": "bool"
        }
      ],
      "stateMutability": "view",
      "type": "function"
    },
    {
      "inputs": [
        {
          "internalType": "string",
          "name": "platform_token",
          "type": "string"
        },
        {
          "internalType": "address",
          "name": "old_wallet_addr",
          "type": "address"
        },
        {
          "internalType": "string[]",
          "name": "otps",
          "type": "string[]"
        }
      ],
      "name": "recoverAccount",
      "outputs": [
        {
          "internalType": "bool",
          "name": "",
          "type": "bool"
        }
      ],
      "stateMutability": "nonpayable",
      "type": "function"
    },
    {
      "inputs": [
        {
          "internalType": "string",
          "name": "platform_token",
          "type": "string"
        },
        {
          "internalType": "address",
          "name": "old_wallet_addr",
          "type": "address"
        }
      ],
      "name": "recoverAccountByNextOfKin",
      "outputs": [
        {
          "internalType": "bool",
          "name": "",
          "type": "bool"
        }
      ],
      "stateMutability": "nonpayable",
      "type": "function"
    },
    {
      "inputs": [
        {
          "internalType": "bytes32",
          "name": "role",
          "type": "bytes32"
        },
        {
          "internalType": "address",
          "name": "account",
          "type": "address"
        }
      ],
      "name": "renounceRole",
      "outputs": [],
      "stateMutability": "nonpayable",
      "type": "function"
    },
    {
      "inputs": [
        {
          "internalType": "bytes32",
          "name": "role",
          "type": "bytes32"
        },
        {
          "internalType": "address",
          "name": "account",
          "type": "address"
        }
      ],
      "name": "revokeRole",
      "outputs": [],
      "stateMutability": "nonpayable",
      "type": "function"
    },
    {
      "inputs": [
        {
          "internalType": "bytes4",
          "name": "interfaceId",
          "type": "bytes4"
        }
      ],
      "name": "supportsInterface",
      "outputs": [
        {
          "internalType": "bool",
          "name": "",
          "type": "bool"
        }
      ],
      "stateMutability": "view",
      "type": "function"
    },
    {
      "inputs": [
        {
          "internalType": "string",
          "name": "platform_token",
          "type": "string"
        },
        {
          "internalType": "string",
          "name": "email",
          "type": "string"
        },
        {
          "internalType": "string",
          "name": "phone",
          "type": "string"
        }
      ],
      "name": "updateContacts",
      "outputs": [
        {
          "internalType": "bool",
          "name": "",
          "type": "bool"
        }
      ],
      "stateMutability": "nonpayable",
      "type": "function"
    },
    {
      "inputs": [],
      "name": "userCount",
      "outputs": [
        {
          "internalType": "uint256",
          "name": "",
          "type": "uint256"
        }
      ],
      "stateMutability": "view",
      "type": "function"
    }
  ],
  "bytecode": "0x60806040523480156200001157600080fd5b5060405162004e5438038062004e54833981810160405281019062000037919062000224565b80600160006101000a81548173ffffffffffffffffffffffffffffffffffffffff021916908373ffffffffffffffffffffffffffffffffffffffff1602179055506200008d6000801b336200009460201b60201c565b50620002bd565b620000a68282620000aa60201b60201c565b5050565b620000bc82826200019b60201b60201c565b6200019757600160008084815260200190815260200160002060000160008373ffffffffffffffffffffffffffffffffffffffff1673ffffffffffffffffffffffffffffffffffffffff16815260200190815260200160002060006101000a81548160ff0219169083151502179055506200013c6200020560201b60201c565b73ffffffffffffffffffffffffffffffffffffffff168173ffffffffffffffffffffffffffffffffffffffff16837f2f8788117e7eff1d82e926ec794901d17c78024a50270940304540a733656f0d60405160405180910390a45b5050565b600080600084815260200190815260200160002060000160008373ffffffffffffffffffffffffffffffffffffffff1673ffffffffffffffffffffffffffffffffffffffff16815260200190815260200160002060009054906101000a900460ff16905092915050565b600033905090565b6000815190506200021e81620002a3565b92915050565b6000602082840312156200023d576200023c6200029e565b5b60006200024d848285016200020d565b91505092915050565b600062000263826200027e565b9050919050565b6000620002778262000256565b9050919050565b600073ffffffffffffffffffffffffffffffffffffffff82169050919050565b600080fd5b620002ae816200026a565b8114620002ba57600080fd5b50565b614b8780620002cd6000396000f3fe608060405234801561001057600080fd5b506004361061012c5760003560e01c8063918ba311116100ad578063b882697f11610071578063b882697f14610394578063d547741f146103c4578063dd351fb3146103e0578063f5f5c7c214610410578063fb2c36bc146104405761012c565b8063918ba311146102b457806391d14854146102e6578063a217fddf14610316578063acf0412614610334578063b2a26971146103645761012c565b806336568abe116100f457806336568abe146101e9578063393df8cb14610205578063474ccffa1461022357806372b6294c146102535780638157bcc5146102835761012c565b806301ffc9a71461013157806307973ccf14610161578063248a9ca31461017f5780632a0acc6a146101af5780632f2ff15d146101cd575b600080fd5b61014b6004803603810190610146919061324b565b610470565b60405161015891906140e0565b60405180910390f35b6101696104ea565b60405161017691906143ef565b60405180910390f35b610199600480360381019061019491906131de565b6104f0565b6040516101a691906140fb565b60405180910390f35b6101b761050f565b6040516101c491906140fb565b60405180910390f35b6101e760048036038101906101e2919061320b565b610533565b005b61020360048036038101906101fe919061320b565b610554565b005b61020d6105d7565b60405161021a91906140fb565b60405180910390f35b61023d600480360381019061023891906135fa565b6105fb565b60405161024a91906140e0565b60405180910390f35b61026d600480360381019061026891906132c1565b610928565b60405161027a91906140e0565b60405180910390f35b61029d60048036038101906102989190613420565b610b0e565b6040516102ab929190614312565b60405180910390f35b6102ce60048036038101906102c99190613278565b610cb0565b6040516102dd939291906143a3565b60405180910390f35b61030060048036038101906102fb919061320b565b610e56565b60405161030d91906140e0565b60405180910390f35b61031e610ec0565b60405161032b91906140fb565b60405180910390f35b61034e60048036038101906103499190613582565b610ec7565b60405161035b91906140e0565b60405180910390f35b61037e600480360381019061037991906133a8565b6110a5565b60405161038b91906140e0565b60405180910390f35b6103ae60048036038101906103a9919061331d565b611375565b6040516103bb91906140e0565b60405180910390f35b6103de60048036038101906103d9919061320b565b6117a1565b005b6103fa60048036038101906103f59190613184565b6117c2565b60405161040791906143ef565b60405180910390f35b61042a600480360381019061042591906134db565b61180e565b60405161043791906140e0565b60405180910390f35b61045a600480360381019061045591906135fa565b611a00565b60405161046791906140e0565b60405180910390f35b60007f7965db0b000000000000000000000000000000000000000000000000000000007bffffffffffffffffffffffffffffffffffffffffffffffffffffffff1916827bffffffffffffffffffffffffffffffffffffffffffffffffffffffff191614806104e357506104e282611cb1565b5b9050919050565b60045481565b6000806000838152602001908152602001600020600101549050919050565b7fdf8b4c520ffe197c5343c6f5aec59570151ef9a492f2c624fd45ddde6135ec4281565b61053c826104f0565b61054581611d1b565b61054f8383611d2f565b505050565b61055c611e0f565b73ffffffffffffffffffffffffffffffffffffffff168173ffffffffffffffffffffffffffffffffffffffff16146105c9576040517f08c379a00000000000000000000000000000000000000000000000000000000081526004016105c0906142f2565b60405180910390fd5b6105d38282611e17565b5050565b7fa95257aebefccffaada4758f028bce81ea992693be70592f620c4c9a0d9e715a81565b60003382604001516001600260008473ffffffffffffffffffffffffffffffffffffffff1673ffffffffffffffffffffffffffffffffffffffff168152602001908152602001600020600301805461065290614758565b905010610694576040517f08c379a000000000000000000000000000000000000000000000000000000000815260040161068b90614292565b60405180910390fd5b600073ffffffffffffffffffffffffffffffffffffffff166007826040516106bc919061402e565b908152602001604051809103902060009054906101000a900473ffffffffffffffffffffffffffffffffffffffff1673ffffffffffffffffffffffffffffffffffffffff1614610741576040517f08c379a0000000000000000000000000000000000000000000000000000000008152600401610738906142d2565b60405180910390fd5b84600160009054906101000a900473ffffffffffffffffffffffffffffffffffffffff1673ffffffffffffffffffffffffffffffffffffffff16638e81979a826040518263ffffffff1660e01b815260040161079d91906141d9565b60206040518083038186803b1580156107b557600080fd5b505afa1580156107c9573d6000803e3d6000fd5b505050506040513d601f19601f820116820180604052508101906107ed91906131b1565b61082c576040517f08c379a000000000000000000000000000000000000000000000000000000000815260040161082390614252565b60405180910390fd5b600073__$0689fb7d66acb0fc11d309c95fd59dd4bb$__63b39efde18760026003600760046000815480929190610862906147bb565b919050556040518663ffffffff1660e01b8152600401610886959493929190614349565b60206040518083038186803b15801561089e57600080fd5b505af41580156108b2573d6000803e3d6000fd5b505050506040513d601f19601f820116820180604052508101906108d691906131b1565b90503373ffffffffffffffffffffffffffffffffffffffff167f0b0376a109cbb578b709f85f6a7befcdac3ac1ab251c99ede87f30c9572ac4d360405160405180910390a28094505050505092915050565b600082600160009054906101000a900473ffffffffffffffffffffffffffffffffffffffff1673ffffffffffffffffffffffffffffffffffffffff16638e81979a826040518263ffffffff1660e01b815260040161098691906141d9565b60206040518083038186803b15801561099e57600080fd5b505afa1580156109b2573d6000803e3d6000fd5b505050506040513d601f19601f820116820180604052508101906109d691906131b1565b610a15576040517f08c379a0000000000000000000000000000000000000000000000000000000008152600401610a0c90614252565b60405180910390fd5b3373ffffffffffffffffffffffffffffffffffffffff168373ffffffffffffffffffffffffffffffffffffffff167ff3c2cfcba78dedc0396d1efe1de1c5eefff973232934298197de8aedfa69f3bd60405160405180910390a373__$0689fb7d66acb0fc11d309c95fd59dd4bb$__6351b3875f84600260036005600660076040518763ffffffff1660e01b8152600401610ab59695949392919061407f565b60206040518083038186803b158015610acd57600080fd5b505af4158015610ae1573d6000803e3d6000fd5b505050506040513d601f19601f82011682018060405250810190610b0591906131b1565b91505092915050565b610b1661221a565b606085600160009054906101000a900473ffffffffffffffffffffffffffffffffffffffff1673ffffffffffffffffffffffffffffffffffffffff16638e81979a826040518263ffffffff1660e01b8152600401610b7491906141d9565b60206040518083038186803b158015610b8c57600080fd5b505afa158015610ba0573d6000803e3d6000fd5b505050506040513d601f19601f82011682018060405250810190610bc491906131b1565b610c03576040517f08c379a0000000000000000000000000000000000000000000000000000000008152600401610bfa90614252565b60405180910390fd5b73__$0689fb7d66acb0fc11d309c95fd59dd4bb$__63511588bc878787600260036005600760086040518963ffffffff1660e01b8152600401610c4d989796959493929190614116565b60006040518083038186803b158015610c6557600080fd5b505af4158015610c79573d6000803e3d6000fd5b505050506040513d6000823e3d601f19601f82011682018060405250810190610ca29190613672565b925092505094509492505050565b610cb8612258565b610cc06122c8565b606083600160009054906101000a900473ffffffffffffffffffffffffffffffffffffffff1673ffffffffffffffffffffffffffffffffffffffff16638e81979a826040518263ffffffff1660e01b8152600401610d1e91906141d9565b60206040518083038186803b158015610d3657600080fd5b505afa158015610d4a573d6000803e3d6000fd5b505050506040513d601f19601f82011682018060405250810190610d6e91906131b1565b610dad576040517f08c379a0000000000000000000000000000000000000000000000000000000008152600401610da490614252565b60405180910390fd5b610db5611ef8565b73__$0689fb7d66acb0fc11d309c95fd59dd4bb$__63a3af90216002600660056040518463ffffffff1660e01b8152600401610df3939291906141a2565b60006040518083038186803b158015610e0b57600080fd5b505af4158015610e1f573d6000803e3d6000fd5b505050506040513d6000823e3d601f19601f82011682018060405250810190610e4891906136ea565b935093509350509193909250565b600080600084815260200190815260200160002060000160008373ffffffffffffffffffffffffffffffffffffffff1673ffffffffffffffffffffffffffffffffffffffff16815260200190815260200160002060009054906101000a900460ff16905092915050565b6000801b81565b600082600160009054906101000a900473ffffffffffffffffffffffffffffffffffffffff1673ffffffffffffffffffffffffffffffffffffffff16638e81979a826040518263ffffffff1660e01b8152600401610f2591906141d9565b60206040518083038186803b158015610f3d57600080fd5b505afa158015610f51573d6000803e3d6000fd5b505050506040513d601f19601f82011682018060405250810190610f7591906131b1565b610fb4576040517f08c379a0000000000000000000000000000000000000000000000000000000008152600401610fab90614252565b60405180910390fd5b82600660003373ffffffffffffffffffffffffffffffffffffffff1673ffffffffffffffffffffffffffffffffffffffff16815260200190815260200160002060008201518160000155602082015181600101908051906020019061101a9291906122fe565b5060408201518160020190805190602001906110379291906122fe565b5060608201518160030190805190602001906110549291906122fe565b5060808201518160040190805190602001906110719291906122fe565b5060a082015181600501908051906020019061108e9291906122fe565b5090505061109a611ef8565b600191505092915050565b600082600160009054906101000a900473ffffffffffffffffffffffffffffffffffffffff1673ffffffffffffffffffffffffffffffffffffffff16638e81979a826040518263ffffffff1660e01b815260040161110391906141d9565b60206040518083038186803b15801561111b57600080fd5b505afa15801561112f573d6000803e3d6000fd5b505050506040513d601f19601f8201168201806040525081019061115391906131b1565b611192576040517f08c379a000000000000000000000000000000000000000000000000000000000815260040161118990614252565b60405180910390fd5b6003835110156111d7576040517f08c379a00000000000000000000000000000000000000000000000000000000081526004016111ce906142b2565b60405180910390fd5b600560003373ffffffffffffffffffffffffffffffffffffffff1673ffffffffffffffffffffffffffffffffffffffff16815260200190815260200160002060006112229190612384565b60005b835181101561136157600560003373ffffffffffffffffffffffffffffffffffffffff1673ffffffffffffffffffffffffffffffffffffffff1681526020019081526020016000208482815181106112805761127f614891565b5b602002602001015190806001815401808255809150506001900390600052602060002090600602016000909190919091506000820151816000015560208201518160010190805190602001906112d79291906122fe565b5060408201518160020190805190602001906112f49291906122fe565b5060608201518160030190805190602001906113119291906122fe565b50608082015181600401908051906020019061132e9291906122fe565b5060a082015181600501908051906020019061134b9291906122fe565b5050508080611359906147bb565b915050611225565b5061136a611ef8565b600191505092915050565b600083600160009054906101000a900473ffffffffffffffffffffffffffffffffffffffff1673ffffffffffffffffffffffffffffffffffffffff16638e81979a826040518263ffffffff1660e01b81526004016113d391906141d9565b60206040518083038186803b1580156113eb57600080fd5b505afa1580156113ff573d6000803e3d6000fd5b505050506040513d601f19601f8201168201806040525081019061142391906131b1565b611462576040517f08c379a000000000000000000000000000000000000000000000000000000000815260040161145990614252565b60405180910390fd5b73__$63b3866c7ad69c9b67104bce93fa94acc6$__63bed34bba846000815181106114905761148f614891565b5b6020026020010151600860003373ffffffffffffffffffffffffffffffffffffffff1673ffffffffffffffffffffffffffffffffffffffff1681526020019081526020016000206000815481106114ea576114e9614891565b5b906000526020600020016040518363ffffffff1660e01b81526004016115119291906141fb565b60206040518083038186803b15801561152957600080fd5b505af415801561153d573d6000803e3d6000fd5b505050506040513d601f19601f8201168201806040525081019061156191906131b1565b8015611668575073__$63b3866c7ad69c9b67104bce93fa94acc6$__63bed34bba8460018151811061159657611595614891565b5b6020026020010151600860003373ffffffffffffffffffffffffffffffffffffffff1673ffffffffffffffffffffffffffffffffffffffff1681526020019081526020016000206001815481106115f0576115ef614891565b5b906000526020600020016040518363ffffffff1660e01b81526004016116179291906141fb565b60206040518083038186803b15801561162f57600080fd5b505af4158015611643573d6000803e3d6000fd5b505050506040513d601f19601f8201168201806040525081019061166791906131b1565b5b6116a7576040517f08c379a000000000000000000000000000000000000000000000000000000000815260040161169e90614272565b60405180910390fd5b3373ffffffffffffffffffffffffffffffffffffffff168473ffffffffffffffffffffffffffffffffffffffff167ff3c2cfcba78dedc0396d1efe1de1c5eefff973232934298197de8aedfa69f3bd60405160405180910390a373__$0689fb7d66acb0fc11d309c95fd59dd4bb$__6351b3875f85600260036005600660076040518763ffffffff1660e01b81526004016117479695949392919061407f565b60206040518083038186803b15801561175f57600080fd5b505af4158015611773573d6000803e3d6000fd5b505050506040513d601f19601f8201168201806040525081019061179791906131b1565b9150509392505050565b6117aa826104f0565b6117b381611d1b565b6117bd8383611e17565b505050565b6000600560008373ffffffffffffffffffffffffffffffffffffffff1673ffffffffffffffffffffffffffffffffffffffff168152602001908152602001600020805490509050919050565b600083600160009054906101000a900473ffffffffffffffffffffffffffffffffffffffff1673ffffffffffffffffffffffffffffffffffffffff16638e81979a826040518263ffffffff1660e01b815260040161186c91906141d9565b60206040518083038186803b15801561188457600080fd5b505afa158015611898573d6000803e3d6000fd5b505050506040513d601f19601f820116820180604052508101906118bc91906131b1565b6118fb576040517f08c379a00000000000000000000000000000000000000000000000000000000081526004016118f290614252565b60405180910390fd5b83600260003373ffffffffffffffffffffffffffffffffffffffff1673ffffffffffffffffffffffffffffffffffffffff16815260200190815260200160002060050190805190602001906119519291906122fe565b5082600260003373ffffffffffffffffffffffffffffffffffffffff1673ffffffffffffffffffffffffffffffffffffffff16815260200190815260200160002060060190805190602001906119a89291906122fe565b503373ffffffffffffffffffffffffffffffffffffffff167faee4dfa9aa9f4f1021d38de0c94596420bc5d3aa7e88d0ba09fd53d47afefcf160405160405180910390a26119f4611ef8565b60019150509392505050565b600082600160009054906101000a900473ffffffffffffffffffffffffffffffffffffffff1673ffffffffffffffffffffffffffffffffffffffff16638e81979a826040518263ffffffff1660e01b8152600401611a5e91906141d9565b60206040518083038186803b158015611a7657600080fd5b505afa158015611a8a573d6000803e3d6000fd5b505050506040513d601f19601f82011682018060405250810190611aae91906131b1565b611aed576040517f08c379a0000000000000000000000000000000000000000000000000000000008152600401611ae490614252565b60405180910390fd5b8260600151600260003373ffffffffffffffffffffffffffffffffffffffff1673ffffffffffffffffffffffffffffffffffffffff1681526020019081526020016000206003019080519060200190611b479291906122fe565b508260e00151600260003373ffffffffffffffffffffffffffffffffffffffff1673ffffffffffffffffffffffffffffffffffffffff1681526020019081526020016000206007019080519060200190611ba29291906122fe565b50826101000151600260003373ffffffffffffffffffffffffffffffffffffffff1673ffffffffffffffffffffffffffffffffffffffff1681526020019081526020016000206008019080519060200190611bfe9291906122fe565b50826101400151600260003373ffffffffffffffffffffffffffffffffffffffff1673ffffffffffffffffffffffffffffffffffffffff168152602001908152602001600020600a019080519060200190611c5a9291906122fe565b503373ffffffffffffffffffffffffffffffffffffffff167f13c2b4a4e63545103f3545c8f3e9a0ca284cb0d0eb571fbebb15debc3aefda1360405160405180910390a2611ca6611ef8565b600191505092915050565b60007f01ffc9a7000000000000000000000000000000000000000000000000000000007bffffffffffffffffffffffffffffffffffffffffffffffffffffffff1916827bffffffffffffffffffffffffffffffffffffffffffffffffffffffff1916149050919050565b611d2c81611d27611e0f565b611f41565b50565b611d398282610e56565b611e0b57600160008084815260200190815260200160002060000160008373ffffffffffffffffffffffffffffffffffffffff1673ffffffffffffffffffffffffffffffffffffffff16815260200190815260200160002060006101000a81548160ff021916908315150217905550611db0611e0f565b73ffffffffffffffffffffffffffffffffffffffff168173ffffffffffffffffffffffffffffffffffffffff16837f2f8788117e7eff1d82e926ec794901d17c78024a50270940304540a733656f0d60405160405180910390a45b5050565b600033905090565b611e218282610e56565b15611ef457600080600084815260200190815260200160002060000160008373ffffffffffffffffffffffffffffffffffffffff1673ffffffffffffffffffffffffffffffffffffffff16815260200190815260200160002060006101000a81548160ff021916908315150217905550611e99611e0f565b73ffffffffffffffffffffffffffffffffffffffff168173ffffffffffffffffffffffffffffffffffffffff16837ff6391f5c32d9c69d2a47ea670b442974b53935d1edc7fd64eb21e047a839171b60405160405180910390a45b5050565b42600260003373ffffffffffffffffffffffffffffffffffffffff1673ffffffffffffffffffffffffffffffffffffffff16815260200190815260200160002060090181905550565b611f4b8282610e56565b611fda57611f708173ffffffffffffffffffffffffffffffffffffffff166014611fde565b611f7e8360001c6020611fde565b604051602001611f8f929190614045565b6040516020818303038152906040526040517f08c379a0000000000000000000000000000000000000000000000000000000008152600401611fd191906141d9565b60405180910390fd5b5050565b606060006002836002611ff191906145ef565b611ffb9190614599565b67ffffffffffffffff811115612014576120136148c0565b5b6040519080825280601f01601f1916602001820160405280156120465781602001600182028036833780820191505090505b5090507f30000000000000000000000000000000000000000000000000000000000000008160008151811061207e5761207d614891565b5b60200101907effffffffffffffffffffffffffffffffffffffffffffffffffffffffffffff1916908160001a9053507f7800000000000000000000000000000000000000000000000000000000000000816001815181106120e2576120e1614891565b5b60200101907effffffffffffffffffffffffffffffffffffffffffffffffffffffffffffff1916908160001a9053506000600184600261212291906145ef565b61212c9190614599565b90505b60018111156121cc577f3031323334353637383961626364656600000000000000000000000000000000600f86166010811061216e5761216d614891565b5b1a60f81b82828151811061218557612184614891565b5b60200101907effffffffffffffffffffffffffffffffffffffffffffffffffffffffffffff1916908160001a905350600485901c9450806121c59061472e565b905061212f565b5060008414612210576040517f08c379a000000000000000000000000000000000000000000000000000000000815260040161220790614232565b60405180910390fd5b8091505092915050565b6040518060800160405280606081526020016060815260200160608152602001600073ffffffffffffffffffffffffffffffffffffffff1681525090565b60405180610160016040528060008152602001600073ffffffffffffffffffffffffffffffffffffffff1681526020016060815260200160608152602001606081526020016060815260200160608152602001606081526020016060815260200160008152602001606081525090565b6040518060c001604052806000815260200160608152602001606081526020016060815260200160608152602001606081525090565b82805461230a90614758565b90600052602060002090601f01602090048101928261232c5760008555612373565b82601f1061234557805160ff1916838001178555612373565b82800160010185558215612373579182015b82811115612372578251825591602001919060010190612357565b5b50905061238091906123a8565b5090565b50805460008255600602906000526020600020908101906123a591906123c5565b50565b5b808211156123c15760008160009055506001016123a9565b5090565b5b80821115612430576000808201600090556001820160006123e79190612434565b6002820160006123f79190612434565b6003820160006124079190612434565b6004820160006124179190612434565b6005820160006124279190612434565b506006016123c6565b5090565b50805461244090614758565b6000825580601f106124525750612471565b601f01602090049060005260206000209081019061247091906123a8565b5b50565b60006124876124828461442f565b61440a565b905080838252602082019050828560208602820111156124aa576124a96148fe565b5b60005b858110156124f857813567ffffffffffffffff8111156124d0576124cf6148ef565b5b8086016124dd89826127aa565b855260208501945060208401935050506001810190506124ad565b5050509392505050565b60006125156125108461445b565b61440a565b90508083825260208201905082856020860282011115612538576125376148fe565b5b60005b8581101561258657813567ffffffffffffffff81111561255e5761255d6148ef565b5b80860161256b8982612806565b8552602085019450602084019350505060018101905061253b565b5050509392505050565b60006125a361259e8461445b565b61440a565b905080838252602082019050828560208602820111156125c6576125c56148fe565b5b60005b8581101561261457815167ffffffffffffffff8111156125ec576125eb6148ef565b5b8086016125f98982612932565b855260208501945060208401935050506001810190506125c9565b5050509392505050565b600061263161262c84614487565b61440a565b90508281526020810184848401111561264d5761264c614903565b5b6126588482856146ec565b509392505050565b600061267361266e84614487565b61440a565b90508281526020810184848401111561268f5761268e614903565b5b61269a8482856146fb565b509392505050565b6000813590506126b181614ace565b92915050565b6000815190506126c681614ace565b92915050565b600082601f8301126126e1576126e06148ef565b5b81356126f1848260208601612474565b91505092915050565b600082601f83011261270f5761270e6148ef565b5b813561271f848260208601612502565b91505092915050565b600082601f83011261273d5761273c6148ef565b5b815161274d848260208601612590565b91505092915050565b60008151905061276581614ae5565b92915050565b60008135905061277a81614afc565b92915050565b60008135905061278f81614b13565b92915050565b6000813590506127a481614b2a565b92915050565b600082601f8301126127bf576127be6148ef565b5b81356127cf84826020860161261e565b91505092915050565b600082601f8301126127ed576127ec6148ef565b5b81516127fd848260208601612660565b91505092915050565b600060c0828403121561281c5761281b6148f4565b5b61282660c061440a565b905060006128368482850161315a565b600083015250602082013567ffffffffffffffff81111561285a576128596148f9565b5b612866848285016127aa565b602083015250604082013567ffffffffffffffff81111561288a576128896148f9565b5b612896848285016127aa565b604083015250606082013567ffffffffffffffff8111156128ba576128b96148f9565b5b6128c6848285016127aa565b606083015250608082013567ffffffffffffffff8111156128ea576128e96148f9565b5b6128f6848285016127aa565b60808301525060a082013567ffffffffffffffff81111561291a576129196148f9565b5b612926848285016127aa565b60a08301525092915050565b600060c08284031215612948576129476148f4565b5b61295260c061440a565b905060006129628482850161316f565b600083015250602082015167ffffffffffffffff811115612986576129856148f9565b5b612992848285016127d8565b602083015250604082015167ffffffffffffffff8111156129b6576129b56148f9565b5b6129c2848285016127d8565b604083015250606082015167ffffffffffffffff8111156129e6576129e56148f9565b5b6129f2848285016127d8565b606083015250608082015167ffffffffffffffff811115612a1657612a156148f9565b5b612a22848285016127d8565b60808301525060a082015167ffffffffffffffff811115612a4657612a456148f9565b5b612a52848285016127d8565b60a08301525092915050565b600060808284031215612a7457612a736148f4565b5b612a7e608061440a565b9050600082015167ffffffffffffffff811115612a9e57612a9d6148f9565b5b612aaa848285016127d8565b600083015250602082015167ffffffffffffffff811115612ace57612acd6148f9565b5b612ada848285016127d8565b602083015250604082015167ffffffffffffffff811115612afe57612afd6148f9565b5b612b0a848285016127d8565b6040830152506060612b1e848285016126b7565b60608301525092915050565b600060c08284031215612b4057612b3f6148f4565b5b612b4a60c061440a565b90506000612b5a8482850161315a565b600083015250602082013567ffffffffffffffff811115612b7e57612b7d6148f9565b5b612b8a848285016127aa565b602083015250604082013567ffffffffffffffff811115612bae57612bad6148f9565b5b612bba848285016127aa565b604083015250606082013567ffffffffffffffff811115612bde57612bdd6148f9565b5b612bea848285016127aa565b606083015250608082013567ffffffffffffffff811115612c0e57612c0d6148f9565b5b612c1a848285016127aa565b60808301525060a082013567ffffffffffffffff811115612c3e57612c3d6148f9565b5b612c4a848285016127aa565b60a08301525092915050565b600060c08284031215612c6c57612c6b6148f4565b5b612c7660c061440a565b90506000612c868482850161316f565b600083015250602082015167ffffffffffffffff811115612caa57612ca96148f9565b5b612cb6848285016127d8565b602083015250604082015167ffffffffffffffff811115612cda57612cd96148f9565b5b612ce6848285016127d8565b604083015250606082015167ffffffffffffffff811115612d0a57612d096148f9565b5b612d16848285016127d8565b606083015250608082015167ffffffffffffffff811115612d3a57612d396148f9565b5b612d46848285016127d8565b60808301525060a082015167ffffffffffffffff811115612d6a57612d696148f9565b5b612d76848285016127d8565b60a08301525092915050565b60006101608284031215612d9957612d986148f4565b5b612da461016061440a565b90506000612db48482850161315a565b6000830152506020612dc8848285016126a2565b602083015250604082013567ffffffffffffffff811115612dec57612deb6148f9565b5b612df8848285016127aa565b604083015250606082013567ffffffffffffffff811115612e1c57612e1b6148f9565b5b612e28848285016127aa565b606083015250608082013567ffffffffffffffff811115612e4c57612e4b6148f9565b5b612e58848285016127aa565b60808301525060a082013567ffffffffffffffff811115612e7c57612e7b6148f9565b5b612e88848285016127aa565b60a08301525060c082013567ffffffffffffffff811115612eac57612eab6148f9565b5b612eb8848285016127aa565b60c08301525060e082013567ffffffffffffffff811115612edc57612edb6148f9565b5b612ee8848285016127aa565b60e08301525061010082013567ffffffffffffffff811115612f0d57612f0c6148f9565b5b612f19848285016127aa565b61010083015250610120612f2f8482850161315a565b6101208301525061014082013567ffffffffffffffff811115612f5557612f546148f9565b5b612f61848285016127aa565b6101408301525092915050565b60006101608284031215612f8557612f846148f4565b5b612f9061016061440a565b90506000612fa08482850161316f565b6000830152506020612fb4848285016126b7565b602083015250604082015167ffffffffffffffff811115612fd857612fd76148f9565b5b612fe4848285016127d8565b604083015250606082015167ffffffffffffffff811115613008576130076148f9565b5b613014848285016127d8565b606083015250608082015167ffffffffffffffff811115613038576130376148f9565b5b613044848285016127d8565b60808301525060a082015167ffffffffffffffff811115613068576130676148f9565b5b613074848285016127d8565b60a08301525060c082015167ffffffffffffffff811115613098576130976148f9565b5b6130a4848285016127d8565b60c08301525060e082015167ffffffffffffffff8111156130c8576130c76148f9565b5b6130d4848285016127d8565b60e08301525061010082015167ffffffffffffffff8111156130f9576130f86148f9565b5b613105848285016127d8565b6101008301525061012061311b8482850161316f565b6101208301525061014082015167ffffffffffffffff811115613141576131406148f9565b5b61314d848285016127d8565b6101408301525092915050565b60008135905061316981614b3a565b92915050565b60008151905061317e81614b3a565b92915050565b60006020828403121561319a5761319961490d565b5b60006131a8848285016126a2565b91505092915050565b6000602082840312156131c7576131c661490d565b5b60006131d584828501612756565b91505092915050565b6000602082840312156131f4576131f361490d565b5b60006132028482850161276b565b91505092915050565b600080604083850312156132225761322161490d565b5b60006132308582860161276b565b9250506020613241858286016126a2565b9150509250929050565b6000602082840312156132615761326061490d565b5b600061326f84828501612780565b91505092915050565b60006020828403121561328e5761328d61490d565b5b600082013567ffffffffffffffff8111156132ac576132ab614908565b5b6132b8848285016127aa565b91505092915050565b600080604083850312156132d8576132d761490d565b5b600083013567ffffffffffffffff8111156132f6576132f5614908565b5b613302858286016127aa565b9250506020613313858286016126a2565b9150509250929050565b6000806000606084860312156133365761333561490d565b5b600084013567ffffffffffffffff81111561335457613353614908565b5b613360868287016127aa565b9350506020613371868287016126a2565b925050604084013567ffffffffffffffff81111561339257613391614908565b5b61339e868287016126cc565b9150509250925092565b600080604083850312156133bf576133be61490d565b5b600083013567ffffffffffffffff8111156133dd576133dc614908565b5b6133e9858286016127aa565b925050602083013567ffffffffffffffff81111561340a57613409614908565b5b613416858286016126fa565b9150509250929050565b6000806000806080858703121561343a5761343961490d565b5b600085013567ffffffffffffffff81111561345857613457614908565b5b613464878288016127aa565b945050602061347587828801612795565b935050604085013567ffffffffffffffff81111561349657613495614908565b5b6134a2878288016126cc565b925050606085013567ffffffffffffffff8111156134c3576134c2614908565b5b6134cf878288016127aa565b91505092959194509250565b6000806000606084860312156134f4576134f361490d565b5b600084013567ffffffffffffffff81111561351257613511614908565b5b61351e868287016127aa565b935050602084013567ffffffffffffffff81111561353f5761353e614908565b5b61354b868287016127aa565b925050604084013567ffffffffffffffff81111561356c5761356b614908565b5b613578868287016127aa565b9150509250925092565b600080604083850312156135995761359861490d565b5b600083013567ffffffffffffffff8111156135b7576135b6614908565b5b6135c3858286016127aa565b925050602083013567ffffffffffffffff8111156135e4576135e3614908565b5b6135f085828601612b2a565b9150509250929050565b600080604083850312156136115761361061490d565b5b600083013567ffffffffffffffff81111561362f5761362e614908565b5b61363b858286016127aa565b925050602083013567ffffffffffffffff81111561365c5761365b614908565b5b61366885828601612d82565b9150509250929050565b600080604083850312156136895761368861490d565b5b600083015167ffffffffffffffff8111156136a7576136a6614908565b5b6136b385828601612a5e565b925050602083015167ffffffffffffffff8111156136d4576136d3614908565b5b6136e085828601612728565b9150509250929050565b6000806000606084860312156137035761370261490d565b5b600084015167ffffffffffffffff81111561372157613720614908565b5b61372d86828701612f6e565b935050602084015167ffffffffffffffff81111561374e5761374d614908565b5b61375a86828701612c56565b925050604084015167ffffffffffffffff81111561377b5761377a614908565b5b61378786828701612728565b9150509250925092565b600061379d83836139d2565b905092915050565b60006137b18383613bf7565b905092915050565b6137c281614649565b82525050565b6137d181614649565b82525050565b6137e081614649565b82525050565b8082525050565b60006137f8826144ed565b6138028185614528565b935083602082028501613814856144b8565b8060005b8581101561385057848403895281516138318582613791565b945061383c8361450e565b925060208a01995050600181019050613818565b50829750879550505050505092915050565b600061386d826144f8565b6138778185614539565b935083602082028501613889856144c8565b8060005b858110156138c557848403895281516138a685826137a5565b94506138b18361451b565b925060208a0199505060018101905061388d565b50829750879550505050505092915050565b6138e08161465b565b82525050565b6138ef81614667565b82525050565b6138fe816146da565b82525050565b8082525050565b8082525050565b8082525050565b8082525050565b8082525050565b600061393282614503565b61393c818561454a565b935061394c8185602086016146fb565b61395581614912565b840191505092915050565b600061396b82614503565b613975818561455b565b93506139858185602086016146fb565b61398e81614912565b840191505092915050565b60006139a482614503565b6139ae818561456c565b93506139be8185602086016146fb565b6139c781614912565b840191505092915050565b60006139dd82614503565b6139e7818561457d565b93506139f78185602086016146fb565b613a0081614912565b840191505092915050565b6000613a1682614503565b613a20818561458e565b9350613a308185602086016146fb565b80840191505092915050565b60008154613a4981614758565b613a53818661456c565b94506001821660008114613a6e5760018114613a8057613ab3565b60ff1983168652602086019350613ab3565b613a89856144d8565b60005b83811015613aab57815481890152600182019150602081019050613a8c565b808801955050505b50505092915050565b6000613ac960208361455b565b9150613ad482614923565b602082019050919050565b6000613aec60148361455b565b9150613af78261494c565b602082019050919050565b6000613b0f600e8361455b565b9150613b1a82614975565b602082019050919050565b6000613b32600a8361455b565b9150613b3d8261499e565b602082019050919050565b6000613b5560148361455b565b9150613b60826149c7565b602082019050919050565b6000613b78600a8361455b565b9150613b83826149f0565b602082019050919050565b6000613b9b60178361458e565b9150613ba682614a19565b601782019050919050565b6000613bbe60118361458e565b9150613bc982614a42565b601182019050919050565b6000613be1602f8361455b565b9150613bec82614a6b565b604082019050919050565b600060c083016000830151613c0f6000860182613ff2565b5060208301518482036020860152613c278282613927565b91505060408301518482036040860152613c418282613927565b91505060608301518482036060860152613c5b8282613927565b91505060808301518482036080860152613c758282613927565b91505060a083015184820360a0860152613c8f8282613927565b9150508091505092915050565b60006080830160008301518482036000860152613cb98282613927565b91505060208301518482036020860152613cd38282613927565b91505060408301518482036040860152613ced8282613927565b9150506060830151613d0260608601826137b9565b508091505092915050565b600060c083016000830151613d256000860182613ff2565b5060208301518482036020860152613d3d8282613927565b91505060408301518482036040860152613d578282613927565b91505060608301518482036060860152613d718282613927565b91505060808301518482036080860152613d8b8282613927565b91505060a083015184820360a0860152613da58282613927565b9150508091505092915050565b600061016083016000830151613dcb6000860182613ff2565b506020830151613dde60208601826137b9565b5060408301518482036040860152613df68282613927565b91505060608301518482036060860152613e108282613927565b91505060808301518482036080860152613e2a8282613927565b91505060a083015184820360a0860152613e448282613927565b91505060c083015184820360c0860152613e5e8282613927565b91505060e083015184820360e0860152613e788282613927565b915050610100830151848203610100860152613e948282613927565b915050610120830151613eab610120860182613ff2565b50610140830151848203610140860152613ec58282613927565b9150508091505092915050565b600061016083016000830151613eeb600086018261401f565b506020830151613efe60208601826137d7565b5060408301518482036040860152613f1682826139d2565b91505060608301518482036060860152613f3082826139d2565b91505060808301518482036080860152613f4a82826139d2565b91505060a083015184820360a0860152613f6482826139d2565b91505060c083015184820360c0860152613f7e82826139d2565b91505060e083015184820360e0860152613f9882826139d2565b915050610100830151848203610100860152613fb482826139d2565b915050610120830151613fcb61012086018261401f565b50610140830151848203610140860152613fe582826139d2565b9150508091505092915050565b613ffb816146d0565b82525050565b61400a816146d0565b82525050565b614019816146d0565b82525050565b614028816146d0565b82525050565b600061403a8284613a0b565b915081905092915050565b600061405082613b8e565b915061405c8285613a0b565b915061406782613bb1565b91506140738284613a0b565b91508190509392505050565b600060c08201905061409460008301896137c8565b6140a16020830188613919565b6140ae60408301876137e6565b6140bb606083018661390b565b6140c86080830185613912565b6140d560a0830184613920565b979650505050505050565b60006020820190506140f560008301846138d7565b92915050565b600060208201905061411060008301846138e6565b92915050565b60006101008201905061412c600083018b6138f5565b818103602083015261413e818a6137ed565b905081810360408301526141528189613999565b90506141616060830188613919565b61416e60808301876137e6565b61417b60a083018661390b565b61418860c0830185613920565b61419560e0830184613904565b9998505050505050505050565b60006060820190506141b76000830186613919565b6141c46020830185613912565b6141d1604083018461390b565b949350505050565b600060208201905081810360008301526141f38184613960565b905092915050565b600060408201905081810360008301526142158185613999565b905081810360208301526142298184613a3c565b90509392505050565b6000602082019050818103600083015261424b81613abc565b9050919050565b6000602082019050818103600083015261426b81613adf565b9050919050565b6000602082019050818103600083015261428b81613b02565b9050919050565b600060208201905081810360008301526142ab81613b25565b9050919050565b600060208201905081810360008301526142cb81613b48565b9050919050565b600060208201905081810360008301526142eb81613b6b565b9050919050565b6000602082019050818103600083015261430b81613bd4565b9050919050565b6000604082019050818103600083015261432c8185613c9c565b905081810360208301526143408184613862565b90509392505050565b600060a08201905081810360008301526143638188613ed2565b90506143726020830187613919565b61437f60408301866137e6565b61438c6060830185613920565b6143996080830184614010565b9695505050505050565b600060608201905081810360008301526143bd8186613db2565b905081810360208301526143d18185613d0d565b905081810360408301526143e58184613862565b9050949350505050565b60006020820190506144046000830184614001565b92915050565b6000614414614425565b9050614420828261478a565b919050565b6000604051905090565b600067ffffffffffffffff82111561444a576144496148c0565b5b602082029050602081019050919050565b600067ffffffffffffffff821115614476576144756148c0565b5b602082029050602081019050919050565b600067ffffffffffffffff8211156144a2576144a16148c0565b5b6144ab82614912565b9050602081019050919050565b6000819050602082019050919050565b6000819050602082019050919050565b60008190508160005260206000209050919050565b600081519050919050565b600081519050919050565b600081519050919050565b6000602082019050919050565b6000602082019050919050565b600082825260208201905092915050565b600082825260208201905092915050565b600082825260208201905092915050565b600082825260208201905092915050565b600082825260208201905092915050565b600082825260208201905092915050565b600081905092915050565b60006145a4826146d0565b91506145af836146d0565b9250827fffffffffffffffffffffffffffffffffffffffffffffffffffffffffffffffff038211156145e4576145e3614804565b5b828201905092915050565b60006145fa826146d0565b9150614605836146d0565b9250817fffffffffffffffffffffffffffffffffffffffffffffffffffffffffffffffff048311821515161561463e5761463d614804565b5b828202905092915050565b6000614654826146b0565b9050919050565b60008115159050919050565b6000819050919050565b60007fffffffff0000000000000000000000000000000000000000000000000000000082169050919050565b60008190506146ab82614aba565b919050565b600073ffffffffffffffffffffffffffffffffffffffff82169050919050565b6000819050919050565b60006146e58261469d565b9050919050565b82818337600083830152505050565b60005b838110156147195780820151818401526020810190506146fe565b83811115614728576000848401525b50505050565b6000614739826146d0565b9150600082141561474d5761474c614804565b5b600182039050919050565b6000600282049050600182168061477057607f821691505b6020821081141561478457614783614862565b5b50919050565b61479382614912565b810181811067ffffffffffffffff821117156147b2576147b16148c0565b5b80604052505050565b60006147c6826146d0565b91507fffffffffffffffffffffffffffffffffffffffffffffffffffffffffffffffff8214156147f9576147f8614804565b5b600182019050919050565b7f4e487b7100000000000000000000000000000000000000000000000000000000600052601160045260246000fd5b7f4e487b7100000000000000000000000000000000000000000000000000000000600052602160045260246000fd5b7f4e487b7100000000000000000000000000000000000000000000000000000000600052602260045260246000fd5b7f4e487b7100000000000000000000000000000000000000000000000000000000600052603260045260246000fd5b7f4e487b7100000000000000000000000000000000000000000000000000000000600052604160045260246000fd5b600080fd5b600080fd5b600080fd5b600080fd5b600080fd5b600080fd5b600080fd5b6000601f19601f8301169050919050565b7f537472696e67733a20686578206c656e67746820696e73756666696369656e74600082015250565b7f496e76616c69642061636365737320746f6b656e000000000000000000000000600082015250565b7f496e76616c696420546f6b656e73000000000000000000000000000000000000600082015250565b7f5573657220657869737400000000000000000000000000000000000000000000600082015250565b7f4d696e696d756d20636f6e7461637473203a2033000000000000000000000000600082015250565b7f546f6b656e207573656400000000000000000000000000000000000000000000600082015250565b7f416363657373436f6e74726f6c3a206163636f756e7420000000000000000000600082015250565b7f206973206d697373696e6720726f6c6520000000000000000000000000000000600082015250565b7f416363657373436f6e74726f6c3a2063616e206f6e6c792072656e6f756e636560008201527f20726f6c657320666f722073656c660000000000000000000000000000000000602082015250565b60038110614acb57614aca614833565b5b50565b614ad781614649565b8114614ae257600080fd5b50565b614aee8161465b565b8114614af957600080fd5b50565b614b0581614667565b8114614b1057600080fd5b50565b614b1c81614671565b8114614b2757600080fd5b50565b60038110614b3757600080fd5b50565b614b43816146d0565b8114614b4e57600080fd5b5056fea26469706673582212209a60b8da0affbf2aa78a4bece8b45ece79a3a312d409b9e32f58a467027b96da64736f6c63430008060033",
  "linkReferences": {
    "contracts/Users/UserLib.sol": {
      "UserLib": [
        {
          "length": 20,
          "start": 2813
        },
        {
          "length": 20,
          "start": 3390
        },
        {
          "length": 20,
          "start": 3794
        },
        {
          "length": 20,
          "start": 4228
        },
        {
          "length": 20,
          "start": 6608
        }
      ]
    },
    "contracts/Utils/Utils.sol": {
      "Utils": [
        {
          "length": 20,
          "start": 5937
        },
        {
          "length": 20,
          "start": 6199
        }
      ]
    }
  },
  "deployedLinkReferences": {
    "contracts/Users/UserLib.sol": {
      "UserLib": [
        {
          "length": 20,
          "start": 2096
        },
        {
          "length": 20,
          "start": 2673
        },
        {
          "length": 20,
          "start": 3077
        },
        {
          "length": 20,
          "start": 3511
        },
        {
          "length": 20,
          "start": 5891
        }
      ]
    },
    "contracts/Utils/Utils.sol": {
      "Utils": [
        {
          "length": 20,
          "start": 5220
        },
        {
          "length": 20,
          "start": 5482
        }
      ]
    }
  }
}