{
  "_format": "hh-sol-artifact-1",
  "contractName": "Users",
  "sourceName": "contracts/Users/Users.sol",
  "abi": [
    {
      "inputs": [
        {
          "internalType": "contract Auth",
          "name": "_auth",
          "type": "address"
        }
      ],
      "stateMutability": "nonpayable",
      "type": "constructor"
    },
    {
      "anonymous": false,
      "inputs": [
        {
          "indexed": true,
          "internalType": "address",
          "name": "olduser",
          "type": "address"
        },
        {
          "indexed": true,
          "internalType": "address",
          "name": "new_user",
          "type": "address"
        }
      ],
      "name": "AccountRecovered",
      "type": "event"
    },
    {
      "anonymous": false,
      "inputs": [
        {
          "indexed": true,
          "internalType": "bytes32",
          "name": "role",
          "type": "bytes32"
        },
        {
          "indexed": true,
          "internalType": "bytes32",
          "name": "previousAdminRole",
          "type": "bytes32"
        },
        {
          "indexed": true,
          "internalType": "bytes32",
          "name": "newAdminRole",
          "type": "bytes32"
        }
      ],
      "name": "RoleAdminChanged",
      "type": "event"
    },
    {
      "anonymous": false,
      "inputs": [
        {
          "indexed": true,
          "internalType": "bytes32",
          "name": "role",
          "type": "bytes32"
        },
        {
          "indexed": true,
          "internalType": "address",
          "name": "account",
          "type": "address"
        },
        {
          "indexed": true,
          "internalType": "address",
          "name": "sender",
          "type": "address"
        }
      ],
      "name": "RoleGranted",
      "type": "event"
    },
    {
      "anonymous": false,
      "inputs": [
        {
          "indexed": true,
          "internalType": "bytes32",
          "name": "role",
          "type": "bytes32"
        },
        {
          "indexed": true,
          "internalType": "address",
          "name": "account",
          "type": "address"
        },
        {
          "indexed": true,
          "internalType": "address",
          "name": "sender",
          "type": "address"
        }
      ],
      "name": "RoleRevoked",
      "type": "event"
    },
    {
      "anonymous": false,
      "inputs": [
        {
          "indexed": true,
          "internalType": "address",
          "name": "user_address",
          "type": "address"
        }
      ],
      "name": "UserAccountEdited",
      "type": "event"
    },
    {
      "anonymous": false,
      "inputs": [
        {
          "indexed": true,
          "internalType": "address",
          "name": "user_address",
          "type": "address"
        }
      ],
      "name": "UserContactsUpdated",
      "type": "event"
    },
    {
      "anonymous": false,
      "inputs": [
        {
          "indexed": true,
          "internalType": "address",
          "name": "user_address",
          "type": "address"
        }
      ],
      "name": "UserCreated",
      "type": "event"
    },
    {
      "inputs": [],
      "name": "ADMIN",
      "outputs": [
        {
          "internalType": "bytes32",
          "name": "",
          "type": "bytes32"
        }
      ],
      "stateMutability": "view",
      "type": "function"
    },
    {
      "inputs": [],
      "name": "DEFAULT_ADMIN_ROLE",
      "outputs": [
        {
          "internalType": "bytes32",
          "name": "",
          "type": "bytes32"
        }
      ],
      "stateMutability": "view",
      "type": "function"
    },
    {
      "inputs": [],
      "name": "VALIDATOR",
      "outputs": [
        {
          "internalType": "bytes32",
          "name": "",
          "type": "bytes32"
        }
      ],
      "stateMutability": "view",
      "type": "function"
    },
    {
      "inputs": [
        {
          "internalType": "string",
          "name": "platform_token",
          "type": "string"
        },
        {
          "internalType": "enum Structs.SEARCH_TYPE",
          "name": "search_type",
          "type": "uint8"
        },
        {
          "internalType": "string[]",
          "name": "otp",
          "type": "string[]"
        },
        {
          "internalType": "string",
          "name": "search_string",
          "type": "string"
        }
      ],
      "name": "accountSearch",
      "outputs": [
        {
          "components": [
            {
              "internalType": "string",
              "name": "fullname",
              "type": "string"
            },
            {
              "internalType": "string",
              "name": "phone",
              "type": "string"
            },
            {
              "internalType": "string",
              "name": "email",
              "type": "string"
            },
            {
              "internalType": "address",
              "name": "wallet_addr",
              "type": "address"
            }
          ],
          "internalType": "struct Structs.FoundUser",
          "name": "",
          "type": "tuple"
        }
      ],
      "stateMutability": "nonpayable",
      "type": "function"
    },
    {
      "inputs": [
        {
          "internalType": "string",
          "name": "platform_token",
          "type": "string"
        },
        {
          "components": [
            {
              "internalType": "uint256",
              "name": "id",
              "type": "uint256"
            },
            {
              "internalType": "string",
              "name": "name",
              "type": "string"
            },
            {
              "internalType": "string",
              "name": "email",
              "type": "string"
            },
            {
              "internalType": "string",
              "name": "phone",
              "type": "string"
            },
            {
              "internalType": "string",
              "name": "country",
              "type": "string"
            },
            {
              "internalType": "string",
              "name": "relationship",
              "type": "string"
            }
          ],
          "internalType": "struct Structs.Contact[]",
          "name": "contacts",
          "type": "tuple[]"
        }
      ],
      "name": "addContact",
      "outputs": [
        {
          "internalType": "bool",
          "name": "",
          "type": "bool"
        }
      ],
      "stateMutability": "nonpayable",
      "type": "function"
    },
    {
      "inputs": [
        {
          "internalType": "string",
          "name": "platform_token",
          "type": "string"
        },
        {
          "components": [
            {
              "internalType": "uint256",
              "name": "id",
              "type": "uint256"
            },
            {
              "internalType": "string",
              "name": "name",
              "type": "string"
            },
            {
              "internalType": "string",
              "name": "email",
              "type": "string"
            },
            {
              "internalType": "string",
              "name": "phone",
              "type": "string"
            },
            {
              "internalType": "string",
              "name": "country",
              "type": "string"
            },
            {
              "internalType": "string",
              "name": "relationship",
              "type": "string"
            }
          ],
          "internalType": "struct Structs.NextOfKin",
          "name": "nextOfKin",
          "type": "tuple"
        }
      ],
      "name": "addNextOfKin",
      "outputs": [
        {
          "internalType": "bool",
          "name": "",
          "type": "bool"
        }
      ],
      "stateMutability": "nonpayable",
      "type": "function"
    },
    {
      "inputs": [
        {
          "internalType": "string",
          "name": "platform_token",
          "type": "string"
        },
        {
          "components": [
            {
              "internalType": "uint256",
              "name": "id",
              "type": "uint256"
            },
            {
              "internalType": "address",
              "name": "wallet_addr",
              "type": "address"
            },
            {
              "internalType": "string",
              "name": "account_token",
              "type": "string"
            },
            {
              "internalType": "string",
              "name": "fullname",
              "type": "string"
            },
            {
              "internalType": "string",
              "name": "avatar",
              "type": "string"
            },
            {
              "internalType": "string",
              "name": "email",
              "type": "string"
            },
            {
              "internalType": "string",
              "name": "phone",
              "type": "string"
            },
            {
              "internalType": "string",
              "name": "country",
              "type": "string"
            },
            {
              "internalType": "string",
              "name": "street_address",
              "type": "string"
            },
            {
              "internalType": "uint256",
              "name": "last_activity",
              "type": "uint256"
            },
            {
              "internalType": "string",
              "name": "others",
              "type": "string"
            }
          ],
          "internalType": "struct Structs.User",
          "name": "new_user",
          "type": "tuple"
        }
      ],
      "name": "createAccount",
      "outputs": [
        {
          "internalType": "bool",
          "name": "",
          "type": "bool"
        }
      ],
      "stateMutability": "nonpayable",
      "type": "function"
    },
    {
      "inputs": [
        {
          "internalType": "string",
          "name": "platform_token",
          "type": "string"
        },
        {
          "components": [
            {
              "internalType": "uint256",
              "name": "id",
              "type": "uint256"
            },
            {
              "internalType": "address",
              "name": "wallet_addr",
              "type": "address"
            },
            {
              "internalType": "string",
              "name": "account_token",
              "type": "string"
            },
            {
              "internalType": "string",
              "name": "fullname",
              "type": "string"
            },
            {
              "internalType": "string",
              "name": "avatar",
              "type": "string"
            },
            {
              "internalType": "string",
              "name": "email",
              "type": "string"
            },
            {
              "internalType": "string",
              "name": "phone",
              "type": "string"
            },
            {
              "internalType": "string",
              "name": "country",
              "type": "string"
            },
            {
              "internalType": "string",
              "name": "street_address",
              "type": "string"
            },
            {
              "internalType": "uint256",
              "name": "last_activity",
              "type": "uint256"
            },
            {
              "internalType": "string",
              "name": "others",
              "type": "string"
            }
          ],
          "internalType": "struct Structs.User",
          "name": "edited_user",
          "type": "tuple"
        }
      ],
      "name": "editAccount",
      "outputs": [
        {
          "internalType": "bool",
          "name": "",
          "type": "bool"
        }
      ],
      "stateMutability": "nonpayable",
      "type": "function"
    },
    {
      "inputs": [
        {
          "internalType": "string",
          "name": "platform_token",
          "type": "string"
        }
      ],
      "name": "fetchUserData",
      "outputs": [
        {
          "components": [
            {
              "internalType": "uint256",
              "name": "id",
              "type": "uint256"
            },
            {
              "internalType": "address",
              "name": "wallet_addr",
              "type": "address"
            },
            {
              "internalType": "string",
              "name": "account_token",
              "type": "string"
            },
            {
              "internalType": "string",
              "name": "fullname",
              "type": "string"
            },
            {
              "internalType": "string",
              "name": "avatar",
              "type": "string"
            },
            {
              "internalType": "string",
              "name": "email",
              "type": "string"
            },
            {
              "internalType": "string",
              "name": "phone",
              "type": "string"
            },
            {
              "internalType": "string",
              "name": "country",
              "type": "string"
            },
            {
              "internalType": "string",
              "name": "street_address",
              "type": "string"
            },
            {
              "internalType": "uint256",
              "name": "last_activity",
              "type": "uint256"
            },
            {
              "internalType": "string",
              "name": "others",
              "type": "string"
            }
          ],
          "internalType": "struct Structs.User",
          "name": "",
          "type": "tuple"
        },
        {
          "components": [
            {
              "internalType": "uint256",
              "name": "id",
              "type": "uint256"
            },
            {
              "internalType": "string",
              "name": "name",
              "type": "string"
            },
            {
              "internalType": "string",
              "name": "email",
              "type": "string"
            },
            {
              "internalType": "string",
              "name": "phone",
              "type": "string"
            },
            {
              "internalType": "string",
              "name": "country",
              "type": "string"
            },
            {
              "internalType": "string",
              "name": "relationship",
              "type": "string"
            }
          ],
          "internalType": "struct Structs.NextOfKin",
          "name": "",
          "type": "tuple"
        },
        {
          "components": [
            {
              "internalType": "uint256",
              "name": "id",
              "type": "uint256"
            },
            {
              "internalType": "string",
              "name": "name",
              "type": "string"
            },
            {
              "internalType": "string",
              "name": "email",
              "type": "string"
            },
            {
              "internalType": "string",
              "name": "phone",
              "type": "string"
            },
            {
              "internalType": "string",
              "name": "country",
              "type": "string"
            },
            {
              "internalType": "string",
              "name": "relationship",
              "type": "string"
            }
          ],
          "internalType": "struct Structs.Contact[]",
          "name": "",
          "type": "tuple[]"
        }
      ],
      "stateMutability": "nonpayable",
      "type": "function"
    },
    {
      "inputs": [
        {
          "internalType": "bytes32",
          "name": "role",
          "type": "bytes32"
        }
      ],
      "name": "getRoleAdmin",
      "outputs": [
        {
          "internalType": "bytes32",
          "name": "",
          "type": "bytes32"
        }
      ],
      "stateMutability": "view",
      "type": "function"
    },
    {
      "inputs": [
        {
          "internalType": "bytes32",
          "name": "role",
          "type": "bytes32"
        },
        {
          "internalType": "address",
          "name": "account",
          "type": "address"
        }
      ],
      "name": "grantRole",
      "outputs": [],
      "stateMutability": "nonpayable",
      "type": "function"
    },
    {
      "inputs": [
        {
          "internalType": "bytes32",
          "name": "role",
          "type": "bytes32"
        },
        {
          "internalType": "address",
          "name": "account",
          "type": "address"
        }
      ],
      "name": "hasRole",
      "outputs": [
        {
          "internalType": "bool",
          "name": "",
          "type": "bool"
        }
      ],
      "stateMutability": "view",
      "type": "function"
    },
    {
      "inputs": [
        {
          "internalType": "string",
          "name": "platform_token",
          "type": "string"
        },
        {
          "internalType": "address",
          "name": "old_wallet_addr",
          "type": "address"
        },
        {
          "internalType": "string[]",
          "name": "otps",
          "type": "string[]"
        }
      ],
      "name": "recoverAccount",
      "outputs": [
        {
          "internalType": "bool",
          "name": "",
          "type": "bool"
        }
      ],
      "stateMutability": "nonpayable",
      "type": "function"
    },
    {
      "inputs": [
        {
          "internalType": "string",
          "name": "platform_token",
          "type": "string"
        },
        {
          "internalType": "address",
          "name": "old_wallet_addr",
          "type": "address"
        }
      ],
      "name": "recoverAccountByNextOfKin",
      "outputs": [
        {
          "internalType": "bool",
          "name": "",
          "type": "bool"
        }
      ],
      "stateMutability": "nonpayable",
      "type": "function"
    },
    {
      "inputs": [
        {
          "internalType": "bytes32",
          "name": "role",
          "type": "bytes32"
        },
        {
          "internalType": "address",
          "name": "account",
          "type": "address"
        }
      ],
      "name": "renounceRole",
      "outputs": [],
      "stateMutability": "nonpayable",
      "type": "function"
    },
    {
      "inputs": [
        {
          "internalType": "bytes32",
          "name": "role",
          "type": "bytes32"
        },
        {
          "internalType": "address",
          "name": "account",
          "type": "address"
        }
      ],
      "name": "revokeRole",
      "outputs": [],
      "stateMutability": "nonpayable",
      "type": "function"
    },
    {
      "inputs": [
        {
          "internalType": "bytes4",
          "name": "interfaceId",
          "type": "bytes4"
        }
      ],
      "name": "supportsInterface",
      "outputs": [
        {
          "internalType": "bool",
          "name": "",
          "type": "bool"
        }
      ],
      "stateMutability": "view",
      "type": "function"
    },
    {
      "inputs": [
        {
          "internalType": "string",
          "name": "platform_token",
          "type": "string"
        },
        {
          "internalType": "string",
          "name": "email",
          "type": "string"
        },
        {
          "internalType": "string",
          "name": "phone",
          "type": "string"
        }
      ],
      "name": "updateContacts",
      "outputs": [
        {
          "internalType": "bool",
          "name": "",
          "type": "bool"
        }
      ],
      "stateMutability": "nonpayable",
      "type": "function"
    },
    {
      "inputs": [],
      "name": "userCount",
      "outputs": [
        {
          "internalType": "uint256",
          "name": "",
          "type": "uint256"
        }
      ],
      "stateMutability": "view",
      "type": "function"
    }
  ],
  "bytecode": "0x60806040523480156200001157600080fd5b5060405162005d5138038062005d51833981810160405281019062000037919062000224565b80600160006101000a81548173ffffffffffffffffffffffffffffffffffffffff021916908373ffffffffffffffffffffffffffffffffffffffff1602179055506200008d6000801b336200009460201b60201c565b50620002bd565b620000a68282620000aa60201b60201c565b5050565b620000bc82826200019b60201b60201c565b6200019757600160008084815260200190815260200160002060000160008373ffffffffffffffffffffffffffffffffffffffff1673ffffffffffffffffffffffffffffffffffffffff16815260200190815260200160002060006101000a81548160ff0219169083151502179055506200013c6200020560201b60201c565b73ffffffffffffffffffffffffffffffffffffffff168173ffffffffffffffffffffffffffffffffffffffff16837f2f8788117e7eff1d82e926ec794901d17c78024a50270940304540a733656f0d60405160405180910390a45b5050565b600080600084815260200190815260200160002060000160008373ffffffffffffffffffffffffffffffffffffffff1673ffffffffffffffffffffffffffffffffffffffff16815260200190815260200160002060009054906101000a900460ff16905092915050565b600033905090565b6000815190506200021e81620002a3565b92915050565b6000602082840312156200023d576200023c6200029e565b5b60006200024d848285016200020d565b91505092915050565b600062000263826200027e565b9050919050565b6000620002778262000256565b9050919050565b600073ffffffffffffffffffffffffffffffffffffffff82169050919050565b600080fd5b620002ae816200026a565b8114620002ba57600080fd5b50565b615a8480620002cd6000396000f3fe608060405234801561001057600080fd5b50600436106101215760003560e01c80638157bcc5116100ad578063b2a2697111610071578063b2a2697114610358578063b882697f14610388578063d547741f146103b8578063f5f5c7c2146103d4578063fb2c36bc1461040457610121565b80638157bcc514610278578063918ba311146102a857806391d14854146102da578063a217fddf1461030a578063acf041261461032857610121565b80632f2ff15d116100f45780632f2ff15d146101c257806336568abe146101de578063393df8cb146101fa578063474ccffa1461021857806372b6294c1461024857610121565b806301ffc9a71461012657806307973ccf14610156578063248a9ca3146101745780632a0acc6a146101a4575b600080fd5b610140600480360381019061013b919061433b565b610434565b60405161014d91906150b9565b60405180910390f35b61015e6104ae565b60405161016b919061535e565b60405180910390f35b61018e600480360381019061018991906142ce565b6104b4565b60405161019b91906150d4565b60405180910390f35b6101ac6104d3565b6040516101b991906150d4565b60405180910390f35b6101dc60048036038101906101d791906142fb565b6104f7565b005b6101f860048036038101906101f391906142fb565b610518565b005b61020261059b565b60405161020f91906150d4565b60405180910390f35b610232600480360381019061022d91906146ea565b6105bf565b60405161023f91906150b9565b60405180910390f35b610262600480360381019061025d91906143b1565b6108ec565b60405161026f91906150b9565b60405180910390f35b610292600480360381019061028d9190614510565b610ad2565b60405161029f9190615296565b60405180910390f35b6102c260048036038101906102bd9190614368565b611e61565b6040516102d193929190615312565b60405180910390f35b6102f460048036038101906102ef91906142fb565b612007565b60405161030191906150b9565b60405180910390f35b610312612071565b60405161031f91906150d4565b60405180910390f35b610342600480360381019061033d9190614672565b612078565b60405161034f91906150b9565b60405180910390f35b610372600480360381019061036d9190614498565b612256565b60405161037f91906150b9565b60405180910390f35b6103a2600480360381019061039d919061440d565b612526565b6040516103af91906150b9565b60405180910390f35b6103d260048036038101906103cd91906142fb565b612952565b005b6103ee60048036038101906103e991906145cb565b612973565b6040516103fb91906150b9565b60405180910390f35b61041e600480360381019061041991906146ea565b612b65565b60405161042b91906150b9565b60405180910390f35b60007f7965db0b000000000000000000000000000000000000000000000000000000007bffffffffffffffffffffffffffffffffffffffffffffffffffffffff1916827bffffffffffffffffffffffffffffffffffffffffffffffffffffffff191614806104a757506104a682612e16565b5b9050919050565b60045481565b6000806000838152602001908152602001600020600101549050919050565b7fdf8b4c520ffe197c5343c6f5aec59570151ef9a492f2c624fd45ddde6135ec4281565b610500826104b4565b61050981612e80565b6105138383612e94565b505050565b610520612f74565b73ffffffffffffffffffffffffffffffffffffffff168173ffffffffffffffffffffffffffffffffffffffff161461058d576040517f08c379a000000000000000000000000000000000000000000000000000000000815260040161058490615276565b60405180910390fd5b6105978282612f7c565b5050565b7fa95257aebefccffaada4758f028bce81ea992693be70592f620c4c9a0d9e715a81565b60003382604001516001600260008473ffffffffffffffffffffffffffffffffffffffff1673ffffffffffffffffffffffffffffffffffffffff168152602001908152602001600020600301805461061690615669565b905010610658576040517f08c379a000000000000000000000000000000000000000000000000000000000815260040161064f90615216565b60405180910390fd5b600073ffffffffffffffffffffffffffffffffffffffff166007826040516106809190615007565b908152602001604051809103902060009054906101000a900473ffffffffffffffffffffffffffffffffffffffff1673ffffffffffffffffffffffffffffffffffffffff1614610705576040517f08c379a00000000000000000000000000000000000000000000000000000000081526004016106fc90615256565b60405180910390fd5b84600160009054906101000a900473ffffffffffffffffffffffffffffffffffffffff1673ffffffffffffffffffffffffffffffffffffffff16638e81979a826040518263ffffffff1660e01b81526004016107619190615126565b60206040518083038186803b15801561077957600080fd5b505afa15801561078d573d6000803e3d6000fd5b505050506040513d601f19601f820116820180604052508101906107b191906142a1565b6107f0576040517f08c379a00000000000000000000000000000000000000000000000000000000081526004016107e7906151d6565b60405180910390fd5b600073__$0689fb7d66acb0fc11d309c95fd59dd4bb$__63b39efde18760026003600760046000815480929190610826906156cc565b919050556040518663ffffffff1660e01b815260040161084a9594939291906152b8565b60206040518083038186803b15801561086257600080fd5b505af4158015610876573d6000803e3d6000fd5b505050506040513d601f19601f8201168201806040525081019061089a91906142a1565b90503373ffffffffffffffffffffffffffffffffffffffff167f0b0376a109cbb578b709f85f6a7befcdac3ac1ab251c99ede87f30c9572ac4d360405160405180910390a28094505050505092915050565b600082600160009054906101000a900473ffffffffffffffffffffffffffffffffffffffff1673ffffffffffffffffffffffffffffffffffffffff16638e81979a826040518263ffffffff1660e01b815260040161094a9190615126565b60206040518083038186803b15801561096257600080fd5b505afa158015610976573d6000803e3d6000fd5b505050506040513d601f19601f8201168201806040525081019061099a91906142a1565b6109d9576040517f08c379a00000000000000000000000000000000000000000000000000000000081526004016109d0906151d6565b60405180910390fd5b3373ffffffffffffffffffffffffffffffffffffffff168373ffffffffffffffffffffffffffffffffffffffff167ff3c2cfcba78dedc0396d1efe1de1c5eefff973232934298197de8aedfa69f3bd60405160405180910390a373__$0689fb7d66acb0fc11d309c95fd59dd4bb$__6351b3875f84600260036005600660076040518763ffffffff1660e01b8152600401610a7996959493929190615058565b60206040518083038186803b158015610a9157600080fd5b505af4158015610aa5573d6000803e3d6000fd5b505050506040513d601f19601f82011682018060405250810190610ac991906142a1565b91505092915050565b610ada61337f565b84600160009054906101000a900473ffffffffffffffffffffffffffffffffffffffff1673ffffffffffffffffffffffffffffffffffffffff16638e81979a826040518263ffffffff1660e01b8152600401610b369190615126565b60206040518083038186803b158015610b4e57600080fd5b505afa158015610b62573d6000803e3d6000fd5b505050506040513d601f19601f82011682018060405250810190610b8691906142a1565b610bc5576040517f08c379a0000000000000000000000000000000000000000000000000000000008152600401610bbc906151d6565b60405180910390fd5b83600860003373ffffffffffffffffffffffffffffffffffffffff1673ffffffffffffffffffffffffffffffffffffffff1681526020019081526020016000209080519060200190610c189291906133bd565b50610c2161337f565b60006002811115610c3557610c34615744565b5b866002811115610c4857610c47615744565b5b14156112a557600060026000600787604051610c649190615007565b908152602001604051809103902060009054906101000a900473ffffffffffffffffffffffffffffffffffffffff1673ffffffffffffffffffffffffffffffffffffffff1673ffffffffffffffffffffffffffffffffffffffff16815260200190815260200160002060405180610160016040529081600082015481526020016001820160009054906101000a900473ffffffffffffffffffffffffffffffffffffffff1673ffffffffffffffffffffffffffffffffffffffff1673ffffffffffffffffffffffffffffffffffffffff168152602001600282018054610d4990615669565b80601f0160208091040260200160405190810160405280929190818152602001828054610d7590615669565b8015610dc25780601f10610d9757610100808354040283529160200191610dc2565b820191906000526020600020905b815481529060010190602001808311610da557829003601f168201915b50505050508152602001600382018054610ddb90615669565b80601f0160208091040260200160405190810160405280929190818152602001828054610e0790615669565b8015610e545780601f10610e2957610100808354040283529160200191610e54565b820191906000526020600020905b815481529060010190602001808311610e3757829003601f168201915b50505050508152602001600482018054610e6d90615669565b80601f0160208091040260200160405190810160405280929190818152602001828054610e9990615669565b8015610ee65780601f10610ebb57610100808354040283529160200191610ee6565b820191906000526020600020905b815481529060010190602001808311610ec957829003601f168201915b50505050508152602001600582018054610eff90615669565b80601f0160208091040260200160405190810160405280929190818152602001828054610f2b90615669565b8015610f785780601f10610f4d57610100808354040283529160200191610f78565b820191906000526020600020905b815481529060010190602001808311610f5b57829003601f168201915b50505050508152602001600682018054610f9190615669565b80601f0160208091040260200160405190810160405280929190818152602001828054610fbd90615669565b801561100a5780601f10610fdf5761010080835404028352916020019161100a565b820191906000526020600020905b815481529060010190602001808311610fed57829003601f168201915b5050505050815260200160078201805461102390615669565b80601f016020809104026020016040519081016040528092919081815260200182805461104f90615669565b801561109c5780601f106110715761010080835404028352916020019161109c565b820191906000526020600020905b81548152906001019060200180831161107f57829003601f168201915b505050505081526020016008820180546110b590615669565b80601f01602080910402602001604051908101604052809291908181526020018280546110e190615669565b801561112e5780601f106111035761010080835404028352916020019161112e565b820191906000526020600020905b81548152906001019060200180831161111157829003601f168201915b5050505050815260200160098201548152602001600a8201805461115190615669565b80601f016020809104026020016040519081016040528092919081815260200182805461117d90615669565b80156111ca5780601f1061119f576101008083540402835291602001916111ca565b820191906000526020600020905b8154815290600101906020018083116111ad57829003601f168201915b5050505050815250509050600073ffffffffffffffffffffffffffffffffffffffff166007866040516111fd9190615007565b908152602001604051809103902060009054906101000a900473ffffffffffffffffffffffffffffffffffffffff1673ffffffffffffffffffffffffffffffffffffffff161415611252578193505050611e58565b6040518060800160405280826060015181526020018260c0015181526020018260a001518152602001826020015173ffffffffffffffffffffffffffffffffffffffff1681525091508193505050611e58565b600160028111156112b9576112b8615744565b5b8660028111156112cc576112cb615744565b5b14156118975760005b60038054905081101561188d57600060026000600384815481106112fc576112fb6157a2565b5b9060005260206000200160009054906101000a900473ffffffffffffffffffffffffffffffffffffffff1673ffffffffffffffffffffffffffffffffffffffff1673ffffffffffffffffffffffffffffffffffffffff168152602001908152602001600020600501805461136f90615669565b80601f016020809104026020016040519081016040528092919081815260200182805461139b90615669565b80156113e85780601f106113bd576101008083540402835291602001916113e8565b820191906000526020600020905b8154815290600101906020018083116113cb57829003601f168201915b5050505050905073__$63b3866c7ad69c9b67104bce93fa94acc6$__63bed34bba82886040518363ffffffff1660e01b8152600401611428929190615148565b60206040518083038186803b15801561144057600080fd5b505af4158015611454573d6000803e3d6000fd5b505050506040513d601f19601f8201168201806040525081019061147891906142a1565b1561187957604051806080016040528060026000600386815481106114a05761149f6157a2565b5b9060005260206000200160009054906101000a900473ffffffffffffffffffffffffffffffffffffffff1673ffffffffffffffffffffffffffffffffffffffff1673ffffffffffffffffffffffffffffffffffffffff168152602001908152602001600020600301805461151390615669565b80601f016020809104026020016040519081016040528092919081815260200182805461153f90615669565b801561158c5780601f106115615761010080835404028352916020019161158c565b820191906000526020600020905b81548152906001019060200180831161156f57829003601f168201915b5050505050815260200160026000600386815481106115ae576115ad6157a2565b5b9060005260206000200160009054906101000a900473ffffffffffffffffffffffffffffffffffffffff1673ffffffffffffffffffffffffffffffffffffffff1673ffffffffffffffffffffffffffffffffffffffff168152602001908152602001600020600601805461162190615669565b80601f016020809104026020016040519081016040528092919081815260200182805461164d90615669565b801561169a5780601f1061166f5761010080835404028352916020019161169a565b820191906000526020600020905b81548152906001019060200180831161167d57829003601f168201915b5050505050815260200160026000600386815481106116bc576116bb6157a2565b5b9060005260206000200160009054906101000a900473ffffffffffffffffffffffffffffffffffffffff1673ffffffffffffffffffffffffffffffffffffffff1673ffffffffffffffffffffffffffffffffffffffff168152602001908152602001600020600501805461172f90615669565b80601f016020809104026020016040519081016040528092919081815260200182805461175b90615669565b80156117a85780601f1061177d576101008083540402835291602001916117a8565b820191906000526020600020905b81548152906001019060200180831161178b57829003601f168201915b5050505050815260200160026000600386815481106117ca576117c96157a2565b5b9060005260206000200160009054906101000a900473ffffffffffffffffffffffffffffffffffffffff1673ffffffffffffffffffffffffffffffffffffffff1673ffffffffffffffffffffffffffffffffffffffff16815260200190815260200160002060010160009054906101000a900473ffffffffffffffffffffffffffffffffffffffff1673ffffffffffffffffffffffffffffffffffffffff168152509250829450505050611e58565b508080611885906156cc565b9150506112d5565b5080925050611e58565b60005b600380549050811015611e5257600060026000600384815481106118c1576118c06157a2565b5b9060005260206000200160009054906101000a900473ffffffffffffffffffffffffffffffffffffffff1673ffffffffffffffffffffffffffffffffffffffff1673ffffffffffffffffffffffffffffffffffffffff168152602001908152602001600020600601805461193490615669565b80601f016020809104026020016040519081016040528092919081815260200182805461196090615669565b80156119ad5780601f10611982576101008083540402835291602001916119ad565b820191906000526020600020905b81548152906001019060200180831161199057829003601f168201915b5050505050905073__$63b3866c7ad69c9b67104bce93fa94acc6$__63bed34bba82886040518363ffffffff1660e01b81526004016119ed929190615148565b60206040518083038186803b158015611a0557600080fd5b505af4158015611a19573d6000803e3d6000fd5b505050506040513d601f19601f82011682018060405250810190611a3d91906142a1565b15611e3e5760405180608001604052806002600060038681548110611a6557611a646157a2565b5b9060005260206000200160009054906101000a900473ffffffffffffffffffffffffffffffffffffffff1673ffffffffffffffffffffffffffffffffffffffff1673ffffffffffffffffffffffffffffffffffffffff1681526020019081526020016000206003018054611ad890615669565b80601f0160208091040260200160405190810160405280929190818152602001828054611b0490615669565b8015611b515780601f10611b2657610100808354040283529160200191611b51565b820191906000526020600020905b815481529060010190602001808311611b3457829003601f168201915b505050505081526020016002600060038681548110611b7357611b726157a2565b5b9060005260206000200160009054906101000a900473ffffffffffffffffffffffffffffffffffffffff1673ffffffffffffffffffffffffffffffffffffffff1673ffffffffffffffffffffffffffffffffffffffff1681526020019081526020016000206006018054611be690615669565b80601f0160208091040260200160405190810160405280929190818152602001828054611c1290615669565b8015611c5f5780601f10611c3457610100808354040283529160200191611c5f565b820191906000526020600020905b815481529060010190602001808311611c4257829003601f168201915b505050505081526020016002600060038681548110611c8157611c806157a2565b5b9060005260206000200160009054906101000a900473ffffffffffffffffffffffffffffffffffffffff1673ffffffffffffffffffffffffffffffffffffffff1673ffffffffffffffffffffffffffffffffffffffff1681526020019081526020016000206005018054611cf490615669565b80601f0160208091040260200160405190810160405280929190818152602001828054611d2090615669565b8015611d6d5780601f10611d4257610100808354040283529160200191611d6d565b820191906000526020600020905b815481529060010190602001808311611d5057829003601f168201915b505050505081526020016002600060038681548110611d8f57611d8e6157a2565b5b9060005260206000200160009054906101000a900473ffffffffffffffffffffffffffffffffffffffff1673ffffffffffffffffffffffffffffffffffffffff1673ffffffffffffffffffffffffffffffffffffffff16815260200190815260200160002060010160009054906101000a900473ffffffffffffffffffffffffffffffffffffffff1673ffffffffffffffffffffffffffffffffffffffff168152509250829450505050611e58565b508080611e4a906156cc565b91505061189a565b50809250505b50949350505050565b611e6961341d565b611e7161348d565b606083600160009054906101000a900473ffffffffffffffffffffffffffffffffffffffff1673ffffffffffffffffffffffffffffffffffffffff16638e81979a826040518263ffffffff1660e01b8152600401611ecf9190615126565b60206040518083038186803b158015611ee757600080fd5b505afa158015611efb573d6000803e3d6000fd5b505050506040513d601f19601f82011682018060405250810190611f1f91906142a1565b611f5e576040517f08c379a0000000000000000000000000000000000000000000000000000000008152600401611f55906151d6565b60405180910390fd5b611f6661305d565b73__$0689fb7d66acb0fc11d309c95fd59dd4bb$__63a3af90216002600660056040518463ffffffff1660e01b8152600401611fa4939291906150ef565b60006040518083038186803b158015611fbc57600080fd5b505af4158015611fd0573d6000803e3d6000fd5b505050506040513d6000823e3d601f19601f82011682018060405250810190611ff99190614762565b935093509350509193909250565b600080600084815260200190815260200160002060000160008373ffffffffffffffffffffffffffffffffffffffff1673ffffffffffffffffffffffffffffffffffffffff16815260200190815260200160002060009054906101000a900460ff16905092915050565b6000801b81565b600082600160009054906101000a900473ffffffffffffffffffffffffffffffffffffffff1673ffffffffffffffffffffffffffffffffffffffff16638e81979a826040518263ffffffff1660e01b81526004016120d69190615126565b60206040518083038186803b1580156120ee57600080fd5b505afa158015612102573d6000803e3d6000fd5b505050506040513d601f19601f8201168201806040525081019061212691906142a1565b612165576040517f08c379a000000000000000000000000000000000000000000000000000000000815260040161215c906151d6565b60405180910390fd5b82600660003373ffffffffffffffffffffffffffffffffffffffff1673ffffffffffffffffffffffffffffffffffffffff1681526020019081526020016000206000820151816000015560208201518160010190805190602001906121cb9291906134c3565b5060408201518160020190805190602001906121e89291906134c3565b5060608201518160030190805190602001906122059291906134c3565b5060808201518160040190805190602001906122229291906134c3565b5060a082015181600501908051906020019061223f9291906134c3565b5090505061224b61305d565b600191505092915050565b600082600160009054906101000a900473ffffffffffffffffffffffffffffffffffffffff1673ffffffffffffffffffffffffffffffffffffffff16638e81979a826040518263ffffffff1660e01b81526004016122b49190615126565b60206040518083038186803b1580156122cc57600080fd5b505afa1580156122e0573d6000803e3d6000fd5b505050506040513d601f19601f8201168201806040525081019061230491906142a1565b612343576040517f08c379a000000000000000000000000000000000000000000000000000000000815260040161233a906151d6565b60405180910390fd5b600383511015612388576040517f08c379a000000000000000000000000000000000000000000000000000000000815260040161237f90615236565b60405180910390fd5b600560003373ffffffffffffffffffffffffffffffffffffffff1673ffffffffffffffffffffffffffffffffffffffff16815260200190815260200160002060006123d39190613549565b60005b835181101561251257600560003373ffffffffffffffffffffffffffffffffffffffff1673ffffffffffffffffffffffffffffffffffffffff168152602001908152602001600020848281518110612431576124306157a2565b5b602002602001015190806001815401808255809150506001900390600052602060002090600602016000909190919091506000820151816000015560208201518160010190805190602001906124889291906134c3565b5060408201518160020190805190602001906124a59291906134c3565b5060608201518160030190805190602001906124c29291906134c3565b5060808201518160040190805190602001906124df9291906134c3565b5060a08201518160050190805190602001906124fc9291906134c3565b505050808061250a906156cc565b9150506123d6565b5061251b61305d565b600191505092915050565b600083600160009054906101000a900473ffffffffffffffffffffffffffffffffffffffff1673ffffffffffffffffffffffffffffffffffffffff16638e81979a826040518263ffffffff1660e01b81526004016125849190615126565b60206040518083038186803b15801561259c57600080fd5b505afa1580156125b0573d6000803e3d6000fd5b505050506040513d601f19601f820116820180604052508101906125d491906142a1565b612613576040517f08c379a000000000000000000000000000000000000000000000000000000000815260040161260a906151d6565b60405180910390fd5b73__$63b3866c7ad69c9b67104bce93fa94acc6$__63bed34bba84600081518110612641576126406157a2565b5b6020026020010151600860003373ffffffffffffffffffffffffffffffffffffffff1673ffffffffffffffffffffffffffffffffffffffff16815260200190815260200160002060008154811061269b5761269a6157a2565b5b906000526020600020016040518363ffffffff1660e01b81526004016126c292919061517f565b60206040518083038186803b1580156126da57600080fd5b505af41580156126ee573d6000803e3d6000fd5b505050506040513d601f19601f8201168201806040525081019061271291906142a1565b8015612819575073__$63b3866c7ad69c9b67104bce93fa94acc6$__63bed34bba84600181518110612747576127466157a2565b5b6020026020010151600860003373ffffffffffffffffffffffffffffffffffffffff1673ffffffffffffffffffffffffffffffffffffffff1681526020019081526020016000206001815481106127a1576127a06157a2565b5b906000526020600020016040518363ffffffff1660e01b81526004016127c892919061517f565b60206040518083038186803b1580156127e057600080fd5b505af41580156127f4573d6000803e3d6000fd5b505050506040513d601f19601f8201168201806040525081019061281891906142a1565b5b612858576040517f08c379a000000000000000000000000000000000000000000000000000000000815260040161284f906151f6565b60405180910390fd5b3373ffffffffffffffffffffffffffffffffffffffff168473ffffffffffffffffffffffffffffffffffffffff167ff3c2cfcba78dedc0396d1efe1de1c5eefff973232934298197de8aedfa69f3bd60405160405180910390a373__$0689fb7d66acb0fc11d309c95fd59dd4bb$__6351b3875f85600260036005600660076040518763ffffffff1660e01b81526004016128f896959493929190615058565b60206040518083038186803b15801561291057600080fd5b505af4158015612924573d6000803e3d6000fd5b505050506040513d601f19601f8201168201806040525081019061294891906142a1565b9150509392505050565b61295b826104b4565b61296481612e80565b61296e8383612f7c565b505050565b600083600160009054906101000a900473ffffffffffffffffffffffffffffffffffffffff1673ffffffffffffffffffffffffffffffffffffffff16638e81979a826040518263ffffffff1660e01b81526004016129d19190615126565b60206040518083038186803b1580156129e957600080fd5b505afa1580156129fd573d6000803e3d6000fd5b505050506040513d601f19601f82011682018060405250810190612a2191906142a1565b612a60576040517f08c379a0000000000000000000000000000000000000000000000000000000008152600401612a57906151d6565b60405180910390fd5b83600260003373ffffffffffffffffffffffffffffffffffffffff1673ffffffffffffffffffffffffffffffffffffffff1681526020019081526020016000206005019080519060200190612ab69291906134c3565b5082600260003373ffffffffffffffffffffffffffffffffffffffff1673ffffffffffffffffffffffffffffffffffffffff1681526020019081526020016000206006019080519060200190612b0d9291906134c3565b503373ffffffffffffffffffffffffffffffffffffffff167faee4dfa9aa9f4f1021d38de0c94596420bc5d3aa7e88d0ba09fd53d47afefcf160405160405180910390a2612b5961305d565b60019150509392505050565b600082600160009054906101000a900473ffffffffffffffffffffffffffffffffffffffff1673ffffffffffffffffffffffffffffffffffffffff16638e81979a826040518263ffffffff1660e01b8152600401612bc39190615126565b60206040518083038186803b158015612bdb57600080fd5b505afa158015612bef573d6000803e3d6000fd5b505050506040513d601f19601f82011682018060405250810190612c1391906142a1565b612c52576040517f08c379a0000000000000000000000000000000000000000000000000000000008152600401612c49906151d6565b60405180910390fd5b8260600151600260003373ffffffffffffffffffffffffffffffffffffffff1673ffffffffffffffffffffffffffffffffffffffff1681526020019081526020016000206003019080519060200190612cac9291906134c3565b508260e00151600260003373ffffffffffffffffffffffffffffffffffffffff1673ffffffffffffffffffffffffffffffffffffffff1681526020019081526020016000206007019080519060200190612d079291906134c3565b50826101000151600260003373ffffffffffffffffffffffffffffffffffffffff1673ffffffffffffffffffffffffffffffffffffffff1681526020019081526020016000206008019080519060200190612d639291906134c3565b50826101400151600260003373ffffffffffffffffffffffffffffffffffffffff1673ffffffffffffffffffffffffffffffffffffffff168152602001908152602001600020600a019080519060200190612dbf9291906134c3565b503373ffffffffffffffffffffffffffffffffffffffff167f13c2b4a4e63545103f3545c8f3e9a0ca284cb0d0eb571fbebb15debc3aefda1360405160405180910390a2612e0b61305d565b600191505092915050565b60007f01ffc9a7000000000000000000000000000000000000000000000000000000007bffffffffffffffffffffffffffffffffffffffffffffffffffffffff1916827bffffffffffffffffffffffffffffffffffffffffffffffffffffffff1916149050919050565b612e9181612e8c612f74565b6130a6565b50565b612e9e8282612007565b612f7057600160008084815260200190815260200160002060000160008373ffffffffffffffffffffffffffffffffffffffff1673ffffffffffffffffffffffffffffffffffffffff16815260200190815260200160002060006101000a81548160ff021916908315150217905550612f15612f74565b73ffffffffffffffffffffffffffffffffffffffff168173ffffffffffffffffffffffffffffffffffffffff16837f2f8788117e7eff1d82e926ec794901d17c78024a50270940304540a733656f0d60405160405180910390a45b5050565b600033905090565b612f868282612007565b1561305957600080600084815260200190815260200160002060000160008373ffffffffffffffffffffffffffffffffffffffff1673ffffffffffffffffffffffffffffffffffffffff16815260200190815260200160002060006101000a81548160ff021916908315150217905550612ffe612f74565b73ffffffffffffffffffffffffffffffffffffffff168173ffffffffffffffffffffffffffffffffffffffff16837ff6391f5c32d9c69d2a47ea670b442974b53935d1edc7fd64eb21e047a839171b60405160405180910390a45b5050565b42600260003373ffffffffffffffffffffffffffffffffffffffff1673ffffffffffffffffffffffffffffffffffffffff16815260200190815260200160002060090181905550565b6130b08282612007565b61313f576130d58173ffffffffffffffffffffffffffffffffffffffff166014613143565b6130e38360001c6020613143565b6040516020016130f492919061501e565b6040516020818303038152906040526040517f08c379a00000000000000000000000000000000000000000000000000000000081526004016131369190615126565b60405180910390fd5b5050565b6060600060028360026131569190615525565b61316091906154cf565b67ffffffffffffffff811115613179576131786157d1565b5b6040519080825280601f01601f1916602001820160405280156131ab5781602001600182028036833780820191505090505b5090507f3000000000000000000000000000000000000000000000000000000000000000816000815181106131e3576131e26157a2565b5b60200101907effffffffffffffffffffffffffffffffffffffffffffffffffffffffffffff1916908160001a9053507f780000000000000000000000000000000000000000000000000000000000000081600181518110613247576132466157a2565b5b60200101907effffffffffffffffffffffffffffffffffffffffffffffffffffffffffffff1916908160001a905350600060018460026132879190615525565b61329191906154cf565b90505b6001811115613331577f3031323334353637383961626364656600000000000000000000000000000000600f8616601081106132d3576132d26157a2565b5b1a60f81b8282815181106132ea576132e96157a2565b5b60200101907effffffffffffffffffffffffffffffffffffffffffffffffffffffffffffff1916908160001a905350600485901c94508061332a9061563f565b9050613294565b5060008414613375576040517f08c379a000000000000000000000000000000000000000000000000000000000815260040161336c906151b6565b60405180910390fd5b8091505092915050565b6040518060800160405280606081526020016060815260200160608152602001600073ffffffffffffffffffffffffffffffffffffffff1681525090565b82805482825590600052602060002090810192821561340c579160200282015b8281111561340b5782518290805190602001906133fb9291906134c3565b50916020019190600101906133dd565b5b509050613419919061356d565b5090565b60405180610160016040528060008152602001600073ffffffffffffffffffffffffffffffffffffffff1681526020016060815260200160608152602001606081526020016060815260200160608152602001606081526020016060815260200160008152602001606081525090565b6040518060c001604052806000815260200160608152602001606081526020016060815260200160608152602001606081525090565b8280546134cf90615669565b90600052602060002090601f0160209004810192826134f15760008555613538565b82601f1061350a57805160ff1916838001178555613538565b82800160010185558215613538579182015b8281111561353757825182559160200191906001019061351c565b5b5090506135459190613591565b5090565b508054600082556006029060005260206000209081019061356a91906135ae565b50565b5b8082111561358d5760008181613584919061361d565b5060010161356e565b5090565b5b808211156135aa576000816000905550600101613592565b5090565b5b80821115613619576000808201600090556001820160006135d0919061361d565b6002820160006135e0919061361d565b6003820160006135f0919061361d565b600482016000613600919061361d565b600582016000613610919061361d565b506006016135af565b5090565b50805461362990615669565b6000825580601f1061363b575061365a565b601f0160209004906000526020600020908101906136599190613591565b5b50565b600061367061366b8461539e565b615379565b905080838252602082019050828560208602820111156136935761369261580f565b5b60005b858110156136e157813567ffffffffffffffff8111156136b9576136b8615800565b5b8086016136c68982613993565b85526020850194506020840193505050600181019050613696565b5050509392505050565b60006136fe6136f9846153ca565b615379565b905080838252602082019050828560208602820111156137215761372061580f565b5b60005b8581101561376f57813567ffffffffffffffff81111561374757613746615800565b5b80860161375489826139ef565b85526020850194506020840193505050600181019050613724565b5050509392505050565b600061378c613787846153ca565b615379565b905080838252602082019050828560208602820111156137af576137ae61580f565b5b60005b858110156137fd57815167ffffffffffffffff8111156137d5576137d4615800565b5b8086016137e28982613b1b565b855260208501945060208401935050506001810190506137b2565b5050509392505050565b600061381a613815846153f6565b615379565b90508281526020810184848401111561383657613835615814565b5b6138418482856155fd565b509392505050565b600061385c613857846153f6565b615379565b90508281526020810184848401111561387857613877615814565b5b61388384828561560c565b509392505050565b60008135905061389a816159cb565b92915050565b6000815190506138af816159cb565b92915050565b600082601f8301126138ca576138c9615800565b5b81356138da84826020860161365d565b91505092915050565b600082601f8301126138f8576138f7615800565b5b81356139088482602086016136eb565b91505092915050565b600082601f83011261392657613925615800565b5b8151613936848260208601613779565b91505092915050565b60008151905061394e816159e2565b92915050565b600081359050613963816159f9565b92915050565b60008135905061397881615a10565b92915050565b60008135905061398d81615a27565b92915050565b600082601f8301126139a8576139a7615800565b5b81356139b8848260208601613807565b91505092915050565b600082601f8301126139d6576139d5615800565b5b81516139e6848260208601613849565b91505092915050565b600060c08284031215613a0557613a04615805565b5b613a0f60c0615379565b90506000613a1f84828501614277565b600083015250602082013567ffffffffffffffff811115613a4357613a4261580a565b5b613a4f84828501613993565b602083015250604082013567ffffffffffffffff811115613a7357613a7261580a565b5b613a7f84828501613993565b604083015250606082013567ffffffffffffffff811115613aa357613aa261580a565b5b613aaf84828501613993565b606083015250608082013567ffffffffffffffff811115613ad357613ad261580a565b5b613adf84828501613993565b60808301525060a082013567ffffffffffffffff811115613b0357613b0261580a565b5b613b0f84828501613993565b60a08301525092915050565b600060c08284031215613b3157613b30615805565b5b613b3b60c0615379565b90506000613b4b8482850161428c565b600083015250602082015167ffffffffffffffff811115613b6f57613b6e61580a565b5b613b7b848285016139c1565b602083015250604082015167ffffffffffffffff811115613b9f57613b9e61580a565b5b613bab848285016139c1565b604083015250606082015167ffffffffffffffff811115613bcf57613bce61580a565b5b613bdb848285016139c1565b606083015250608082015167ffffffffffffffff811115613bff57613bfe61580a565b5b613c0b848285016139c1565b60808301525060a082015167ffffffffffffffff811115613c2f57613c2e61580a565b5b613c3b848285016139c1565b60a08301525092915050565b600060c08284031215613c5d57613c5c615805565b5b613c6760c0615379565b90506000613c7784828501614277565b600083015250602082013567ffffffffffffffff811115613c9b57613c9a61580a565b5b613ca784828501613993565b602083015250604082013567ffffffffffffffff811115613ccb57613cca61580a565b5b613cd784828501613993565b604083015250606082013567ffffffffffffffff811115613cfb57613cfa61580a565b5b613d0784828501613993565b606083015250608082013567ffffffffffffffff811115613d2b57613d2a61580a565b5b613d3784828501613993565b60808301525060a082013567ffffffffffffffff811115613d5b57613d5a61580a565b5b613d6784828501613993565b60a08301525092915050565b600060c08284031215613d8957613d88615805565b5b613d9360c0615379565b90506000613da38482850161428c565b600083015250602082015167ffffffffffffffff811115613dc757613dc661580a565b5b613dd3848285016139c1565b602083015250604082015167ffffffffffffffff811115613df757613df661580a565b5b613e03848285016139c1565b604083015250606082015167ffffffffffffffff811115613e2757613e2661580a565b5b613e33848285016139c1565b606083015250608082015167ffffffffffffffff811115613e5757613e5661580a565b5b613e63848285016139c1565b60808301525060a082015167ffffffffffffffff811115613e8757613e8661580a565b5b613e93848285016139c1565b60a08301525092915050565b60006101608284031215613eb657613eb5615805565b5b613ec1610160615379565b90506000613ed184828501614277565b6000830152506020613ee58482850161388b565b602083015250604082013567ffffffffffffffff811115613f0957613f0861580a565b5b613f1584828501613993565b604083015250606082013567ffffffffffffffff811115613f3957613f3861580a565b5b613f4584828501613993565b606083015250608082013567ffffffffffffffff811115613f6957613f6861580a565b5b613f7584828501613993565b60808301525060a082013567ffffffffffffffff811115613f9957613f9861580a565b5b613fa584828501613993565b60a08301525060c082013567ffffffffffffffff811115613fc957613fc861580a565b5b613fd584828501613993565b60c08301525060e082013567ffffffffffffffff811115613ff957613ff861580a565b5b61400584828501613993565b60e08301525061010082013567ffffffffffffffff81111561402a5761402961580a565b5b61403684828501613993565b6101008301525061012061404c84828501614277565b6101208301525061014082013567ffffffffffffffff8111156140725761407161580a565b5b61407e84828501613993565b6101408301525092915050565b600061016082840312156140a2576140a1615805565b5b6140ad610160615379565b905060006140bd8482850161428c565b60008301525060206140d1848285016138a0565b602083015250604082015167ffffffffffffffff8111156140f5576140f461580a565b5b614101848285016139c1565b604083015250606082015167ffffffffffffffff8111156141255761412461580a565b5b614131848285016139c1565b606083015250608082015167ffffffffffffffff8111156141555761415461580a565b5b614161848285016139c1565b60808301525060a082015167ffffffffffffffff8111156141855761418461580a565b5b614191848285016139c1565b60a08301525060c082015167ffffffffffffffff8111156141b5576141b461580a565b5b6141c1848285016139c1565b60c08301525060e082015167ffffffffffffffff8111156141e5576141e461580a565b5b6141f1848285016139c1565b60e08301525061010082015167ffffffffffffffff8111156142165761421561580a565b5b614222848285016139c1565b610100830152506101206142388482850161428c565b6101208301525061014082015167ffffffffffffffff81111561425e5761425d61580a565b5b61426a848285016139c1565b6101408301525092915050565b60008135905061428681615a37565b92915050565b60008151905061429b81615a37565b92915050565b6000602082840312156142b7576142b661581e565b5b60006142c58482850161393f565b91505092915050565b6000602082840312156142e4576142e361581e565b5b60006142f284828501613954565b91505092915050565b600080604083850312156143125761431161581e565b5b600061432085828601613954565b92505060206143318582860161388b565b9150509250929050565b6000602082840312156143515761435061581e565b5b600061435f84828501613969565b91505092915050565b60006020828403121561437e5761437d61581e565b5b600082013567ffffffffffffffff81111561439c5761439b615819565b5b6143a884828501613993565b91505092915050565b600080604083850312156143c8576143c761581e565b5b600083013567ffffffffffffffff8111156143e6576143e5615819565b5b6143f285828601613993565b92505060206144038582860161388b565b9150509250929050565b6000806000606084860312156144265761442561581e565b5b600084013567ffffffffffffffff81111561444457614443615819565b5b61445086828701613993565b93505060206144618682870161388b565b925050604084013567ffffffffffffffff81111561448257614481615819565b5b61448e868287016138b5565b9150509250925092565b600080604083850312156144af576144ae61581e565b5b600083013567ffffffffffffffff8111156144cd576144cc615819565b5b6144d985828601613993565b925050602083013567ffffffffffffffff8111156144fa576144f9615819565b5b614506858286016138e3565b9150509250929050565b6000806000806080858703121561452a5761452961581e565b5b600085013567ffffffffffffffff81111561454857614547615819565b5b61455487828801613993565b94505060206145658782880161397e565b935050604085013567ffffffffffffffff81111561458657614585615819565b5b614592878288016138b5565b925050606085013567ffffffffffffffff8111156145b3576145b2615819565b5b6145bf87828801613993565b91505092959194509250565b6000806000606084860312156145e4576145e361581e565b5b600084013567ffffffffffffffff81111561460257614601615819565b5b61460e86828701613993565b935050602084013567ffffffffffffffff81111561462f5761462e615819565b5b61463b86828701613993565b925050604084013567ffffffffffffffff81111561465c5761465b615819565b5b61466886828701613993565b9150509250925092565b600080604083850312156146895761468861581e565b5b600083013567ffffffffffffffff8111156146a7576146a6615819565b5b6146b385828601613993565b925050602083013567ffffffffffffffff8111156146d4576146d3615819565b5b6146e085828601613c47565b9150509250929050565b600080604083850312156147015761470061581e565b5b600083013567ffffffffffffffff81111561471f5761471e615819565b5b61472b85828601613993565b925050602083013567ffffffffffffffff81111561474c5761474b615819565b5b61475885828601613e9f565b9150509250929050565b60008060006060848603121561477b5761477a61581e565b5b600084015167ffffffffffffffff81111561479957614798615819565b5b6147a58682870161408b565b935050602084015167ffffffffffffffff8111156147c6576147c5615819565b5b6147d286828701613d73565b925050604084015167ffffffffffffffff8111156147f3576147f2615819565b5b6147ff86828701613911565b9150509250925092565b60006148158383614bd0565b905092915050565b6148268161557f565b82525050565b6148358161557f565b82525050565b6148448161557f565b82525050565b8082525050565b600061485c8261544c565b614866818561546f565b93508360208202850161487885615427565b8060005b858110156148b457848403895281516148958582614809565b94506148a083615462565b925060208a0199505060018101905061487c565b50829750879550505050505092915050565b6148cf81615591565b82525050565b6148de8161559d565b82525050565b8082525050565b8082525050565b8082525050565b8082525050565b600061490b82615457565b6149158185615480565b935061492581856020860161560c565b61492e81615823565b840191505092915050565b600061494482615457565b61494e8185615491565b935061495e81856020860161560c565b61496781615823565b840191505092915050565b600061497d82615457565b61498781856154a2565b935061499781856020860161560c565b6149a081615823565b840191505092915050565b60006149b682615457565b6149c081856154b3565b93506149d081856020860161560c565b6149d981615823565b840191505092915050565b60006149ef82615457565b6149f981856154c4565b9350614a0981856020860161560c565b80840191505092915050565b60008154614a2281615669565b614a2c81866154a2565b94506001821660008114614a475760018114614a5957614a8c565b60ff1983168652602086019350614a8c565b614a6285615437565b60005b83811015614a8457815481890152600182019150602081019050614a65565b808801955050505b50505092915050565b6000614aa2602083615491565b9150614aad82615834565b602082019050919050565b6000614ac5601483615491565b9150614ad08261585d565b602082019050919050565b6000614ae8600e83615491565b9150614af382615886565b602082019050919050565b6000614b0b600a83615491565b9150614b16826158af565b602082019050919050565b6000614b2e601483615491565b9150614b39826158d8565b602082019050919050565b6000614b51600a83615491565b9150614b5c82615901565b602082019050919050565b6000614b746017836154c4565b9150614b7f8261592a565b601782019050919050565b6000614b976011836154c4565b9150614ba282615953565b601182019050919050565b6000614bba602f83615491565b9150614bc58261597c565b604082019050919050565b600060c083016000830151614be86000860182614fcb565b5060208301518482036020860152614c008282614900565b91505060408301518482036040860152614c1a8282614900565b91505060608301518482036060860152614c348282614900565b91505060808301518482036080860152614c4e8282614900565b91505060a083015184820360a0860152614c688282614900565b9150508091505092915050565b60006080830160008301518482036000860152614c928282614900565b91505060208301518482036020860152614cac8282614900565b91505060408301518482036040860152614cc68282614900565b9150506060830151614cdb606086018261481d565b508091505092915050565b600060c083016000830151614cfe6000860182614fcb565b5060208301518482036020860152614d168282614900565b91505060408301518482036040860152614d308282614900565b91505060608301518482036060860152614d4a8282614900565b91505060808301518482036080860152614d648282614900565b91505060a083015184820360a0860152614d7e8282614900565b9150508091505092915050565b600061016083016000830151614da46000860182614fcb565b506020830151614db7602086018261481d565b5060408301518482036040860152614dcf8282614900565b91505060608301518482036060860152614de98282614900565b91505060808301518482036080860152614e038282614900565b91505060a083015184820360a0860152614e1d8282614900565b91505060c083015184820360c0860152614e378282614900565b91505060e083015184820360e0860152614e518282614900565b915050610100830151848203610100860152614e6d8282614900565b915050610120830151614e84610120860182614fcb565b50610140830151848203610140860152614e9e8282614900565b9150508091505092915050565b600061016083016000830151614ec46000860182614ff8565b506020830151614ed7602086018261483b565b5060408301518482036040860152614eef82826149ab565b91505060608301518482036060860152614f0982826149ab565b91505060808301518482036080860152614f2382826149ab565b91505060a083015184820360a0860152614f3d82826149ab565b91505060c083015184820360c0860152614f5782826149ab565b91505060e083015184820360e0860152614f7182826149ab565b915050610100830151848203610100860152614f8d82826149ab565b915050610120830151614fa4610120860182614ff8565b50610140830151848203610140860152614fbe82826149ab565b9150508091505092915050565b614fd4816155f3565b82525050565b614fe3816155f3565b82525050565b614ff2816155f3565b82525050565b615001816155f3565b82525050565b600061501382846149e4565b915081905092915050565b600061502982614b67565b915061503582856149e4565b915061504082614b8a565b915061504c82846149e4565b91508190509392505050565b600060c08201905061506d600083018961482c565b61507a60208301886148f2565b615087604083018761484a565b61509460608301866148e4565b6150a160808301856148eb565b6150ae60a08301846148f9565b979650505050505050565b60006020820190506150ce60008301846148c6565b92915050565b60006020820190506150e960008301846148d5565b92915050565b600060608201905061510460008301866148f2565b61511160208301856148eb565b61511e60408301846148e4565b949350505050565b600060208201905081810360008301526151408184614939565b905092915050565b600060408201905081810360008301526151628185614972565b905081810360208301526151768184614972565b90509392505050565b600060408201905081810360008301526151998185614972565b905081810360208301526151ad8184614a15565b90509392505050565b600060208201905081810360008301526151cf81614a95565b9050919050565b600060208201905081810360008301526151ef81614ab8565b9050919050565b6000602082019050818103600083015261520f81614adb565b9050919050565b6000602082019050818103600083015261522f81614afe565b9050919050565b6000602082019050818103600083015261524f81614b21565b9050919050565b6000602082019050818103600083015261526f81614b44565b9050919050565b6000602082019050818103600083015261528f81614bad565b9050919050565b600060208201905081810360008301526152b08184614c75565b905092915050565b600060a08201905081810360008301526152d28188614eab565b90506152e160208301876148f2565b6152ee604083018661484a565b6152fb60608301856148f9565b6153086080830184614fe9565b9695505050505050565b6000606082019050818103600083015261532c8186614d8b565b905081810360208301526153408185614ce6565b905081810360408301526153548184614851565b9050949350505050565b60006020820190506153736000830184614fda565b92915050565b6000615383615394565b905061538f828261569b565b919050565b6000604051905090565b600067ffffffffffffffff8211156153b9576153b86157d1565b5b602082029050602081019050919050565b600067ffffffffffffffff8211156153e5576153e46157d1565b5b602082029050602081019050919050565b600067ffffffffffffffff821115615411576154106157d1565b5b61541a82615823565b9050602081019050919050565b6000819050602082019050919050565b60008190508160005260206000209050919050565b600081519050919050565b600081519050919050565b6000602082019050919050565b600082825260208201905092915050565b600082825260208201905092915050565b600082825260208201905092915050565b600082825260208201905092915050565b600082825260208201905092915050565b600081905092915050565b60006154da826155f3565b91506154e5836155f3565b9250827fffffffffffffffffffffffffffffffffffffffffffffffffffffffffffffffff0382111561551a57615519615715565b5b828201905092915050565b6000615530826155f3565b915061553b836155f3565b9250817fffffffffffffffffffffffffffffffffffffffffffffffffffffffffffffffff048311821515161561557457615573615715565b5b828202905092915050565b600061558a826155d3565b9050919050565b60008115159050919050565b6000819050919050565b60007fffffffff0000000000000000000000000000000000000000000000000000000082169050919050565b600073ffffffffffffffffffffffffffffffffffffffff82169050919050565b6000819050919050565b82818337600083830152505050565b60005b8381101561562a57808201518184015260208101905061560f565b83811115615639576000848401525b50505050565b600061564a826155f3565b9150600082141561565e5761565d615715565b5b600182039050919050565b6000600282049050600182168061568157607f821691505b6020821081141561569557615694615773565b5b50919050565b6156a482615823565b810181811067ffffffffffffffff821117156156c3576156c26157d1565b5b80604052505050565b60006156d7826155f3565b91507fffffffffffffffffffffffffffffffffffffffffffffffffffffffffffffffff82141561570a57615709615715565b5b600182019050919050565b7f4e487b7100000000000000000000000000000000000000000000000000000000600052601160045260246000fd5b7f4e487b7100000000000000000000000000000000000000000000000000000000600052602160045260246000fd5b7f4e487b7100000000000000000000000000000000000000000000000000000000600052602260045260246000fd5b7f4e487b7100000000000000000000000000000000000000000000000000000000600052603260045260246000fd5b7f4e487b7100000000000000000000000000000000000000000000000000000000600052604160045260246000fd5b600080fd5b600080fd5b600080fd5b600080fd5b600080fd5b600080fd5b600080fd5b6000601f19601f8301169050919050565b7f537472696e67733a20686578206c656e67746820696e73756666696369656e74600082015250565b7f496e76616c69642061636365737320746f6b656e000000000000000000000000600082015250565b7f496e76616c696420546f6b656e73000000000000000000000000000000000000600082015250565b7f5573657220657869737400000000000000000000000000000000000000000000600082015250565b7f4d696e696d756d20636f6e7461637473203a2033000000000000000000000000600082015250565b7f546f6b656e207573656400000000000000000000000000000000000000000000600082015250565b7f416363657373436f6e74726f6c3a206163636f756e7420000000000000000000600082015250565b7f206973206d697373696e6720726f6c6520000000000000000000000000000000600082015250565b7f416363657373436f6e74726f6c3a2063616e206f6e6c792072656e6f756e636560008201527f20726f6c657320666f722073656c660000000000000000000000000000000000602082015250565b6159d48161557f565b81146159df57600080fd5b50565b6159eb81615591565b81146159f657600080fd5b50565b615a028161559d565b8114615a0d57600080fd5b50565b615a19816155a7565b8114615a2457600080fd5b50565b60038110615a3457600080fd5b50565b615a40816155f3565b8114615a4b57600080fd5b5056fea26469706673582212202399d16c144b5a12bfb0f585a399586e1f2b73c9ac9e71043806c6cc859db74f64736f6c63430008060033",
  "linkReferences": {
    "contracts/Users/UserLib.sol": {
      "UserLib": [
        {
          "length": 20,
          "start": 2753
        },
        {
          "length": 20,
          "start": 3330
        },
        {
          "length": 20,
          "start": 8757
        },
        {
          "length": 20,
          "start": 11137
        }
      ]
    },
    "contracts/Utils/Utils.sol": {
      "Utils": [
        {
          "length": 20,
          "start": 5822
        },
        {
          "length": 20,
          "start": 7299
        },
        {
          "length": 20,
          "start": 10466
        },
        {
          "length": 20,
          "start": 10728
        }
      ]
    }
  },
  "deployedLinkReferences": {
    "contracts/Users/UserLib.sol": {
      "UserLib": [
        {
          "length": 20,
          "start": 2036
        },
        {
          "length": 20,
          "start": 2613
        },
        {
          "length": 20,
          "start": 8040
        },
        {
          "length": 20,
          "start": 10420
        }
      ]
    },
    "contracts/Utils/Utils.sol": {
      "Utils": [
        {
          "length": 20,
          "start": 5105
        },
        {
          "length": 20,
          "start": 6582
        },
        {
          "length": 20,
          "start": 9749
        },
        {
          "length": 20,
          "start": 10011
        }
      ]
    }
  }
}