{
  "_format": "hh-sol-artifact-1",
  "contractName": "Users",
  "sourceName": "contracts/Users/Users.sol",
  "abi": [
    {
      "inputs": [
        {
          "internalType": "contract Auth",
          "name": "_auth",
          "type": "address"
        }
      ],
      "stateMutability": "nonpayable",
      "type": "constructor"
    },
    {
      "anonymous": false,
      "inputs": [
        {
          "indexed": true,
          "internalType": "address",
          "name": "user_address",
          "type": "address"
        }
      ],
      "name": "UserAccountEdited",
      "type": "event"
    },
    {
      "anonymous": false,
      "inputs": [
        {
          "indexed": true,
          "internalType": "address",
          "name": "user_address",
          "type": "address"
        }
      ],
      "name": "UserContactsUpdated",
      "type": "event"
    },
    {
      "anonymous": false,
      "inputs": [
        {
          "indexed": true,
          "internalType": "address",
          "name": "user_address",
          "type": "address"
        }
      ],
      "name": "UserCreated",
      "type": "event"
    },
    {
      "inputs": [
        {
          "internalType": "string",
          "name": "platform_token",
          "type": "string"
        },
        {
          "components": [
            {
              "internalType": "uint256",
              "name": "id",
              "type": "uint256"
            },
            {
              "internalType": "address",
              "name": "wallet_addr",
              "type": "address"
            },
            {
              "internalType": "string",
              "name": "fullname",
              "type": "string"
            },
            {
              "internalType": "string",
              "name": "avatar",
              "type": "string"
            },
            {
              "internalType": "string",
              "name": "email",
              "type": "string"
            },
            {
              "internalType": "string",
              "name": "phone",
              "type": "string"
            },
            {
              "internalType": "string",
              "name": "country",
              "type": "string"
            },
            {
              "internalType": "string",
              "name": "street_address",
              "type": "string"
            },
            {
              "internalType": "string",
              "name": "next_of_kin",
              "type": "string"
            },
            {
              "internalType": "string",
              "name": "next_of_kin_phone",
              "type": "string"
            },
            {
              "internalType": "string",
              "name": "next_of_kin_email",
              "type": "string"
            },
            {
              "internalType": "string",
              "name": "others",
              "type": "string"
            }
          ],
          "internalType": "struct Structs.User",
          "name": "new_user",
          "type": "tuple"
        }
      ],
      "name": "createAccount",
      "outputs": [
        {
          "internalType": "bool",
          "name": "",
          "type": "bool"
        }
      ],
      "stateMutability": "nonpayable",
      "type": "function"
    },
    {
      "inputs": [
        {
          "internalType": "string",
          "name": "platform_token",
          "type": "string"
        },
        {
          "components": [
            {
              "internalType": "uint256",
              "name": "id",
              "type": "uint256"
            },
            {
              "internalType": "address",
              "name": "wallet_addr",
              "type": "address"
            },
            {
              "internalType": "string",
              "name": "fullname",
              "type": "string"
            },
            {
              "internalType": "string",
              "name": "avatar",
              "type": "string"
            },
            {
              "internalType": "string",
              "name": "email",
              "type": "string"
            },
            {
              "internalType": "string",
              "name": "phone",
              "type": "string"
            },
            {
              "internalType": "string",
              "name": "country",
              "type": "string"
            },
            {
              "internalType": "string",
              "name": "street_address",
              "type": "string"
            },
            {
              "internalType": "string",
              "name": "next_of_kin",
              "type": "string"
            },
            {
              "internalType": "string",
              "name": "next_of_kin_phone",
              "type": "string"
            },
            {
              "internalType": "string",
              "name": "next_of_kin_email",
              "type": "string"
            },
            {
              "internalType": "string",
              "name": "others",
              "type": "string"
            }
          ],
          "internalType": "struct Structs.User",
          "name": "edited_user",
          "type": "tuple"
        }
      ],
      "name": "editAccount",
      "outputs": [
        {
          "internalType": "bool",
          "name": "",
          "type": "bool"
        }
      ],
      "stateMutability": "nonpayable",
      "type": "function"
    },
    {
      "inputs": [
        {
          "internalType": "string",
          "name": "platform_token",
          "type": "string"
        }
      ],
      "name": "fetchUserData",
      "outputs": [
        {
          "components": [
            {
              "internalType": "uint256",
              "name": "id",
              "type": "uint256"
            },
            {
              "internalType": "address",
              "name": "wallet_addr",
              "type": "address"
            },
            {
              "internalType": "string",
              "name": "fullname",
              "type": "string"
            },
            {
              "internalType": "string",
              "name": "avatar",
              "type": "string"
            },
            {
              "internalType": "string",
              "name": "email",
              "type": "string"
            },
            {
              "internalType": "string",
              "name": "phone",
              "type": "string"
            },
            {
              "internalType": "string",
              "name": "country",
              "type": "string"
            },
            {
              "internalType": "string",
              "name": "street_address",
              "type": "string"
            },
            {
              "internalType": "string",
              "name": "next_of_kin",
              "type": "string"
            },
            {
              "internalType": "string",
              "name": "next_of_kin_phone",
              "type": "string"
            },
            {
              "internalType": "string",
              "name": "next_of_kin_email",
              "type": "string"
            },
            {
              "internalType": "string",
              "name": "others",
              "type": "string"
            }
          ],
          "internalType": "struct Structs.User",
          "name": "",
          "type": "tuple"
        }
      ],
      "stateMutability": "view",
      "type": "function"
    },
    {
      "inputs": [
        {
          "internalType": "string",
          "name": "platform_token",
          "type": "string"
        },
        {
          "internalType": "string",
          "name": "email",
          "type": "string"
        },
        {
          "internalType": "string",
          "name": "phone",
          "type": "string"
        }
      ],
      "name": "updateContacts",
      "outputs": [
        {
          "internalType": "bool",
          "name": "",
          "type": "bool"
        }
      ],
      "stateMutability": "nonpayable",
      "type": "function"
    },
    {
      "inputs": [],
      "name": "userCount",
      "outputs": [
        {
          "internalType": "uint256",
          "name": "",
          "type": "uint256"
        }
      ],
      "stateMutability": "view",
      "type": "function"
    }
  ],
  "bytecode": "0x60806040523480156200001157600080fd5b506040516200206838038062002068833981810160405281019062000037919062000095565b806000806101000a81548173ffffffffffffffffffffffffffffffffffffffff021916908373ffffffffffffffffffffffffffffffffffffffff160217905550506200012e565b6000815190506200008f8162000114565b92915050565b600060208284031215620000ae57620000ad6200010f565b5b6000620000be848285016200007e565b91505092915050565b6000620000d482620000ef565b9050919050565b6000620000e882620000c7565b9050919050565b600073ffffffffffffffffffffffffffffffffffffffff82169050919050565b600080fd5b6200011f81620000db565b81146200012b57600080fd5b50565b611f2a806200013e6000396000f3fe608060405234801561001057600080fd5b50600436106100575760003560e01c806307973ccf1461005c5780637dea0da01461007a578063918ba311146100aa578063f2b0a7db146100da578063f5f5c7c21461010a575b600080fd5b61006461013a565b6040516100719190611ba7565b60405180910390f35b610094600480360381019061008f9190611859565b610140565b6040516100a19190611b08565b60405180910390f35b6100c460048036038101906100bf9190611769565b6105dc565b6040516100d19190611b85565b60405180910390f35b6100f460048036038101906100ef9190611859565b610d34565b6040516101019190611b08565b60405180910390f35b610124600480360381019061011f91906117b2565b611151565b6040516101319190611b08565b60405180910390f35b60035481565b60003260018060008373ffffffffffffffffffffffffffffffffffffffff1673ffffffffffffffffffffffffffffffffffffffff168152602001908152602001600020600201805461019190611ccf565b9050106101d3576040517f08c379a00000000000000000000000000000000000000000000000000000000081526004016101ca90611b45565b60405180910390fd5b8360008054906101000a900473ffffffffffffffffffffffffffffffffffffffff1673ffffffffffffffffffffffffffffffffffffffff16638e81979a826040518263ffffffff1660e01b815260040161022d9190611b23565b60206040518083038186803b15801561024557600080fd5b505afa158015610259573d6000803e3d6000fd5b505050506040513d601f19601f8201168201806040525081019061027d919061173c565b6102bc576040517f08c379a00000000000000000000000000000000000000000000000000000000081526004016102b390611b65565b60405180910390fd5b604051806101800160405280600360008154809291906102db90611d32565b9190505581526020013273ffffffffffffffffffffffffffffffffffffffff16815260200185604001518152602001604051806020016040528060008152508152602001856080015181526020018560a0015181526020018560c0015181526020018560e001518152602001856101000151815260200185610120015181526020018561014001518152602001856101600151815250600160003273ffffffffffffffffffffffffffffffffffffffff1673ffffffffffffffffffffffffffffffffffffffff1681526020019081526020016000206000820151816000015560208201518160010160006101000a81548173ffffffffffffffffffffffffffffffffffffffff021916908373ffffffffffffffffffffffffffffffffffffffff160217905550604082015181600201908051906020019061041d929190611339565b50606082015181600301908051906020019061043a929190611339565b506080820151816004019080519060200190610457929190611339565b5060a0820151816005019080519060200190610474929190611339565b5060c0820151816006019080519060200190610491929190611339565b5060e08201518160070190805190602001906104ae929190611339565b506101008201518160080190805190602001906104cc929190611339565b506101208201518160090190805190602001906104ea929190611339565b5061014082015181600a019080519060200190610508929190611339565b5061016082015181600b019080519060200190610526929190611339565b509050506002329080600181540180825580915050600190039060005260206000200160009091909190916101000a81548173ffffffffffffffffffffffffffffffffffffffff021916908373ffffffffffffffffffffffffffffffffffffffff1602179055503273ffffffffffffffffffffffffffffffffffffffff167f0b0376a109cbb578b709f85f6a7befcdac3ac1ab251c99ede87f30c9572ac4d360405160405180910390a260019250505092915050565b6105e46113bf565b8160008054906101000a900473ffffffffffffffffffffffffffffffffffffffff1673ffffffffffffffffffffffffffffffffffffffff16638e81979a826040518263ffffffff1660e01b815260040161063e9190611b23565b60206040518083038186803b15801561065657600080fd5b505afa15801561066a573d6000803e3d6000fd5b505050506040513d601f19601f8201168201806040525081019061068e919061173c565b6106cd576040517f08c379a00000000000000000000000000000000000000000000000000000000081526004016106c490611b65565b60405180910390fd5b600160003273ffffffffffffffffffffffffffffffffffffffff1673ffffffffffffffffffffffffffffffffffffffff16815260200190815260200160002060405180610180016040529081600082015481526020016001820160009054906101000a900473ffffffffffffffffffffffffffffffffffffffff1673ffffffffffffffffffffffffffffffffffffffff1673ffffffffffffffffffffffffffffffffffffffff16815260200160028201805461078890611ccf565b80601f01602080910402602001604051908101604052809291908181526020018280546107b490611ccf565b80156108015780601f106107d657610100808354040283529160200191610801565b820191906000526020600020905b8154815290600101906020018083116107e457829003601f168201915b5050505050815260200160038201805461081a90611ccf565b80601f016020809104026020016040519081016040528092919081815260200182805461084690611ccf565b80156108935780601f1061086857610100808354040283529160200191610893565b820191906000526020600020905b81548152906001019060200180831161087657829003601f168201915b505050505081526020016004820180546108ac90611ccf565b80601f01602080910402602001604051908101604052809291908181526020018280546108d890611ccf565b80156109255780601f106108fa57610100808354040283529160200191610925565b820191906000526020600020905b81548152906001019060200180831161090857829003601f168201915b5050505050815260200160058201805461093e90611ccf565b80601f016020809104026020016040519081016040528092919081815260200182805461096a90611ccf565b80156109b75780601f1061098c576101008083540402835291602001916109b7565b820191906000526020600020905b81548152906001019060200180831161099a57829003601f168201915b505050505081526020016006820180546109d090611ccf565b80601f01602080910402602001604051908101604052809291908181526020018280546109fc90611ccf565b8015610a495780601f10610a1e57610100808354040283529160200191610a49565b820191906000526020600020905b815481529060010190602001808311610a2c57829003601f168201915b50505050508152602001600782018054610a6290611ccf565b80601f0160208091040260200160405190810160405280929190818152602001828054610a8e90611ccf565b8015610adb5780601f10610ab057610100808354040283529160200191610adb565b820191906000526020600020905b815481529060010190602001808311610abe57829003601f168201915b50505050508152602001600882018054610af490611ccf565b80601f0160208091040260200160405190810160405280929190818152602001828054610b2090611ccf565b8015610b6d5780601f10610b4257610100808354040283529160200191610b6d565b820191906000526020600020905b815481529060010190602001808311610b5057829003601f168201915b50505050508152602001600982018054610b8690611ccf565b80601f0160208091040260200160405190810160405280929190818152602001828054610bb290611ccf565b8015610bff5780601f10610bd457610100808354040283529160200191610bff565b820191906000526020600020905b815481529060010190602001808311610be257829003601f168201915b50505050508152602001600a82018054610c1890611ccf565b80601f0160208091040260200160405190810160405280929190818152602001828054610c4490611ccf565b8015610c915780601f10610c6657610100808354040283529160200191610c91565b820191906000526020600020905b815481529060010190602001808311610c7457829003601f168201915b50505050508152602001600b82018054610caa90611ccf565b80601f0160208091040260200160405190810160405280929190818152602001828054610cd690611ccf565b8015610d235780601f10610cf857610100808354040283529160200191610d23565b820191906000526020600020905b815481529060010190602001808311610d0657829003601f168201915b505050505081525050915050919050565b60008260008054906101000a900473ffffffffffffffffffffffffffffffffffffffff1673ffffffffffffffffffffffffffffffffffffffff16638e81979a826040518263ffffffff1660e01b8152600401610d909190611b23565b60206040518083038186803b158015610da857600080fd5b505afa158015610dbc573d6000803e3d6000fd5b505050506040513d601f19601f82011682018060405250810190610de0919061173c565b610e1f576040517f08c379a0000000000000000000000000000000000000000000000000000000008152600401610e1690611b65565b60405180910390fd5b8260400151600160003273ffffffffffffffffffffffffffffffffffffffff1673ffffffffffffffffffffffffffffffffffffffff1681526020019081526020016000206002019080519060200190610e79929190611339565b508260c00151600160003273ffffffffffffffffffffffffffffffffffffffff1673ffffffffffffffffffffffffffffffffffffffff1681526020019081526020016000206006019080519060200190610ed4929190611339565b508260e00151600160003273ffffffffffffffffffffffffffffffffffffffff1673ffffffffffffffffffffffffffffffffffffffff1681526020019081526020016000206007019080519060200190610f2f929190611339565b50826101000151600160003273ffffffffffffffffffffffffffffffffffffffff1673ffffffffffffffffffffffffffffffffffffffff1681526020019081526020016000206008019080519060200190610f8b929190611339565b50826101200151600160003273ffffffffffffffffffffffffffffffffffffffff1673ffffffffffffffffffffffffffffffffffffffff1681526020019081526020016000206009019080519060200190610fe7929190611339565b50826101400151600160003273ffffffffffffffffffffffffffffffffffffffff1673ffffffffffffffffffffffffffffffffffffffff168152602001908152602001600020600a019080519060200190611043929190611339565b50826101600151600160003273ffffffffffffffffffffffffffffffffffffffff1673ffffffffffffffffffffffffffffffffffffffff168152602001908152602001600020600b01908051906020019061109f929190611339565b506002329080600181540180825580915050600190039060005260206000200160009091909190916101000a81548173ffffffffffffffffffffffffffffffffffffffff021916908373ffffffffffffffffffffffffffffffffffffffff1602179055503273ffffffffffffffffffffffffffffffffffffffff167f13c2b4a4e63545103f3545c8f3e9a0ca284cb0d0eb571fbebb15debc3aefda1360405160405180910390a2600191505092915050565b60008360008054906101000a900473ffffffffffffffffffffffffffffffffffffffff1673ffffffffffffffffffffffffffffffffffffffff16638e81979a826040518263ffffffff1660e01b81526004016111ad9190611b23565b60206040518083038186803b1580156111c557600080fd5b505afa1580156111d9573d6000803e3d6000fd5b505050506040513d601f19601f820116820180604052508101906111fd919061173c565b61123c576040517f08c379a000000000000000000000000000000000000000000000000000000000815260040161123390611b65565b60405180910390fd5b83600160003273ffffffffffffffffffffffffffffffffffffffff1673ffffffffffffffffffffffffffffffffffffffff1681526020019081526020016000206004019080519060200190611292929190611339565b5082600160003273ffffffffffffffffffffffffffffffffffffffff1673ffffffffffffffffffffffffffffffffffffffff16815260200190815260200160002060050190805190602001906112e9929190611339565b503273ffffffffffffffffffffffffffffffffffffffff167faee4dfa9aa9f4f1021d38de0c94596420bc5d3aa7e88d0ba09fd53d47afefcf160405160405180910390a260019150509392505050565b82805461134590611ccf565b90600052602060002090601f01602090048101928261136757600085556113ae565b82601f1061138057805160ff19168380011785556113ae565b828001600101855582156113ae579182015b828111156113ad578251825591602001919060010190611392565b5b5090506113bb9190611436565b5090565b60405180610180016040528060008152602001600073ffffffffffffffffffffffffffffffffffffffff168152602001606081526020016060815260200160608152602001606081526020016060815260200160608152602001606081526020016060815260200160608152602001606081525090565b5b8082111561144f576000816000905550600101611437565b5090565b600061146661146184611be7565b611bc2565b90508281526020810184848401111561148257611481611e17565b5b61148d848285611c8d565b509392505050565b6000813590506114a481611eaf565b92915050565b6000815190506114b981611ec6565b92915050565b600082601f8301126114d4576114d3611e08565b5b81356114e4848260208601611453565b91505092915050565b6000610180828403121561150457611503611e0d565b5b61150f610180611bc2565b9050600061151f84828501611727565b600083015250602061153384828501611495565b602083015250604082013567ffffffffffffffff81111561155757611556611e12565b5b611563848285016114bf565b604083015250606082013567ffffffffffffffff81111561158757611586611e12565b5b611593848285016114bf565b606083015250608082013567ffffffffffffffff8111156115b7576115b6611e12565b5b6115c3848285016114bf565b60808301525060a082013567ffffffffffffffff8111156115e7576115e6611e12565b5b6115f3848285016114bf565b60a08301525060c082013567ffffffffffffffff81111561161757611616611e12565b5b611623848285016114bf565b60c08301525060e082013567ffffffffffffffff81111561164757611646611e12565b5b611653848285016114bf565b60e08301525061010082013567ffffffffffffffff81111561167857611677611e12565b5b611684848285016114bf565b6101008301525061012082013567ffffffffffffffff8111156116aa576116a9611e12565b5b6116b6848285016114bf565b6101208301525061014082013567ffffffffffffffff8111156116dc576116db611e12565b5b6116e8848285016114bf565b6101408301525061016082013567ffffffffffffffff81111561170e5761170d611e12565b5b61171a848285016114bf565b6101608301525092915050565b60008135905061173681611edd565b92915050565b60006020828403121561175257611751611e21565b5b6000611760848285016114aa565b91505092915050565b60006020828403121561177f5761177e611e21565b5b600082013567ffffffffffffffff81111561179d5761179c611e1c565b5b6117a9848285016114bf565b91505092915050565b6000806000606084860312156117cb576117ca611e21565b5b600084013567ffffffffffffffff8111156117e9576117e8611e1c565b5b6117f5868287016114bf565b935050602084013567ffffffffffffffff81111561181657611815611e1c565b5b611822868287016114bf565b925050604084013567ffffffffffffffff81111561184357611842611e1c565b5b61184f868287016114bf565b9150509250925092565b600080604083850312156118705761186f611e21565b5b600083013567ffffffffffffffff81111561188e5761188d611e1c565b5b61189a858286016114bf565b925050602083013567ffffffffffffffff8111156118bb576118ba611e1c565b5b6118c7858286016114ed565b9150509250929050565b6118da81611c45565b82525050565b6118e981611c57565b82525050565b60006118fa82611c18565b6119048185611c23565b9350611914818560208601611c9c565b61191d81611e26565b840191505092915050565b600061193382611c18565b61193d8185611c34565b935061194d818560208601611c9c565b61195681611e26565b840191505092915050565b600061196e601283611c34565b915061197982611e37565b602082019050919050565b6000611991602483611c34565b915061199c82611e60565b604082019050919050565b6000610180830160008301516119c06000860182611aea565b5060208301516119d360208601826118d1565b50604083015184820360408601526119eb82826118ef565b91505060608301518482036060860152611a0582826118ef565b91505060808301518482036080860152611a1f82826118ef565b91505060a083015184820360a0860152611a3982826118ef565b91505060c083015184820360c0860152611a5382826118ef565b91505060e083015184820360e0860152611a6d82826118ef565b915050610100830151848203610100860152611a8982826118ef565b915050610120830151848203610120860152611aa582826118ef565b915050610140830151848203610140860152611ac182826118ef565b915050610160830151848203610160860152611add82826118ef565b9150508091505092915050565b611af381611c83565b82525050565b611b0281611c83565b82525050565b6000602082019050611b1d60008301846118e0565b92915050565b60006020820190508181036000830152611b3d8184611928565b905092915050565b60006020820190508181036000830152611b5e81611961565b9050919050565b60006020820190508181036000830152611b7e81611984565b9050919050565b60006020820190508181036000830152611b9f81846119a7565b905092915050565b6000602082019050611bbc6000830184611af9565b92915050565b6000611bcc611bdd565b9050611bd88282611d01565b919050565b6000604051905090565b600067ffffffffffffffff821115611c0257611c01611dd9565b5b611c0b82611e26565b9050602081019050919050565b600081519050919050565b600082825260208201905092915050565b600082825260208201905092915050565b6000611c5082611c63565b9050919050565b60008115159050919050565b600073ffffffffffffffffffffffffffffffffffffffff82169050919050565b6000819050919050565b82818337600083830152505050565b60005b83811015611cba578082015181840152602081019050611c9f565b83811115611cc9576000848401525b50505050565b60006002820490506001821680611ce757607f821691505b60208210811415611cfb57611cfa611daa565b5b50919050565b611d0a82611e26565b810181811067ffffffffffffffff82111715611d2957611d28611dd9565b5b80604052505050565b6000611d3d82611c83565b91507fffffffffffffffffffffffffffffffffffffffffffffffffffffffffffffffff821415611d7057611d6f611d7b565b5b600182019050919050565b7f4e487b7100000000000000000000000000000000000000000000000000000000600052601160045260246000fd5b7f4e487b7100000000000000000000000000000000000000000000000000000000600052602260045260246000fd5b7f4e487b7100000000000000000000000000000000000000000000000000000000600052604160045260246000fd5b600080fd5b600080fd5b600080fd5b600080fd5b600080fd5b600080fd5b6000601f19601f8301169050919050565b7f5573657220616c72656164792065786973740000000000000000000000000000600082015250565b7f4163636573732064656e696564202d20496e76616c696420616363657373207460008201527f6f6b656e00000000000000000000000000000000000000000000000000000000602082015250565b611eb881611c45565b8114611ec357600080fd5b50565b611ecf81611c57565b8114611eda57600080fd5b50565b611ee681611c83565b8114611ef157600080fd5b5056fea264697066735822122045552eda2fe9e131a5e63dfee35e94865eb2b6b7614bb0340e0f61d16577cd2164736f6c63430008060033",
  "linkReferences": {},
  "deployedLinkReferences": {}
}