{
  "_format": "hh-sol-artifact-1",
  "contractName": "Auth",
  "sourceName": "contracts/Auth/Auth.sol",
  "abi": [
    {
      "inputs": [
        {
          "internalType": "string",
          "name": "platform_token",
          "type": "string"
        }
      ],
      "stateMutability": "nonpayable",
      "type": "constructor"
    },
    {
      "inputs": [
        {
          "internalType": "string",
          "name": "newToken",
          "type": "string"
        }
      ],
      "name": "changePlatformToken",
      "outputs": [],
      "stateMutability": "nonpayable",
      "type": "function"
    },
    {
      "inputs": [
        {
          "internalType": "uint256",
          "name": "newPercent",
          "type": "uint256"
        }
      ],
      "name": "changeRecoveryPercent",
      "outputs": [],
      "stateMutability": "nonpayable",
      "type": "function"
    },
    {
      "inputs": [
        {
          "internalType": "uint256",
          "name": "percent",
          "type": "uint256"
        }
      ],
      "name": "percentangeCheck",
      "outputs": [
        {
          "internalType": "bool",
          "name": "",
          "type": "bool"
        }
      ],
      "stateMutability": "view",
      "type": "function"
    },
    {
      "inputs": [
        {
          "internalType": "string",
          "name": "platform_token",
          "type": "string"
        }
      ],
      "name": "platformCheck",
      "outputs": [
        {
          "internalType": "bool",
          "name": "",
          "type": "bool"
        }
      ],
      "stateMutability": "view",
      "type": "function"
    },
    {
      "inputs": [
        {
          "internalType": "contract Users",
          "name": "newUserAddr",
          "type": "address"
        }
      ],
      "name": "setUser",
      "outputs": [],
      "stateMutability": "nonpayable",
      "type": "function"
    }
  ],
  "bytecode": "0x60806040523480156200001157600080fd5b506040516200129738038062001297833981810160405281019062000037919062000220565b73__$d8a3f2adb54e08eb4054d90fde97f16b4e$__63316b5efe82836040518363ffffffff1660e01b815260040162000072929190620002b2565b60006040518083038186803b1580156200008b57600080fd5b505af4158015620000a0573d6000803e3d6000fd5b505050506040513d6000823e3d601f19601f82011682018060405250810190620000cb919062000220565b60009080519060200190620000e2929190620000f2565b506042600181905550506200048d565b82805462000100906200039e565b90600052602060002090601f01602090048101928262000124576000855562000170565b82601f106200013f57805160ff191683800117855562000170565b8280016001018555821562000170579182015b828111156200016f57825182559160200191906001019062000152565b5b5090506200017f919062000183565b5090565b5b808211156200019e57600081600090555060010162000184565b5090565b6000620001b9620001b38462000316565b620002ed565b905082815260208101848484011115620001d857620001d76200046d565b5b620001e584828562000368565b509392505050565b600082601f83011262000205576200020462000468565b5b815162000217848260208601620001a2565b91505092915050565b60006020828403121562000239576200023862000477565b5b600082015167ffffffffffffffff8111156200025a576200025962000472565b5b6200026884828501620001ed565b91505092915050565b60006200027e826200034c565b6200028a818562000357565b93506200029c81856020860162000368565b620002a7816200047c565b840191505092915050565b60006040820190508181036000830152620002ce818562000271565b90508181036020830152620002e4818462000271565b90509392505050565b6000620002f96200030c565b9050620003078282620003d4565b919050565b6000604051905090565b600067ffffffffffffffff82111562000334576200033362000439565b5b6200033f826200047c565b9050602081019050919050565b600081519050919050565b600082825260208201905092915050565b60005b83811015620003885780820151818401526020810190506200036b565b8381111562000398576000848401525b50505050565b60006002820490506001821680620003b757607f821691505b60208210811415620003ce57620003cd6200040a565b5b50919050565b620003df826200047c565b810181811067ffffffffffffffff8211171562000401576200040062000439565b5b80604052505050565b7f4e487b7100000000000000000000000000000000000000000000000000000000600052602260045260246000fd5b7f4e487b7100000000000000000000000000000000000000000000000000000000600052604160045260246000fd5b600080fd5b600080fd5b600080fd5b600080fd5b6000601f19601f8301169050919050565b610dfa806200049d6000396000f3fe608060405234801561001057600080fd5b50600436106100575760003560e01c8063052d1c4b1461005c578063858ced35146100785780638675c402146100945780638e81979a146100c4578063e08056e7146100f4575b600080fd5b6100766004803603810190610071919061082c565b610110565b005b610092600480360381019061008d91906107ff565b61027b565b005b6100ae60048036038101906100a991906108be565b6103cb565b6040516100bb9190610a17565b60405180910390f35b6100de60048036038101906100d9919061082c565b6103da565b6040516100eb9190610a17565b60405180910390f35b61010e600480360381019061010991906108be565b6104fa565b005b600260009054906101000a900473ffffffffffffffffffffffffffffffffffffffff1673ffffffffffffffffffffffffffffffffffffffff166391d148547fdf8b4c520ffe197c5343c6f5aec59570151ef9a492f2c624fd45ddde6135ec42336040518363ffffffff1660e01b815260040161018d929190610a32565b60206040518083038186803b1580156101a557600080fd5b505afa1580156101b9573d6000803e3d6000fd5b505050506040513d601f19601f820116820180604052508101906101dd91906107d2565b61021c576040517f08c379a000000000000000000000000000000000000000000000000000000000815260040161021390610ac9565b60405180910390fd5b600a81511015610261576040517f08c379a000000000000000000000000000000000000000000000000000000000815260040161025890610ae9565b60405180910390fd5b8060009080519060200190610277929190610610565b5050565b600260009054906101000a900473ffffffffffffffffffffffffffffffffffffffff1673ffffffffffffffffffffffffffffffffffffffff166391d148547fdf8b4c520ffe197c5343c6f5aec59570151ef9a492f2c624fd45ddde6135ec42336040518363ffffffff1660e01b81526004016102f8929190610a32565b60206040518083038186803b15801561031057600080fd5b505afa158015610324573d6000803e3d6000fd5b505050506040513d601f19601f8201168201806040525081019061034891906107d2565b610387576040517f08c379a000000000000000000000000000000000000000000000000000000000815260040161037e90610ac9565b60405180910390fd5b80600260006101000a81548173ffffffffffffffffffffffffffffffffffffffff021916908373ffffffffffffffffffffffffffffffffffffffff16021790555050565b60006001548210159050919050565b600073__$63b3866c7ad69c9b67104bce93fa94acc6$__63bed34bba600073__$d8a3f2adb54e08eb4054d90fde97f16b4e$__63316b5efe86876040518363ffffffff1660e01b8152600401610431929190610a5b565b60006040518083038186803b15801561044957600080fd5b505af415801561045d573d6000803e3d6000fd5b505050506040513d6000823e3d601f19601f820116820180604052508101906104869190610875565b6040518363ffffffff1660e01b81526004016104a3929190610a92565b60206040518083038186803b1580156104bb57600080fd5b505af41580156104cf573d6000803e3d6000fd5b505050506040513d601f19601f820116820180604052508101906104f391906107d2565b9050919050565b600260009054906101000a900473ffffffffffffffffffffffffffffffffffffffff1673ffffffffffffffffffffffffffffffffffffffff166391d148547fdf8b4c520ffe197c5343c6f5aec59570151ef9a492f2c624fd45ddde6135ec42336040518363ffffffff1660e01b8152600401610577929190610a32565b60206040518083038186803b15801561058f57600080fd5b505afa1580156105a3573d6000803e3d6000fd5b505050506040513d601f19601f820116820180604052508101906105c791906107d2565b610606576040517f08c379a00000000000000000000000000000000000000000000000000000000081526004016105fd90610ac9565b60405180910390fd5b8060018190555050565b82805461061c90610c47565b90600052602060002090601f01602090048101928261063e5760008555610685565b82601f1061065757805160ff1916838001178555610685565b82800160010185558215610685579182015b82811115610684578251825591602001919060010190610669565b5b5090506106929190610696565b5090565b5b808211156106af576000816000905550600101610697565b5090565b60006106c66106c184610b2e565b610b09565b9050828152602081018484840111156106e2576106e1610d0d565b5b6106ed848285610c05565b509392505050565b600061070861070384610b2e565b610b09565b90508281526020810184848401111561072457610723610d0d565b5b61072f848285610c14565b509392505050565b60008151905061074681610d7f565b92915050565b60008135905061075b81610d96565b92915050565b600082601f83011261077657610775610d08565b5b81356107868482602086016106b3565b91505092915050565b600082601f8301126107a4576107a3610d08565b5b81516107b48482602086016106f5565b91505092915050565b6000813590506107cc81610dad565b92915050565b6000602082840312156107e8576107e7610d17565b5b60006107f684828501610737565b91505092915050565b60006020828403121561081557610814610d17565b5b60006108238482850161074c565b91505092915050565b60006020828403121561084257610841610d17565b5b600082013567ffffffffffffffff8111156108605761085f610d12565b5b61086c84828501610761565b91505092915050565b60006020828403121561088b5761088a610d17565b5b600082015167ffffffffffffffff8111156108a9576108a8610d12565b5b6108b58482850161078f565b91505092915050565b6000602082840312156108d4576108d3610d17565b5b60006108e2848285016107bd565b91505092915050565b6108f481610ba1565b82525050565b61090381610bb3565b82525050565b61091281610bbf565b82525050565b600061092382610b74565b61092d8185610b90565b935061093d818560208601610c14565b61094681610d1c565b840191505092915050565b6000815461095e81610c47565b6109688186610b90565b945060018216600081146109835760018114610995576109c8565b60ff19831686526020860193506109c8565b61099e85610b5f565b60005b838110156109c0578154818901526001820191506020810190506109a1565b808801955050505b50505092915050565b60006109de600e83610b7f565b91506109e982610d2d565b602082019050919050565b6000610a01601f83610b7f565b9150610a0c82610d56565b602082019050919050565b6000602082019050610a2c60008301846108fa565b92915050565b6000604082019050610a476000830185610909565b610a5460208301846108eb565b9392505050565b60006040820190508181036000830152610a758185610918565b90508181036020830152610a898184610918565b90509392505050565b60006040820190508181036000830152610aac8185610951565b90508181036020830152610ac08184610918565b90509392505050565b60006020820190508181036000830152610ae2816109d1565b9050919050565b60006020820190508181036000830152610b02816109f4565b9050919050565b6000610b13610b24565b9050610b1f8282610c79565b919050565b6000604051905090565b600067ffffffffffffffff821115610b4957610b48610cd9565b5b610b5282610d1c565b9050602081019050919050565b60008190508160005260206000209050919050565b600081519050919050565b600082825260208201905092915050565b600082825260208201905092915050565b6000610bac82610bdb565b9050919050565b60008115159050919050565b6000819050919050565b6000610bd482610ba1565b9050919050565b600073ffffffffffffffffffffffffffffffffffffffff82169050919050565b6000819050919050565b82818337600083830152505050565b60005b83811015610c32578082015181840152602081019050610c17565b83811115610c41576000848401525b50505050565b60006002820490506001821680610c5f57607f821691505b60208210811415610c7357610c72610caa565b5b50919050565b610c8282610d1c565b810181811067ffffffffffffffff82111715610ca157610ca0610cd9565b5b80604052505050565b7f4e487b7100000000000000000000000000000000000000000000000000000000600052602260045260246000fd5b7f4e487b7100000000000000000000000000000000000000000000000000000000600052604160045260246000fd5b600080fd5b600080fd5b600080fd5b600080fd5b6000601f19601f8301169050919050565b7f6163636573732064656e696e6564000000000000000000000000000000000000600082015250565b7f4d757374206265203130206368617261637465727320616e642061626f766500600082015250565b610d8881610bb3565b8114610d9357600080fd5b50565b610d9f81610bc9565b8114610daa57600080fd5b50565b610db681610bfb565b8114610dc157600080fd5b5056fea2646970667358221220caa7d9c8bf700b2e6fcfdae4dceb4bca2b6b17059183c6c9901742b7090d231364736f6c63430008060033",
  "linkReferences": {
    "contracts/Hashing/Hashing.sol": {
      "Hashing": [
        {
          "length": 20,
          "start": 57
        },
        {
          "length": 20,
          "start": 2199
        }
      ]
    },
    "contracts/Utils/Utils.sol": {
      "Utils": [
        {
          "length": 20,
          "start": 2171
        }
      ]
    }
  },
  "deployedLinkReferences": {
    "contracts/Hashing/Hashing.sol": {
      "Hashing": [
        {
          "length": 20,
          "start": 1018
        }
      ]
    },
    "contracts/Utils/Utils.sol": {
      "Utils": [
        {
          "length": 20,
          "start": 990
        }
      ]
    }
  }
}