{
  "_format": "hh-sol-artifact-1",
  "contractName": "Auth",
  "sourceName": "contracts/Auth/Auth.sol",
  "abi": [
    {
      "inputs": [
        {
          "internalType": "string",
          "name": "platform_token",
          "type": "string"
        }
      ],
      "stateMutability": "nonpayable",
      "type": "constructor"
    },
    {
      "inputs": [
        {
          "internalType": "string",
          "name": "newToken",
          "type": "string"
        }
      ],
      "name": "changePlatformToken",
      "outputs": [],
      "stateMutability": "nonpayable",
      "type": "function"
    },
    {
      "inputs": [
        {
          "internalType": "uint256",
          "name": "newPercent",
          "type": "uint256"
        }
      ],
      "name": "changeRecoveryPercent",
      "outputs": [],
      "stateMutability": "nonpayable",
      "type": "function"
    },
    {
      "inputs": [
        {
          "internalType": "uint256",
          "name": "percent",
          "type": "uint256"
        }
      ],
      "name": "percentangeCheck",
      "outputs": [
        {
          "internalType": "bool",
          "name": "",
          "type": "bool"
        }
      ],
      "stateMutability": "view",
      "type": "function"
    },
    {
      "inputs": [
        {
          "internalType": "string",
          "name": "platform_token",
          "type": "string"
        }
      ],
      "name": "platformCheck",
      "outputs": [
        {
          "internalType": "bool",
          "name": "",
          "type": "bool"
        }
      ],
      "stateMutability": "view",
      "type": "function"
    },
    {
      "inputs": [
        {
          "internalType": "string",
          "name": "platform_token",
          "type": "string"
        },
        {
          "internalType": "contract Users",
          "name": "newUserAddr",
          "type": "address"
        }
      ],
      "name": "setUser",
      "outputs": [],
      "stateMutability": "nonpayable",
      "type": "function"
    }
  ],
  "bytecode": "0x60806040523480156200001157600080fd5b506040516200126f3803806200126f833981810160405281019062000037919062000220565b73__$d8a3f2adb54e08eb4054d90fde97f16b4e$__63316b5efe82836040518363ffffffff1660e01b815260040162000072929190620002b2565b60006040518083038186803b1580156200008b57600080fd5b505af4158015620000a0573d6000803e3d6000fd5b505050506040513d6000823e3d601f19601f82011682018060405250810190620000cb919062000220565b60009080519060200190620000e2929190620000f2565b506042600181905550506200048d565b82805462000100906200039e565b90600052602060002090601f01602090048101928262000124576000855562000170565b82601f106200013f57805160ff191683800117855562000170565b8280016001018555821562000170579182015b828111156200016f57825182559160200191906001019062000152565b5b5090506200017f919062000183565b5090565b5b808211156200019e57600081600090555060010162000184565b5090565b6000620001b9620001b38462000316565b620002ed565b905082815260208101848484011115620001d857620001d76200046d565b5b620001e584828562000368565b509392505050565b600082601f83011262000205576200020462000468565b5b815162000217848260208601620001a2565b91505092915050565b60006020828403121562000239576200023862000477565b5b600082015167ffffffffffffffff8111156200025a576200025962000472565b5b6200026884828501620001ed565b91505092915050565b60006200027e826200034c565b6200028a818562000357565b93506200029c81856020860162000368565b620002a7816200047c565b840191505092915050565b60006040820190508181036000830152620002ce818562000271565b90508181036020830152620002e4818462000271565b90509392505050565b6000620002f96200030c565b9050620003078282620003d4565b919050565b6000604051905090565b600067ffffffffffffffff82111562000334576200033362000439565b5b6200033f826200047c565b9050602081019050919050565b600081519050919050565b600082825260208201905092915050565b60005b83811015620003885780820151818401526020810190506200036b565b8381111562000398576000848401525b50505050565b60006002820490506001821680620003b757607f821691505b60208210811415620003ce57620003cd6200040a565b5b50919050565b620003df826200047c565b810181811067ffffffffffffffff8211171562000401576200040062000439565b5b80604052505050565b7f4e487b7100000000000000000000000000000000000000000000000000000000600052602260045260246000fd5b7f4e487b7100000000000000000000000000000000000000000000000000000000600052604160045260246000fd5b600080fd5b600080fd5b600080fd5b600080fd5b6000601f19601f8301169050919050565b610dd2806200049d6000396000f3fe608060405234801561001057600080fd5b50600436106100575760003560e01c8063052d1c4b1461005c5780633b891d85146100785780638675c402146100945780638e81979a146100c4578063e08056e7146100f4575b600080fd5b6100766004803603810190610071919061073c565b610110565b005b610092600480360381019061008d91906107ce565b61027b565b005b6100ae60048036038101906100a9919061082a565b610308565b6040516100bb91906109a6565b60405180910390f35b6100de60048036038101906100d9919061073c565b610317565b6040516100eb91906109a6565b60405180910390f35b61010e6004803603810190610109919061082a565b610437565b005b600260009054906101000a900473ffffffffffffffffffffffffffffffffffffffff1673ffffffffffffffffffffffffffffffffffffffff166391d148547fdf8b4c520ffe197c5343c6f5aec59570151ef9a492f2c624fd45ddde6135ec42336040518363ffffffff1660e01b815260040161018d9291906109c1565b60206040518083038186803b1580156101a557600080fd5b505afa1580156101b9573d6000803e3d6000fd5b505050506040513d601f19601f820116820180604052508101906101dd919061070f565b61021c576040517f08c379a000000000000000000000000000000000000000000000000000000000815260040161021390610a58565b60405180910390fd5b600a81511015610261576040517f08c379a000000000000000000000000000000000000000000000000000000000815260040161025890610a78565b60405180910390fd5b806000908051906020019061027792919061054d565b5050565b61028482610317565b6102c3576040517f08c379a00000000000000000000000000000000000000000000000000000000081526004016102ba90610a98565b60405180910390fd5b80600260006101000a81548173ffffffffffffffffffffffffffffffffffffffff021916908373ffffffffffffffffffffffffffffffffffffffff1602179055505050565b60006001548210159050919050565b600073__$63b3866c7ad69c9b67104bce93fa94acc6$__63bed34bba600073__$d8a3f2adb54e08eb4054d90fde97f16b4e$__63316b5efe86876040518363ffffffff1660e01b815260040161036e9291906109ea565b60006040518083038186803b15801561038657600080fd5b505af415801561039a573d6000803e3d6000fd5b505050506040513d6000823e3d601f19601f820116820180604052508101906103c39190610785565b6040518363ffffffff1660e01b81526004016103e0929190610a21565b60206040518083038186803b1580156103f857600080fd5b505af415801561040c573d6000803e3d6000fd5b505050506040513d601f19601f82011682018060405250810190610430919061070f565b9050919050565b600260009054906101000a900473ffffffffffffffffffffffffffffffffffffffff1673ffffffffffffffffffffffffffffffffffffffff166391d148547fdf8b4c520ffe197c5343c6f5aec59570151ef9a492f2c624fd45ddde6135ec42336040518363ffffffff1660e01b81526004016104b49291906109c1565b60206040518083038186803b1580156104cc57600080fd5b505afa1580156104e0573d6000803e3d6000fd5b505050506040513d601f19601f82011682018060405250810190610504919061070f565b610543576040517f08c379a000000000000000000000000000000000000000000000000000000000815260040161053a90610a58565b60405180910390fd5b8060018190555050565b82805461055990610bf6565b90600052602060002090601f01602090048101928261057b57600085556105c2565b82601f1061059457805160ff19168380011785556105c2565b828001600101855582156105c2579182015b828111156105c15782518255916020019190600101906105a6565b5b5090506105cf91906105d3565b5090565b5b808211156105ec5760008160009055506001016105d4565b5090565b60006106036105fe84610add565b610ab8565b90508281526020810184848401111561061f5761061e610cbc565b5b61062a848285610bb4565b509392505050565b600061064561064084610add565b610ab8565b90508281526020810184848401111561066157610660610cbc565b5b61066c848285610bc3565b509392505050565b60008151905061068381610d57565b92915050565b60008135905061069881610d6e565b92915050565b600082601f8301126106b3576106b2610cb7565b5b81356106c38482602086016105f0565b91505092915050565b600082601f8301126106e1576106e0610cb7565b5b81516106f1848260208601610632565b91505092915050565b60008135905061070981610d85565b92915050565b60006020828403121561072557610724610cc6565b5b600061073384828501610674565b91505092915050565b60006020828403121561075257610751610cc6565b5b600082013567ffffffffffffffff8111156107705761076f610cc1565b5b61077c8482850161069e565b91505092915050565b60006020828403121561079b5761079a610cc6565b5b600082015167ffffffffffffffff8111156107b9576107b8610cc1565b5b6107c5848285016106cc565b91505092915050565b600080604083850312156107e5576107e4610cc6565b5b600083013567ffffffffffffffff81111561080357610802610cc1565b5b61080f8582860161069e565b925050602061082085828601610689565b9150509250929050565b6000602082840312156108405761083f610cc6565b5b600061084e848285016106fa565b91505092915050565b61086081610b50565b82525050565b61086f81610b62565b82525050565b61087e81610b6e565b82525050565b600061088f82610b23565b6108998185610b3f565b93506108a9818560208601610bc3565b6108b281610ccb565b840191505092915050565b600081546108ca81610bf6565b6108d48186610b3f565b945060018216600081146108ef576001811461090157610934565b60ff1983168652602086019350610934565b61090a85610b0e565b60005b8381101561092c5781548189015260018201915060208101905061090d565b808801955050505b50505092915050565b600061094a600e83610b2e565b915061095582610cdc565b602082019050919050565b600061096d601f83610b2e565b915061097882610d05565b602082019050919050565b6000610990601283610b2e565b915061099b82610d2e565b602082019050919050565b60006020820190506109bb6000830184610866565b92915050565b60006040820190506109d66000830185610875565b6109e36020830184610857565b9392505050565b60006040820190508181036000830152610a048185610884565b90508181036020830152610a188184610884565b90509392505050565b60006040820190508181036000830152610a3b81856108bd565b90508181036020830152610a4f8184610884565b90509392505050565b60006020820190508181036000830152610a718161093d565b9050919050565b60006020820190508181036000830152610a9181610960565b9050919050565b60006020820190508181036000830152610ab181610983565b9050919050565b6000610ac2610ad3565b9050610ace8282610c28565b919050565b6000604051905090565b600067ffffffffffffffff821115610af857610af7610c88565b5b610b0182610ccb565b9050602081019050919050565b60008190508160005260206000209050919050565b600081519050919050565b600082825260208201905092915050565b600082825260208201905092915050565b6000610b5b82610b8a565b9050919050565b60008115159050919050565b6000819050919050565b6000610b8382610b50565b9050919050565b600073ffffffffffffffffffffffffffffffffffffffff82169050919050565b6000819050919050565b82818337600083830152505050565b60005b83811015610be1578082015181840152602081019050610bc6565b83811115610bf0576000848401525b50505050565b60006002820490506001821680610c0e57607f821691505b60208210811415610c2257610c21610c59565b5b50919050565b610c3182610ccb565b810181811067ffffffffffffffff82111715610c5057610c4f610c88565b5b80604052505050565b7f4e487b7100000000000000000000000000000000000000000000000000000000600052602260045260246000fd5b7f4e487b7100000000000000000000000000000000000000000000000000000000600052604160045260246000fd5b600080fd5b600080fd5b600080fd5b600080fd5b6000601f19601f8301169050919050565b7f6163636573732064656e696e6564000000000000000000000000000000000000600082015250565b7f4d757374206265203130206368617261637465727320616e642061626f766500600082015250565b7f616363657373206e6f7420616c6c6f7765640000000000000000000000000000600082015250565b610d6081610b62565b8114610d6b57600080fd5b50565b610d7781610b78565b8114610d8257600080fd5b50565b610d8e81610baa565b8114610d9957600080fd5b5056fea264697066735822122093873c196cc05dd7056764201a1c5c2572b249e6351accc022c55b7ffd97e4e764736f6c63430008060033",
  "linkReferences": {
    "contracts/Hashing/Hashing.sol": {
      "Hashing": [
        {
          "length": 20,
          "start": 57
        },
        {
          "length": 20,
          "start": 2004
        }
      ]
    },
    "contracts/Utils/Utils.sol": {
      "Utils": [
        {
          "length": 20,
          "start": 1976
        }
      ]
    }
  },
  "deployedLinkReferences": {
    "contracts/Hashing/Hashing.sol": {
      "Hashing": [
        {
          "length": 20,
          "start": 823
        }
      ]
    },
    "contracts/Utils/Utils.sol": {
      "Utils": [
        {
          "length": 20,
          "start": 795
        }
      ]
    }
  }
}